:020000040800F2
:10000000B80D0020DD010008ED0A0008B90A00085B
:10001000E90A00089D0600084717000800000000D4
:100020000000000000000000000000002F0E00088B
:10003000EF08000800000000750B0008190F000809
:10004000F7010008F7010008F7010008F7010008B0
:10005000F7010008F7010008F7010008F7010008A0
:10006000F7010008F7010008F7010008F701000890
:10007000A1060008B3060008F7010008F701000810
:10008000C9060008DF060008F7010008F7010008AC
:10009000F7010008F7010008F7010008F701000860
:1000A000F7010008F7010008F7010008F701000850
:1000B000F7010008F7010008F7010008F701000840
:1000C000F7010008F7010008F7010008F701000830
:1000D000F70100086D1000081D110008D11100087B
:1000E000F7010008F7010008F7010008F701000810
:1000F000F7010008F7010008F7010008F701000800
:10010000F7010008F7010008F7010008F7010008EF
:10011000990F0008D50F0008F7010008F701000843
:10012000F7010008F7010008F7010008F7010008CF
:1001300000F002F800F043F80AA090E8000C8244B6
:100140008344AAF10107DA4501D100F038F8AFF293
:10015000090EBAE80F0013F0010F18BFFB1A43F0A5
:1001600001031847841F0000A41F0000103A24BF99
:1001700078C878C1FAD8520724BF30C830C144BF0C
:1001800004680C607047000000230024002500264E
:10019000103A28BF78C1FBD8520728BF30C148BFEA
:1001A0000B607047732900F0A381002070471FB5D2
:1001B0009DE8030000F054F91FBD10B510BD00F01C
:1001C000EFF91146FFF7F3FF01F08AFB00F00DFA9B
:1001D00003B4FFF7F2FF03BC00F03AFA0948804786
:1001E00009480047FEE7FEE7FEE7FEE7FEE7FEE719
:1001F000FEE7FEE7FEE7FEE704480549054A064B31
:1002000070470000390F000831010008B8010020D4
:10021000B80D0020B8090020B809002070B50646C6
:1002200000F002F9056806F10B0020F00704B44263
:100230009CBF002070BD2B466A68BAB11068A0420E
:1002400010D304F1080188423CBF5068586007D3BE
:100250005168101941601168091B016058601460F1
:10026000101D70BD13465268002AE7D1214628466A
:1002700000F0E2F80028DED170BD70B50446051F1D
:1002800000F0D2F80068002C14BF446870BD002C48
:1002900018BFAC423CBF20466468F8D301680A1816
:1002A000AA4218BF456003D12A680546114401607F
:1002B00028684119A1421CBF6C6070BD616869600B
:1002C00021680844286070BD0FB4044910B503AA22
:1002D000029800F011F910BC5DF814FB200000201A
:1002E0002DE9F0410E460446002020622046E168D8
:1002F000884730B3252805D0D4E901219047206AEA
:10030000401CF2E7E168204600278847050018D026
:10031000A5F14100192802D820354FF40067324674
:10032000294620462760FFF73DFF40B1012804D051
:10033000F61D26F007060836D8E7361DD6E728460C
:10034000DAE7206ABDE8F08170B50C460546012A5F
:1003500005D02878800600D5EA69002302E0012351
:1003600005E05B1C934202D2E05C0028F9D1A86949
:10037000E618C01AA861286A184428622846AFF314
:10038000008004E0D5E9012114F8010B9047B44244
:10039000F8D32846AFF3008070BD30B505460B4654
:1003A0002A4613F8014B12F8010B08B1A042F8D00D
:1003B0001CB1002802D06D1CF1E7284630BD10B5F5
:1003C000203AC0F00B80B1E81850203AA0E818504D
:1003D000B1E81850A0E81850BFF4F5AF5FEA027C0E
:1003E00024BFB1E81850A0E8185044BF18C918C07D
:1003F000BDE810405FEA827C24BF51F8043B40F81E
:10040000043B08BF7047D20728BF31F8023B48BF02
:1004100011F8012B28BF20F8023B48BF00F8012B40
:100420007047704770477047004870476001002070
:10043000704770477047704738B504460A46002039
:100440006946AFF30080002808BF38BD0246009916
:10045000204600F067F8012038BD012000F098B870
:10046000F8B5AFF30080054600200C46102000BF11
:100470000646A819A0420DD9324669460020AFF3BE
:100480000080070008BF00F083F80098A04218BF62
:100490000546C419FFF7C8FF05600746F01D20F0A8
:1004A00007004619284600F00AF8B44208BFF8BD14
:1004B000A21B31463868BDE8F84000F033B800218F
:1004C0000160C0E9011070471020704710B5436902
:1004D00013B1AFF3008001E0FFF736FF012010BD3C
:1004E000127800F124010A7000224A700122EDE71F
:1004F00011684FF0FF32E9E7074B70B50D467B44BA
:1005000000F02FF80446284600F03EF810B14FF0F6
:10051000FF3070BD204670BDC71300000048704713
:1005200058010020034640688C46002818BF8842C6
:100530003CBF03464068F8D318681844884207D087
:100540000CF1030020F00700001D411A521A014669
:10055000081D0A60FFF791BE01694A1C0261087814
:10056000704700B58FB0CDE90131002105910549F3
:100570007944CDE9031011466846FFF7B1FE0FB08C
:1005800000BD0000E5FFFFFF007B00F0800070472A
:1005900010B500F035F8BDE8104000F02CB87047F9
:1005A0007546FFF7BBFFAE4605006946534620F08F
:1005B0000700854618B020B5FFF71EFEBDE82040B5
:1005C0004FF000064FF000074FF000084FF0000B0F
:1005D00021F00701AC46ACE8C009ACE8C009ACE8C2
:1005E000C009ACE8C0098D4670470446AFF30080EF
:1005F0002046FFF7EDFD002801D000F029B8704734
:1006000010B5012805D0002103A000F027F8012033
:1006100010BD09A1F8E7000053494752544D454D1C
:100620003A204F7574206F662068656170206D6593
:100630006D6F7279000000003A2048656170206D8E
:10064000656D6F727920636F727275707465640086
:1006500001491820ABBEFEE72600020070B5054632
:100660000C460A2000E06D1C00F011F835B1287826
:100670000028F8D102E0641C00F009F814B12078D9
:100680000028F8D1BDE870400A20AFF3008008B51B
:1006900069468DF800000320ABBE08BD00BFFEE731
:1006A00010B5202000F0E6F810B1202000F022F86C
:1006B00010BD10B54FF4007000F0DCF818B14FF425
:1006C000007000F017F810BD10B54FF4001000F0E6
:1006D000D1F818B14FF4001000F00CF810BD10B5AF
:1006E0004FF0007000F0C6F818B14FF0007000F045
:1006F00001F810BD00F0805111B10349086001E01C
:1007000002494860704700000404024000000240B3
:1007100021B1026842F00102026004E002684FF673
:10072000FE731A400260704701684FF6FE72114076
:1007300001600021016041608160C1604B498842D5
:1007400008D14A490839496841F00F01474A083A37
:1007500051608AE045491431884208D1434908393B
:10076000496841F0F001414A083A51607DE03F4953
:100770002831884208D13D490839496841F47061FF
:100780003A4A083A516070E038493C31884208D111
:1007900036490839496841F47041344A083A516091
:1007A00063E032495031884208D1304908394968FC
:1007B00041F470212D4A083A516056E02B496431CA
:1007C000884208D129490839496841F47001274A0B
:1007D000083A516049E025497831884208D12349D7
:1007E0000839496841F07061204A083A51603CE09C
:1007F0001F49884206D1011F096841F00F01021FFD
:10080000116032E01A491431884208D11849091F91
:10081000096841F0F001164A121F116025E01449E1
:100820002831884208D11249091F096841F47061D2
:100830000F4A121F116018E00D493C31884208D15F
:100840000B49091F096841F47041094A121F1160E0
:100850000BE007495031884207D10549091F096853
:1008600041F47021024A121F1160704708000240D3
:100870000804024001460020002201F0805313B119
:10088000054B1A6801E0054B1A6802EA01030BB137
:10089000012000E0002070470004024000000240F8
:1008A0001AB103680B43036002E003688B430360E3
:1008B000704710B50022026847F6F0739A430C6A3D
:1008C0008B6823430C6923434C6923438C6923437E
:1008D000CC6923434C6A23438C6A23431A43026046
:1008E000CB6843600B6883604B68C36010BD704782
:1008F0002DE9F041024600250026002000230024B7
:10090000002791F803C00CF00F0591F803C00CF01C
:10091000100CBCF1000F03D091F802C04CEA0505A1
:1009200091F800C0BCF1000F31D0146800202BE01A
:100930004FF0010C0CFA00F3B1F800C00CEA03060A
:100940009E4220D183004FF00F0C0CFA03F7BC43FA
:1009500005FA03FC4CEA040491F803C0BCF1280F2B
:1009600006D14FF0010C0CFA00FCC2F814C00AE0EA
:1009700091F803C0BCF1480F05D14FF0010C0CFAFF
:1009800000FCC2F810C0401C0828D1D31460B1F894
:1009900000C0BCF1FF0F34DD546800202EE000F1F0
:1009A000080C4FF0010808FA0CF3B1F800C00CEA8B
:1009B00003069E4221D183004FF00F0C0CFA03F77F
:1009C000BC4305FA03FC4CEA040491F803C0BCF1F3
:1009D000280F05D100F1080C08FA0CF8C2F81480B1
:1009E00091F803C0BCF1480F07D100F1080C4FF09B
:1009F000010808FA0CF8C2F81080401C0828CED371
:100A00005460BDE8F081416170470000F8B50446CC
:100A10000D4616461F462148844204D10121042078
:100A200000F0DAF82EE01E48844204D101210820AB
:100A300000F0D2F826E01B48844204D101211020A6
:100A400000F0CAF81EE01848844204D10121202099
:100A500000F0C2F816E01548844204D1012140207C
:100A600000F0BAF80EE01248844204D1012180203F
:100A700000F0B2F806E00F48844203D1012180154E
:100A800000F0AAF8ADF800508DF803608DF8027000
:100A900069462046FFF72CFFF8BD00000008014022
:100AA000000C0140001001400014014000180140FA
:100AB000001C01400020014000BFFEE710B50323E9
:100AC000102260210648FFF7A1FF20210448FFF70C
:100AD0009AFF0323482220210248FFF797FF10BD09
:100AE000000C01400018014000BFFEE77047000005
:100AF00070B5002100230F22C47804B3154C24687C
:100B000004F4E064C4F5E064210AC1F10403CA40BE
:100B1000447804FA03F184781440214309010E4C0F
:100B20000678A155047804F01F050124AC4005782F
:100B30006D11AD0005F1E025C5F8004109E004782C
:100B400004F01F050124AC40044D0678761145F8E9
:100B5000264070BD0CED00E000E400E080E100E024
:100B600002490143024A1160704700000000FA0583
:100B70000CED00E07047000029B1064A52690243BB
:100B8000044B5A6104E0034A52698243014B5A61A3
:100B9000704700000010024029B1064AD2690243A2
:100BA000044BDA6104E0034AD2698243014BDA6103
:100BB000704700000010024029B1064A1269024342
:100BC000044B1A6104E0034A12698243014B1A6123
:100BD000704700000010024029B1064A92690243A2
:100BE000044B9A6104E0034A92698243014B9A6183
:100BF000704700000010024029B1064AD268024343
:100C0000044BDA6004E0034AD2688243014BDA60A5
:100C1000704700000010024030B50021002200247F
:100C200000232D4D6D6805F00C0121B1042905D07C
:100C3000082923D105E0294D056022E0274D0560F4
:100C40001FE0254D6D6805F47012234D6D6805F4A5
:100C50008034022505EB92421CB9214D55430560B5
:100C60000BE01D4D6D6805F400351DB11C4D55435D
:100C7000056002E0194D5543056002E0174D05601F
:100C800000BF00BF144D6D6805F0F0010909154D56
:100C90006B5C0568DD4045600F4D6D6805F4E061F3
:100CA000090A104D6B5C4568DD4085600A4D6D6832
:100CB00005F46051C90A0B4D6B5C4568DD40C560A9
:100CC000054D6D6805F44041890B074D6B5CC568A7
:100CD000B5FBF3F5056130BD0010024000127A004B
:100CE00000093D00700000208000002021B1028832
:100CF00042F04002028004E002884FF6BF731A40BF
:100D00000280704710B50022028802F441520B881D
:100D10004C8823438C882343CC8823430C8923436A
:100D20004C8923438C892343CC8923431A43028073
:100D3000838B4FF2FF74234083830B8A038210BDA1
:100D400030B585B004460D4601210846FFF744FF43
:100D50001F4884420AD103231822E0211D48FFF7CF
:100D600055FE01210803FFF737FF0CE01A488442C3
:100D700009D10323182281001848FFF747FE0121FB
:100D80008803FFF709FFADF80C500020ADF8000014
:100D90004FF48270ADF802000020ADF80400ADF809
:100DA0000600ADF808004FF40070ADF80A0000200E
:100DB000ADF80E000720ADF8100069462046FFF799
:100DC000A1FF01212046FFF791FF05B030BD0000D3
:100DD000003001400008014000380040000C014094
:100DE00038B5044601210846FFF7C6FE4FF4A0605F
:100DF000FFF7B6FE0C208DF8000000208DF80100F2
:100E00008DF8020001208DF803006846FFF770FEA0
:100E10000D208DF8000000208DF801008DF80200F3
:100E200001208DF803006846FFF762FE38BD704769
:100E300010B500F001F810BD0CB500200190009035
:100E40003348006840F480303149086000BF3048C2
:100E5000006800F4003000900198401C0190009858
:100E600018B90198B0F5A06FF1D12948006800F4D5
:100E7000003010B10120009001E0002000900098A7
:100E8000012843D12348006840F010002149086040
:100E90000846006820F0030008600846006840F03B
:100EA000020008601A4840681949486008464068CE
:100EB00048600846406840F48060486008464068E2
:100EC00020F47C1048600846406840F4E810486010
:100ED0000846006840F08070086000BF0C48006859
:100EE00000F000700028F9D00948406820F00300A5
:100EF000074948600846406840F00200486000BF6B
:100F00000348406800F00C000828F9D10CBD00002F
:100F1000001002400020024005480068401C0449BF
:100F2000086004480068401C0249086070470000DF
:100F3000140000201C00002010B51348006840F089
:100F400001001149086008464068104908400E49F0
:100F50004860084600680E4908400B49086008468A
:100F6000006820F4802008600846406820F4FE00F5
:100F700048604FF41F008860FFF75AFF4FF0006091
:100F80000449086010BD0000001002400000FFF896
:100F9000FFFFF6FE08ED00E010B540F225510648CF
:100FA00000F005FA30B10448001D0088C1B20348C2
:100FB00000F048FA10BD0000004C0040480000203E
:100FC00010B504460121C804FFF7E6FD072C00D048
:100FD00000BF10BD10B540F22551054800F0E7F9FB
:100FE00028B103488088C1B2024800F02BFA10BD36
:100FF000005000405400002010B5044601210805AF
:10100000FFF7CAFD10BD000070B58CB006460C4657
:1010100015461548FFF788FB301D0190029400200B
:101020000390681E04900020059080200690002008
:10103000079008902020099000200A900B9001A9A9
:101040000948FFF736FC01224021304600F04AF9FA
:10105000012202210448FFF723FC01210248FFF787
:1010600057FB0CB070BD00006C00024010B540F2A0
:101070002551064800F09BF930B10448001D008856
:10108000C1B2034800F0DEF910BD00000038014095
:101090002400002010B50446E4B901210520FFF723
:1010A0009BFD01218803FFF797FD4FF4007018495D
:1010B00008801820C870032088701648FFF718FCB5
:1010C0004FF48060124908800420C8701148FFF76F
:1010D0000FFC1BE0012C19D101210820FFF77CFD3A
:1010E00001218803FFF778FD402009490880182076
:1010F000C870032088700848FFF7FAFB8020044975
:1011000008800420C8700448FFF7F2FB10BD0000FF
:101110006C00002000080140000C014010B540F2B6
:101120002551064800F043F930B10448001D0088FD
:10113000C1B2034800F086F910BD00000044004031
:101140003000002010B5044601214804FFF724FDBB
:10115000022C1AD101210420FFF73EFD0121480491
:10116000FFF71AFD0420174908801820C8700320D3
:1011700088701548FFF7BCFB08201249088004203E
:10118000C8701148FFF7B4FB1BE0032C19D10121F3
:101190002020FFF721FD01214804FFF7FDFC20205E
:1011A000084908801820C870032088700748FFF796
:1011B0009FFB4020034908800420C8700348FFF7C4
:1011C00097FB10BD6C000020000801400014014096
:1011D00010B540F22551064800F0E9F830B1044856
:1011E000001D0088C1B2034800F02CF910BD0000BA
:1011F000004800403C00002010B50446012188044E
:10120000FFF7CAFC042C1AD101210820FFF7E4FCE7
:1012100001218804FFF7E0FC2002284908801820FB
:10122000C870032088702648FFF762FB60022349DC
:1012300008800420C8702248FFF75AFB3CE0052CC8
:101240001CD101211020FFF7C7FC01218804FFF702
:10125000C3FC4FF48060194908801820C87003202F
:1012600088701848FFF744FB4FF40060134908806A
:101270000420C8701348FFF73BFB1DE0062C1BD170
:1012800001212020FFF7A8FC01218804FFF7A4FC1E
:101290004FF48070094908801820C87003208870B6
:1012A0000948FFF725FB4FF400700449088004202B
:1012B000C8700548FFF71CFB10BD00006C00002043
:1012C000000C0140001001400014014021B182894E
:1012D00042F40052828104E082894DF6FF731A4085
:1012E000828170471AB1838A0B43838202E0838A2A
:1012F0008B4383827047000010B504462048844227
:1013000009D101218803FFF777FC00214FF48040C9
:10131000FFF772FC32E01B48844209D101214804E6
:10132000FFF74AFC00214FF40030FFF745FC25E0B1
:101330001548844209D101218804FFF73DFC0021B2
:101340004FF48020FFF738FC18E01048844209D1A0
:101350000121C804FFF730FC00214FF40020FFF703
:101360002BFC0BE00A48844208D101210805FFF755
:1013700023FC00214FF48010FFF71EFC10BD00007D
:10138000003801400044004000480040004C00404C
:101390000050004002460020B1F5007F00D100BFA0
:1013A00013880B400BB1012000E00020704770B59E
:1013B0000246002400230025002040F66A16B142B0
:1013C00000D100BFC1F3421501F01F03012606FA48
:1013D00003F3012D02D19689334006E0022D02D19C
:1013E000168A334001E0968A33400C12012606FA31
:1013F00004F41688344013B10CB1012000E0002041
:1014000070BD000001460A4A914200D10020094AFD
:10141000914200D10120084A914200D10220074A9E
:10142000914200D10420064A914200D10520704724
:10143000003801400044004000480040004C00409B
:101440000050004010B5C28883889A420FDA0289A2
:1014500083889A4201D1002202814AB2048903683A
:101460001A550289521C0281C288521CC28010BDCA
:10147000F0B50346002400260025002040F66A1738
:10148000B94200D100BF1846C1F3421401F01F0653
:10149000012707FA06F5012C01D10C3004E0022CDB
:1014A00001D1103000E014301AB107682F430760F3
:1014B00002E00768AF430760F0BD00002DE9F04788
:1014C00086B005460E460024A24600BFA14600276E
:1014D000B08900B100BF2F462C8A4CF6FF70044043
:1014E000F08804432C82AC894EF6F3100440B08897
:1014F00031890843718908430443AC81AC8A4FF6B3
:10150000FF400440B0890443AC8201A8FFF784FB8C
:101510001F48874202D1DDF810A001E0DDF80CA0E1
:10152000A88900F4004040B10AEBCA0000EB0A10A1
:1015300031684900B0FBF1F807E00AEBCA0000EBA4
:101540000A1031688900B0FBF1F86420B8FBF0F0B4
:1015500004012009642101FB1089A88900F40040DE
:1015600040B1322000EBC900B0FBF1F000F0070001
:10157000044308E0322000EB09106421B0FBF1F0D5
:1015800000F00F0004432C8106B0BDE8F087000096
:101590000038014013B5044600BF80212046FFF704
:1015A000F9FE0028F9D09DF80400A0801CBD0000C1
:1015B00070B586B004460D461646029649488442E8
:1015C00012D12846FFF766FD25208DF80400002083
:1015D000ADF814000C20ADF812000020ADF810009A
:1015E000ADF80E00ADF80C003F48844212D12846F9
:1015F000FFF7A8FD26208DF804000020ADF81400A8
:101600000C20ADF812000020ADF81000ADF80E006F
:10161000ADF80C003548844212D12846FFF7ECFDA6
:1016200027208DF804000020ADF814000C20ADF840
:1016300012000020ADF81000ADF80E00ADF80C005F
:101640002B48844212D12846FFF7BAFC34208DF88B
:1016500004000020ADF814000C20ADF812000020AA
:10166000ADF81000ADF80E00ADF80C002148844232
:1016700012D12846FFF7C0FC35208DF80400002069
:10168000ADF814000C20ADF812000020ADF81000E9
:10169000ADF80E00ADF80C0000212046FFF716FE55
:1016A0002046FFF729FE02A92046FFF707FF012188
:1016B0002046FFF70BFE012240F225512046FFF79E
:1016C000D7FE01208DF8070000208DF80500204688
:1016D000FFF798FE8DF8060001A8FFF709FA06B09B
:1016E00070BD000000380140004400400048004048
:1016F000004C00400050004038B504460121084627
:10170000FFF73AFA4FF4A060FFF72AFA11208DF89C
:10171000000000208DF801008DF8020001208DF8F6
:1017200003006846FFF7E4F910208DF80000002060
:101730008DF801008DF8020001208DF80300684645
:10174000FFF7D6F938BD00BFFEE7000010B504462C
:1017500000200449087004490860204600F03CF865
:1017600010BD0000060000200800002010B5084849
:10177000007860B93C20FFF7E9FF20210548FFF71A
:10178000DFFA0448FFF72CFB01200149087010BD67
:1017900000000020003001400C4A1268501C00225A
:1017A0000DE00B4911F8013B00F8013B11F8013B3A
:1017B00000F8013B11F8013B00F8013B521C054BBE
:1017C0001B8803EB43039342EBDC704708000020C7
:1017D000821900080200002010B504461548006870
:1017E00018B114480068FEF748FD04EBC400801CE3
:1017F0001149088009884800FEF710FD0D4908606E
:1018000090B10E480480084600680D490860002029
:10181000096808700A490968074A1288114401F8E2
:10182000010CFFF7B9FF04E00020034908800349D9
:10183000088010BD0C0000200400002002000020E1
:101840000800002070B5044600F094F8051901E086
:1018500000F096F800F08EF8A842F9D370BD0000B1
:1018600070B54FF44070FFF77BF9144800684FF4EF
:101870007A72B0FBF2F1B1F1807F00D31DE021F06C
:101880007F40401E4FF0E022506150170F22002889
:1018900007DA13071D0E0A4B00F00F04241F1D5515
:1018A00003E013071C0E074B1C5400BF00204FF031
:1018B000E02290610720106100BF70BD840000200D
:1018C00018ED00E000E400E070B504460D46E1B21A
:1018D0000248FFF75FFE204670BD00000044004054
:1018E000E4B0002464221D494BA8FEF768FDFFF711
:1018F000E5F8FFF7B5FF4FF4E13202211848FFF792
:1019000057FE1748FFF7F8FE4FF4967269461448E1
:10191000FFF77AFBFFF72AFF0120124908601CE05D
:1019200011A16846FEF739FD98B169460FA0FEF790
:10193000CBFC002404E000200DF80400601C84B2FD
:10194000B4F5967FF7D34FF4967269460448FFF7D3
:101950005BFB4FF47A70FFF775FFE1E78420000826
:1019600000440040948121420A00000025730D0AC2
:1019700000000000014800687047000014000020CB
:1019800070479249249249269249349249369249A5
:10199000A49249A69249B49249B6924D24924D26FA
:1019A000924D34924D36924DA4924DA6924DB492E2
:1019B0004DB6926924926926926934926936926989
:1019C000A49269A69269B49269B6926D24926D262A
:1019D000926D34926D36926DA4926DA6926DB49212
:1019E0006DB69349249349269349349349369349D4
:1019F000A49349A69349B49349B6934D24934D2695
:101A0000934D34934D36934DA4934DA6934DB4937B
:101A10004DB6936924936926936934936936936923
:101A2000A49369A69369B49369B6936D24936D26C4
:101A3000936D34936D36936DA4936DA6936DB493AB
:101A40006DB69A49249A49269A49349A49369A4950
:101A5000A49A49A69A49B49A49B69A4D249A4D2611
:101A60009A4D349A4D369A4DA49A4DA69A4DB49AF1
:101A70004DB69A69249A69269A69349A69369A69A0
:101A8000A49A69A69A69B49A69B69A6D249A6D2641
:101A90009A6D349A6D369A6DA49A6DA69A6DB49A21
:101AA0006DB69B49249B49269B49349B49369B49EB
:101AB000A49B49A69B49B49B49B69B4D249B4D26AC
:101AC0009B4D349B4D369B4DA49B4DA69B4DB49B8B
:101AD0004DB69B69249B69269B69349B69369B693B
:101AE000A49B69A69B69B49B69B69B6D249B6D26DC
:101AF0009B6D349B6D369B6DA49B6DA69B6DB49BBB
:101B00006DB6D24924D24926D24934D24936D24977
:101B1000A4D249A6D249B4D249B6D24D24D24D2638
:101B2000D24D34D24D36D24DA4D24DA6D24DB4D2E0
:101B30004DB6D26924D26926D26934D26936D269C7
:101B4000A4D269A6D269B4D269B6D26D24D26D2668
:101B5000D26D34D26D36D26DA4D26DA6D26DB4D210
:101B60006DB6D34924D34926D34934D34936D34912
:101B7000A4D349A6D349B4D349B6D34D24D34D26D3
:101B8000D34D34D34D36D34DA4D34DA6D34DB4D37A
:101B90004DB6D36924D36926D36934D36936D36962
:101BA000A4D369A6D369B4D369B6D36D24D36D2603
:101BB000D36D34D36D36D36DA4D36DA6D36DB4D3AA
:101BC0006DB6DA4924DA4926DA4934DA4936DA498F
:101BD000A4DA49A6DA49B4DA49B6DA4D24DA4D2650
:101BE000DA4D34DA4D36DA4DA4DA4DA6DA4DB4DAF0
:101BF0004DB6DA6924DA6926DA6934DA6936DA69DF
:101C0000A4DA69A6DA69B4DA69B6DA6D24DA6D267F
:101C1000DA6D34DA6D36DA6DA4DA6DA6DA6DB4DA1F
:101C20006DB6DB4924DB4926DB4934DB4936DB4929
:101C3000A4DB49A6DB49B4DB49B6DB4D24DB4D26EA
:101C4000DB4D34DB4D36DB4DA4DB4DA6DB4DB4DB89
:101C50004DB6DB6924DB6926DB6934DB6936DB6979
:101C6000A4DB69A6DB69B4DB69B6DB6D24DB6D261A
:101C7000DB6D34DB6D36DB6DA4DB6DA6DB6DB4DBB9
:101C80006DB6000092492492492692493492493611
:101C90009249A49249A69249B49249B6924D24928F
:101CA0004D26924D34924D36924DA4924DA6924DB2
:101CB000B4924DB69269249269269269349269363B
:101CC0009269A49269A69269B49269B6926D2492BF
:101CD0006D26926D34926D36926DA4926DA6926DC2
:101CE000B4926DB693492493492693493493493667
:101CF0009349A49349A69349B49349B6934D249329
:101D00004D26934D34934D36934DA4934DA6934D4C
:101D1000B4934DB6936924936926936934936936D5
:101D20009369A49369A69369B49369B6936D249358
:101D30006D26936D34936D36936DA4936DA6936D5C
:101D4000B4936DB69A49249A49269A49349A4936E9
:101D50009A49A49A49A69A49B49A49B69A4D249A9E
:101D60004D269A4D349A4D369A4DA49A4DA69A4DC9
:101D7000B49A4DB69A69249A69269A69349A693652
:101D80009A69A49A69A69A69B49A69B69A6D249ACE
:101D90006D269A6D349A6D369A6DA49A6DA69A6DD9
:101DA000B49A6DB69B49249B49269B49349B49367E
:101DB0009B49A49B49A69B49B49B49B69B4D249B38
:101DC0004D269B4D349B4D369B4DA49B4DA69B4D64
:101DD000B49B4DB69B69249B69269B69349B6936ED
:101DE0009B69A49B69A69B69B49B69B69B6D249B68
:101DF0006D269B6D349B6D369B6DA49B6DA69B6D74
:101E0000B49B6DB6D24924D24926D24934D2493640
:101E1000D249A4D249A6D249B4D249B6D24D24D28D
:101E20004D26D24D34D24D36D24DA4D24DA6D24DF0
:101E3000B4D24DB6D26924D26926D26934D2693679
:101E4000D269A4D269A6D269B4D269B6D26D24D2BD
:101E50006D26D26D34D26D36D26DA4D26DA6D26D00
:101E6000B4D26DB6D34924D34926D34934D34936A5
:101E7000D349A4D349A6D349B4D349B6D34D24D327
:101E80004D26D34D34D34D36D34DA4D34DA6D34D8B
:101E9000B4D34DB6D36924D36926D36934D3693614
:101EA000D369A4D369A6D369B4D369B6D36D24D357
:101EB0006D26D36D34D36D36D36DA4D36DA6D36D9B
:101EC000B4D36DB6DA4924DA4926DA4934DA493628
:101ED000DA49A4DA49A6DA49B4DA49B6DA4D24DA9D
:101EE0004D26DA4D34DA4D36DA4DA4DA4DA6DA4D08
:101EF000B4DA4DB6DA6924DA6926DA6934DA693691
:101F0000DA69A4DA69A6DA69B4DA69B6DA6D24DACC
:101F10006D26DA6D34DA6D36DA6DA4DA6DA6DA6D17
:101F2000B4DA6DB6DB4924DB4926DB4934DB4936BC
:101F3000DB49A4DB49A6DB49B4DB49B6DB4D24DB36
:101F40004D26DB4D34DB4D36DB4DA4DB4DA6DB4DA2
:101F5000B4DB4DB6DB6924DB6926DB6934DB69362B
:101F6000DB69A4DB69A6DB69B4DB69B6DB6D24DB66
:101F70006D26DB6D34DB6D36DB6DA4DB6DA6DB6DB2
:101F8000B4DB6DB60000000000000000000000009F
:101F90000000000000000000000000000000000041
:101FA000010101010101010101010101010202021E
:101FB00002020202020303030303030304040404F2
:101FC00004050505050606060607070707080808AD
:101FD0000909090A0A0A0B0B0B0C0C0D0D0D0E0E4C
:101FE0000F0F1010111112121313141415151616C9
:101FF00017181819191A1B1B1C1D1D1E1F20202124
:10200000222323242526272728292A2B2C2D2E2F4F
:10201000303132323334363738393A3B3C3D3E3F4B
:1020200040424344454648494A4B4D4E4F51525316
:10203000555657595A5C5D5F606263656668696BA7
:102040006D6E7072737577787A7C7E7F81838587F9
:10205000898A8C8E90929496989A9C9EA0A2A4A70E
:10206000A9ABADAFB1B4B6B8BABDBFC1C4C6C8CBD9
:10207000CDD0D2D5D7DADCDFE1E4E7E9ECEFF1F45B
:10208000F7F9FCFF48656C6C6F2076696120555349
:10209000415254207769746820545820444D410AB5
:1020A0000000000000000000000000000000000030
:1020B0000000000000000000000000000000000020
:1020C0000000000000000000000000000000000010
:1020D0000000000000000000000000000000000000
:1020E000000000000000000008210008000000209F
:1020F000980000006C010008A02100089800002052
:10210000200D000088010008000000000000000011
:1021100000000000000000000000000000000000BF
:1021200000000000000000000000000098000020F7
:102130002000000000000000B80000202000000087
:1021400000000000D8000020200000000000000077
:10215000F80000202000000000000000180100200E
:1021600020000000000000003801002020000000D6
:102170000000000000000000000000000102030455
:1021800001020304060708090204060800A24A0423
:102190000000000000000000010203040607080917
:0400000508000131BD
:00000001FF
