:020000040800F2
:10000000A8070020D50100083F07000837070008AF
:100010003B0700081B0600086911000800000000EB
:1000200000000000000000000000000009090008B6
:100030001F06000800000000B10700081D0A0008A4
:10004000EF010008EF010008EF010008EF010008D0
:10005000EF010008EF010008EF010008EF010008C0
:10006000EF010008EF010008EF010008EF010008B0
:10007000EF010008EF010008EF010008EF010008A0
:10008000EF010008EF010008EF010008EF01000890
:10009000EF010008EF010008EF010008EF01000880
:1000A000EF010008EF010008EF010008EF01000870
:1000B000EF010008EF010008EF010008EF01000860
:1000C000EF010008EF010008EF010008EF01000850
:1000D000EF010008F10A0008A10B0008550C000808
:1000E000EF010008EF010008EF010008EF01000830
:1000F000EF010008EF010008EF010008EF01000820
:10010000EF010008EF010008EF010008EF0100080F
:10011000810A0008BD0A0008EF010008EF0100088D
:10012000EF010008EF010008EF010008EF010008EF
:1001300000F002F800F03FF80AA090E8000C8244BA
:100140008344AAF10107DA4501D100F034F8AFF297
:10015000090EBAE80F0013F0010F18BFFB1A43F0A5
:1001600001031847281C0000481C0000103A24BF57
:1001700078C878C1FAD8520724BF30C830C144BF0C
:1001800004680C607047000000230024002500264E
:10019000103A28BF78C1FBD8520728BF30C148BFEA
:1001A0000B607047642900F07580002070471FB510
:1001B0001FBD10B510BD00F033F91146FFF7F7FF72
:1001C00001F0D6F800F051F903B4FFF7F2FF03BCD9
:1001D00000F056F90948804709480047FEE7FEE766
:1001E000FEE7FEE7FEE7FEE7FEE7FEE7FEE7FEE7E7
:1001F00004480549054A064B70470000210A0008DB
:1002000031010008A8010020A8070020A803002051
:10021000A80300200FB4044910B503AA029800F007
:10022000D1F810BC5DF814FB100000202DE9F0415E
:100230000E460446002020622046E168884730B31D
:10024000252805D0D4E901219047206A401CF2E717
:10025000E168204600278847050018D0A5F1410035
:10026000192802D820354FF4006732462946204627
:100270002760FFF797FF40B1012804D0F61D26F054
:1002800007060836D8E7361DD6E72846DAE7206A9B
:10029000BDE8F0812DE9F04106460024106875297B
:1002A000314616A510D0AFF30080002802DA404294
:1002B00013A507E031688A0701D512A502E04907B6
:1002C00004D511A5012401E0AFF3008000210A222A
:1002D00006F1240709E0B0FBF2FCB0FBF2F302FBED
:1002E0001C00303078541846491C0028F3D12346AE
:1002F0002A463046BDE8F04100F00BB8000000008F
:100300002D0000002B000000200000007047704707
:1003100070472DE9F0470D4699469246044600F194
:1003200024080168880604D5E06921F010012160E5
:1003300000E00120A84201DD471B00E00027A16981
:100340007A1902EB0900081AA0612078C00602D4CD
:100350002046AFF30080002608E0D4E901211AF816
:1003600006009047206A401C761C20624E45F4DB54
:100370002078C0060AD52046AFF3008006E0D4E915
:10038000012130209047206A401C2062381EA7F1CE
:100390000107F4DC07E0D4E9012118F805009047D3
:1003A000206A401C2062281EA5F10105F3DC2046CE
:1003B000AFF300802078000602D50220BDE8F08768
:1003C0000120FBE7074B70B50D467B4400F011F8A8
:1003D0000446284600F020F810B14FF0FF3070BD01
:1003E000204670BD8B0F000001694A1C026108782D
:1003F000704700B58FB0CDE9013100210591054965
:100400007944CDE9031011466846FFF70FFF0FB09E
:1004100000BD0000E5FFFFFF007B00F0800070479B
:10042000754600F029F8AE4605006946534620F0AF
:100430000700854618B020B5FFF7DAFEBDE820407A
:100440004FF000064FF000074FF000084FF0000B90
:1004500021F00701AC46ACE8C009ACE8C009ACE843
:10046000C009ACE8C0098D4670470446AFF3008070
:100470002046FFF7A9FE0000004870474801002011
:1004800001491820ABBEFEE726000200704721B1EB
:10049000826842F00102826003E0826822F0010279
:1004A00082607047014600208A6802F004020AB1A7
:1004B000012000E0002070470146C86C80B2704700
:1004C0000246002013680B400BB1012000E0002021
:1004D0007047014600208A6802F008020AB1012034
:1004E00000E000207047000030B5024600200023E5
:1004F00050680F4C20400D790C6844EA05242043D5
:10050000506090680B4C2040D1E902542C434D7947
:1005100044EA450420439060D06A20F470000C7CCB
:10052000641EE4B2234340EA0350D06230BD0000B1
:10053000FFFEF0FFFDF7F1FFF0B504460D46002089
:100540000021092D11DDE068A5F10A0606EB46073A
:10055000072606FA07F18843A5F10A0606EB4606C8
:1005600003FA06F10843E0600CE0206905EB45075B
:10057000072606FA07F1884305EB450603FA06F15C
:1005800008432061072A0FDA606B561E06EB8607C8
:100590001F2606FA07F18843561E06EB860605FA63
:1005A00006F10843606322E00D2A0FDA206BD61FA4
:1005B00006EB86071F2606FA07F18843D61F06EBCF
:1005C000860605FA06F10843206310E0E06AA2F10E
:1005D0000D0606EB86071F2606FA07F18843A2F1EF
:1005E0000D0606EB860605FA06F10843E062F0BD4B
:1005F000816841F008018160704721B1826842F44E
:10060000A002826003E0826822F4A0028260704748
:10061000816841F004018160704700BFFEE77047C8
:100620002DE9F04102460025002600200023002489
:10063000002791F803C00CF00F0591F803C00CF0EF
:10064000100CBCF1000F03D091F802C04CEA050574
:1006500091F800C0BCF1000F31D0146800202BE0ED
:100660004FF0010C0CFA00F3B1F800C00CEA0306DD
:100670009E4220D183004FF00F0C0CFA03F7BC43CD
:1006800005FA03FC4CEA040491F803C0BCF1280FFE
:1006900006D14FF0010C0CFA00FCC2F814C00AE0BD
:1006A00091F803C0BCF1480F05D14FF0010C0CFAD2
:1006B00000FCC2F810C0401C0828D1D31460B1F867
:1006C00000C0BCF1FF0F34DD546800202EE000F1C3
:1006D000080C4FF0010808FA0CF3B1F800C00CEA5E
:1006E00003069E4221D183004FF00F0C0CFA03F752
:1006F000BC4305FA03FC4CEA040491F803C0BCF1C6
:10070000280F05D100F1080C08FA0CF8C2F8148083
:1007100091F803C0BCF1480F07D100F1080C4FF06D
:10072000010808FA0CF8C2F81080401C0828CED343
:100730005460BDE8F08100BFFEE700BFFEE77047F0
:1007400070B5002100230F22C47804B3154C24682F
:1007500004F4E064C4F5E064210AC1F10403CA4072
:10076000447804FA03F184781440214309010E4CC3
:100770000678A155047804F01F050124AC400578E3
:100780006D11AD0005F1E025C5F8004109E00478E0
:1007900004F01F050124AC40044D0678761145F89D
:1007A000264070BD0CED00E000E400E080E100E0D8
:1007B0007047000029B1064AD2690243044BDA614E
:1007C00004E0034AD2698243014BDA6170470000BA
:1007D0000010024029B1064A12690243044B1A6113
:1007E00004E0034A12698243014B1A61704700001A
:1007F0000010024029B1064A92690243044B9A61F3
:1008000004E0034A92698243014B9A6170470000F9
:100810000010024029B1064AD2680243044BDA6054
:1008200004E0034AD2688243014BDA60704700005B
:100830000010024030B500210022002400232D4D7D
:100840006D6805F00C0121B1042905D0082923D1D8
:1008500005E0294D056022E0274D05601FE0254D8C
:100860006D6805F47012234D6D6805F4803402251F
:1008700005EB92421CB9214D554305600BE01D4D1F
:100880006D6805F400351DB11C4D5543056002E04F
:10089000194D5543056002E0174D056000BF00BFCC
:1008A000144D6D6805F0F0010909154D6B5C056884
:1008B000DD4045600F4D6D6805F4E061090A104D9B
:1008C0006B5C4568DD4085600A4D6D6805F46051DC
:1008D000C90A0B4D6B5C4568DD40C560054D6D6810
:1008E00005F44041890B074D6B5CC568B5FBF3F51A
:1008F000056130BD0010024000127A0000093D0081
:100900006000002070000020704710B500F002F871
:1009100010BD00000CB50020019000903348006825
:1009200040F480303149086000BF3048006800F46E
:10093000003000900198401C0190009818B901986F
:10094000B0F5A06FF1D12948006800F4003010B173
:100950000120009001E0002000900098012843D180
:100960002348006840F010002149086008460068EC
:1009700020F0030008600846006840F002000860AC
:100980001A48406819494860084640684860084667
:10099000406840F4806048600846406820F47C105D
:1009A00048600846406840F4E8104860084600681F
:1009B00040F08070086000BF0C48006800F00070D4
:1009C0000028F9D00948406820F003000749486032
:1009D0000846406840F00200486000BF0348406895
:1009E00000F00C000828F9D10CBD000000100240F6
:1009F00000200240042808D14FF0E021096941F0AD
:100A000004014FF0E022116107E04FF0E021096995
:100A100021F004014FF0E02211617047704700009F
:100A200010B51348006840F00100114908600846FD
:100A30004068104908400E494860084600680E4961
:100A400008400B4908600846006820F480200860D0
:100A50000846406820F4FE0048604FF41F0088609C
:100A6000FFF753FF4FF000600449086010BD00001D
:100A7000001002400000FFF8FFFFF6FE08ED00E066
:100A800010B540F22551064800F0C9F930B10448CC
:100A9000001D0088C1B2034800F00CFA10BD000030
:100AA000004C00403800002010B504460121C80465
:100AB000FFF780FE072C00D000BF10BD10B540F23C
:100AC0002551054800F0ABF928B103488088C1B230
:100AD000024800F0EFF910BD005000404400002033
:100AE00010B5044601210805FFF764FE10BD0000A3
:100AF00010B540F22551064800F091F930B1044894
:100B0000001D0088C1B2034800F0D4F910BD0000F8
:100B1000003801401400002010B50446E4B901215A
:100B20000520FFF767FE01218803FFF763FE4FF4FE
:100B30000070184908801820C87003208870164873
:100B4000FFF76EFD4FF48060124908800420C870E2
:100B50001148FFF765FD1BE0012C19D10121082088
:100B6000FFF748FE01218803FFF744FE40200949B2
:100B700008801820C870032088700848FFF750FDCF
:100B80008020044908800420C8700448FFF748FD0D
:100B900010BD00005C00002000080140000C014076
:100BA00010B540F22551064800F039F930B104483B
:100BB000001D0088C1B2034800F07CF910BD0000A0
:100BC000004400402000002010B5044601214804E4
:100BD000FFF7F0FD022C1AD101210420FFF70AFED5
:100BE00001214804FFF7E6FD04201749088018207A
:100BF000C870032088701548FFF712FD08201249BD
:100C000008800420C8701148FFF70AFD1BE0032C80
:100C100019D101212020FFF7EDFD01214804FFF744
:100C2000C9FD2020084908801820C870032088705A
:100C30000748FFF7F5FC4020034908800420C870EE
:100C40000348FFF7EDFC10BD5C00002000080140E8
:100C50000014014010B540F22551064800F0DFF8BD
:100C600030B10448001D0088C1B2034800F022F9E9
:100C700010BD0000004800402C00002010B50446C4
:100C800001218804FFF796FD042C1AD101210820C8
:100C9000FFF7B0FD01218804FFF7ACFD20022849D1
:100CA00008801820C870032088702648FFF7B8FC19
:100CB0006002234908800420C8702248FFF7B0FC76
:100CC0003CE0052C1CD101211020FFF793FD0121F0
:100CD0008804FFF78FFD4FF48060194908801820C1
:100CE000C870032088701848FFF79AFC4FF4006022
:100CF000134908800420C8701348FFF791FC1DE0D9
:100D0000062C1BD101212020FFF774FD012188044E
:100D1000FFF770FD4FF48070094908801820C870F3
:100D2000032088700948FFF77BFC4FF400700449EA
:100D300008800420C8700548FFF772FC10BD000051
:100D40005C000020000C0140001001400014014034
:100D500021B1828942F40052828104E082894DF6F9
:100D6000FF731A408281704710B5044620488442C0
:100D700009D101218803FFF74DFD00214FF4804088
:100D8000FFF748FD32E01B48844209D101214804A5
:100D9000FFF720FD00214FF40030FFF71BFD25E099
:100DA0001548844209D101218804FFF713FD002171
:100DB0004FF48020FFF70EFD18E01048844209D15F
:100DC0000121C804FFF706FD00214FF40020FFF7C2
:100DD00001FD0BE00A48844208D101210805FFF714
:100DE000F9FC00214FF48010FFF7F4FC10BD000067
:100DF000003801400044004000480040004C0040E2
:100E00000050004002460020B1F5007F00D100BF35
:100E100013880B400BB1012000E00020704770B533
:100E20000246002400230025002040F66A16B14245
:100E300000D100BFC1F3421501F01F03012606FADD
:100E400003F3012D02D19689334006E0022D02D131
:100E5000168A334001E0968A33400C12012606FAC6
:100E600004F41688344013B10CB1012000E00020D6
:100E700070BD000001460A4A914200D10020094A93
:100E8000914200D10120084A914200D10220074A34
:100E9000914200D10420064A914200D105207047BA
:100EA000003801400044004000480040004C004031
:100EB0000050004010B5C28883889A420FDA028938
:100EC00083889A4201D1002202814AB204890368D0
:100ED0001A550289521C0281C288521CC28010BD60
:100EE000F0B50346002400260025002040F66A17CE
:100EF000B94200D100BF1846C1F3421401F01F06E9
:100F0000012707FA06F5012C01D10C3004E0022C70
:100F100001D1103000E014301AB107682F43076088
:100F200002E00768AF430760F0BD00002DE9F0471D
:100F300086B005460E460024A24600BFA146002703
:100F4000B08900B100BF2F462C8A4CF6FF700440D8
:100F5000F08804432C82AC894EF6F3100440B0882C
:100F600031890843718908430443AC81AC8A4FF648
:100F7000FF400440B0890443AC8201A8FFF75AFC4B
:100F80001F48874202D1DDF810A001E0DDF80CA077
:100F9000A88900F4004040B10AEBCA0000EB0A1037
:100FA00031684900B0FBF1F807E00AEBCA0000EB3A
:100FB0000A1031688900B0FBF1F86420B8FBF0F04A
:100FC00004012009642101FB1089A88900F4004074
:100FD00040B1322000EBC900B0FBF1F000F0070097
:100FE000044308E0322000EB09106421B0FBF1F06B
:100FF00000F00F0004432C8106B0BDE8F08700002C
:101000000038014013B5044600BF80212046FFF799
:10101000F9FE0028F9D09DF80400A0801CBD000056
:1010200070B586B004460D4616460296494884427D
:1010300012D12846FFF770FD25208DF8040000200E
:10104000ADF814000C20ADF812000020ADF810002F
:10105000ADF80E00ADF80C003F48844212D128468E
:10106000FFF7B2FD26208DF804000020ADF8140033
:101070000C20ADF812000020ADF81000ADF80E0005
:10108000ADF80C003548844212D12846FFF7F6FD32
:1010900027208DF804000020ADF814000C20ADF8D6
:1010A00012000020ADF81000ADF80E00ADF80C00F5
:1010B0002B48844212D12846FFF7F6FC34208DF8E5
:1010C00004000020ADF814000C20ADF81200002040
:1010D000ADF81000ADF80E00ADF80C0021488442C8
:1010E00012D12846FFF7FCFC35208DF804000020C3
:1010F000ADF814000C20ADF812000020ADF810007F
:10110000ADF80E00ADF80C0000212046FFF720FEE0
:101110002046FFF729FE02A92046FFF707FF01211D
:101120002046FFF715FE012240F225512046FFF729
:10113000D7FE01208DF8070000208DF8050020461D
:10114000FFF798FE8DF8060001A8FFF7F9FA06B040
:1011500070BD0000003801400044004000480040DD
:10116000004C00400050004000BFFEE730B587B0A3
:1011700004460D4604EB44012F4A02EBC101886886
:101180000121FFF737FB01214802FFF733FB04EB96
:101190004400294901EBC000808880B2ADF804000A
:1011A00000208DF8070004EB4401234A52F8310077
:1011B00001A9FFF735FA002002908DF80C008DF898
:1011C0000D004FF4602004900020059001208DF860
:1011D000180002A91948FFF787F901211748FFF7FE
:1011E00056F91648FFF704FA00BF1448FFF771F9E3
:1011F0000028FAD11148FFF70BFA00BF0F48FFF79C
:1012000051F90028FAD125B1012D06D0022D0CD1BB
:1012100007E008200A4908600BE00A200849086036
:1012200007E00C200649086003E00A200449086032
:1012300000BF00BF07B030BD8C140008002401407F
:101240000400002070B5044600251B48006848B91A
:1012500002212046FFF78AFF012017490860C820B5
:1012600000F054F804EB4400144901EBC000067B85
:1012700004EB44000A4602EBC000017B0723012275
:101280000F48FFF759F901210D48FFF7B6F900BFE4
:1012900002210B48FFF714F90028F9D00848FFF79E
:1012A0000BF9054607480C210268284600F084F82F
:1012B0000546284670BD00000C0000208C14000874
:1012C000002401400400002010B56FF00400FFF777
:1012D00091FB0A4800680A49B0FBF1F0094908701F
:1012E0000846007800EB4001C1EBC0104FF6FF71DB
:1012F00001EAC0000449088010BD0000740000200D
:1013000000127A0000000020020000200146114A6D
:1013100012884A434FF0E0235A6100229A611A462C
:10132000126942F001021A6100BF4FF0E022106919
:1013300000F001021AB100F48032002AF5D04FF01B
:10134000E022126922F001024FF0E0231A6100222C
:101350009A6170470200002070B504460D46E1B264
:101360000248FFF74FFE204670BD000000380140E4
:1013700000BF002400BFFFF7A7FF0121152000F0E8
:101380002BF80021162000F027F84FF4E13200215D
:101390000748FFF745FE0AE00020FFF753FF84B23D
:1013A000214604A0FEF736FFFA20FFF7AFFFF3E770
:1013B0000038014025640A0010B50346914201D16E
:1013C000184610BD914203D98C1A23FA04F0F8E7AD
:1013D000541A03FA04F0F4E7F8B505460C4605EB99
:1013E0004500294951F8306005EB450001EBC0008C
:1013F000808887B205EB4501234A02EBC10188686A
:101400000121FFF7F7F9ADF800701CB904208DF841
:10141000030034E0022C03D148208DF803002EE0B5
:10142000032C03D128208DF8030028E0012C06D1DD
:1014300010208DF8030003208DF802001FE0072C18
:1014400006D114208DF8030003208DF8020016E069
:10145000042C06D11C208DF8030003208DF8020017
:101460000DE0052C06D118208DF8030003208DF81F
:10147000020004E0062C02D100208DF8030069462A
:101480003046FFF7CDF8F8BD8C1400080008014085
:10149000010000000400000000000000000C0040FB
:1014A00000000000000801400200000004000000ED
:1014B000010000000000004004000000000801409E
:1014C00004000000040000000200000000000040D2
:1014D00008000000000801400800000004000000AF
:1014E00003000000000000400C0000000008014064
:1014F00010000000040000000400000000000000D4
:10150000000000000008014020000000040000006E
:10151000050000000000000000000000000801407D
:10152000400000000400000006000000000400402D
:1015300000000000000801408000000004000000DE
:101540000700000000040040040000000008014003
:10155000000100000400000000000000002C014019
:10156000000000000008014000020000040000002C
:1015700000000000002C01400400000000080140B1
:10158000000400000400000000000000002C0140E6
:1015900008000000000801400008000004000000EE
:1015A00000000000002C01400C0000000008014079
:1015B0000010000004000000000000000000000017
:1015C00000000000000801400020000004000000AE
:1015D00000000000000000000000000000080140C2
:1015E00000400000040000000000000000000000B7
:1015F000000000000008014000800000040000001E
:10160000000000000000000000000000000C01408D
:101610000100000008000000080000000004004075
:1016200008000000000C014002000000080000005B
:1016300009000000000400400C000000000C014004
:10164000040000000800000000000000000000008E
:1016500000000000000C014008000000080000002D
:10166000000000000000004004000000000C0140E9
:10167000100000000800000000000000000400400E
:1016800000000000000C01402000000008000000E5
:10169000000000000004004004000000000C0140B5
:1016A00040000000080000000000000000080040AA
:1016B00000000000000C0140800000000800000055
:1016C000000000000008004004000000000C014081
:1016D0000001000008000000000000000050014070
:1016E00000000000000C01400002000008000000A3
:1016F000000000000054014000000000000C014008
:10170000000400000800000000000000000000408D
:1017100008000000000C0140000800000800000064
:1017200000000000000000400C000000000C014020
:101730000010000008000000000000000000000091
:1017400000000000000C0140002000000800000024
:10175000000000000000000000000000000C01403C
:1017600000400000080000000000000000180040D9
:1017700000000000000C0140008000000800000094
:1017800000000000001800400400000000100140AC
:1017900001000000100000000A000000000000002E
:1017A00000000000001001400200000010000000D6
:1017B0000B000000000000000000000000100140CD
:1017C00004000000100000000C00000000000000F9
:1017D00000000000001001400800000010000000A0
:1017E0000D0000000000000000000000001001409B
:1017F00010000000100000000E00000000000000BB
:101800000000000000100140200000001000000057
:101810000E00000000000000000000000010014069
:1018200040000000100000000000000000340140F3
:1018300000000000001001408000000010000000C7
:1018400000000000003401400400000000100140CE
:101850000001000010000000000000000034014002
:10186000080000000010014000020000100000000D
:1018700000000000003401400C0000000010014096
:101880000004000010000000000000000000000044
:1018900000000000001001400008000010000000DF
:1018A00000000000000000000000000000100140E7
:1018B0000010000010000000000000000000000008
:1018C0000000000000100140002000001000000097
:1018D00000000000000000000000000000100140B7
:1018E00000400000100000000000000000000000A8
:1018F0000000000000100140008000001000000007
:101900000000000000000000000000000014014082
:1019100001000000200000000000000000000000A6
:101920000000000000140140020000002000000040
:101930000000000000000000000000000014014052
:101940000400000020000000000000000000000073
:10195000000000000014014008000000200000000A
:101960000000000000000000000000000014014022
:101970001000000020000000000000000000000037
:1019800000000000001401402000000020000000C2
:1019900000000000000000000000000000140140F2
:1019A00040000000200000000000000000000000D7
:1019B0000000000000140140800000002000000032
:1019C00000000000000000000000000000140140C2
:1019D00000010000200000000000000000000000E6
:1019E0000000000000140140000200002000000080
:1019F0000000000000000000000000000014014092
:101A000000040000200000000000000000000000B2
:101A10000000000000140140000800002000000049
:101A20000000000000000000000000000014014061
:101A3000001000002000000000000000000800402E
:101A40000000000000140140002000002000000001
:101A500000000000000800400400000000140140E5
:101A600000400000200000000000000000080040CE
:101A70000800000000140140008000002000000069
:101A800000000000000800400C00000000180140A9
:101A90000100000040000000000000000000000005
:101AA000000000000018014002000000400000009B
:101AB00000000000000000000000000000180140CD
:101AC00004000000400000000000000000000000D2
:101AD0000000000000180140080000004000000065
:101AE000000000000000000000000000001801409D
:101AF0001000000040000000000000000000000096
:101B0000000000000018014020000000400000001C
:101B1000000000000010004000000000001801401C
:101B200040000000400000000000000000100040E5
:101B30000400000000180140800000004000000088
:101B4000000000000000000000000000001801403C
:101B50000001000040000000000000000000000044
:101B600000000000001801400002000040000000DA
:101B700000000000002C014000000000001801409F
:101B80000004000040000000000000000000000011
:101B900000000000001801400008000040000000A4
:101BA00000000000002C014004000000001801406B
:101BB00000100000400000000000000000000000D5
:101BC000000000000018014000200000400000005C
:101BD00000000000002C0140080000000018014037
:101BE000004000004000000000000000002C014008
:101BF0000C000000001801400080000040000000C0
:101C0000000000000000000000000000001C014077
:101C10000100000080000000000000000000000043
:101C200000000000001C01400200000080000000D5
:101C3000000000000000000000000000001C014047
:101C40000400000080000000000000000000000010
:101C500000000000001C014008000000800000009F
:101C6000000000000000000000000000001C014017
:101C700010000000800000000000000000000000D4
:101C800000000000001C0140200000008000000057
:101C9000000000000000000000000000001C0140E7
:101CA0004000000080000000000000000000000074
:101CB00000000000001C01408000000080000000C7
:101CC000000000000000000000000000001C0140B7
:101CD0000001000080000000000000000000000083
:101CE00000000000001C0140000200008000000015
:101CF000000000000000000000000000001C014087
:101D0000000400008000000000000000000000004F
:101D100000000000001C01400008000080000000DE
:101D2000000000000000000000000000001C014056
:101D30000010000080000000000000000000000013
:101D400000000000001C0140002000008000000096
:101D5000000000000000000000000000001C014026
:101D600000400000800000000000000000000000B3
:101D700000000000001C0140008000008000000006
:101D8000000000000000000000000000AC1D000882
:101D900000000020880000006C010008341E0008CC
:101DA00088000020200700008801000800000000D3
:101DB0000A00000008000000000000000000000011
:101DC000880000202000000000000000A800002083
:101DD0002000000000000000C800002020000000DB
:101DE00000000000E80000202000000000000000CB
:101DF0000801002020000000000000002801002051
:101E000020000000000000000000000000000000B2
:101E1000010203040102030406070809020406087C
:101E200000A24A04000000000000000001020304B8
:041E30000607080990
:0400000508000131BD
:00000001FF
