:020000040800F2
:1000000048070020CD01000899030008910300086B
:1000100095030008750200081B0600080000000098
:10002000000000000000000000000000BD03000808
:1000300079020008000000009B030008D1040008BA
:10004000E7010008E7010008E7010008E7010008F0
:10005000E7010008E7010008E7010008E7010008E0
:10006000E7010008E7010008E7010008E7010008D0
:10007000E7010008E7010008E7010008E7010008C0
:10008000E7010008E7010008E7010008E7010008B0
:10009000E7010008E7010008E7010008E7010008A0
:1000A000E7010008E7010008E7010008E701000890
:1000B000E7010008E7010008E7010008E701000880
:1000C000E7010008E7010008E7010008E701000870
:1000D000E701000835050008E7010008E70100080E
:1000E000E7010008E7010008E7010008E701000850
:1000F000E7010008E7010008E7010008E701000840
:10010000E7010008E7010008E7010008E70100082F
:10011000E7010008E7010008E7010008E70100081F
:10012000E7010008E7010008E7010008E70100080F
:1001300000F002F800F03AF80AA090E8000C8244BF
:100140008344AAF10107DA4501D100F02FF8AFF29C
:10015000090EBAE80F0013F0010F18BFFB1A43F0A5
:10016000010318477C0F00009C0F0000103A24BFC9
:1001700078C878C1FAD8520724BF30C830C144BF0C
:1001800004680C607047000000230024002500264E
:10019000103A28BF78C1FBD8520728BF30C148BFEA
:1001A0000B6070471FB51FBD10B510BD00F033F8D0
:1001B0001146FFF7F7FF00F09DFA00F051F803B485
:1001C000FFF7F2FF03BC00F02AFA0000094880475D
:1001D00009480047FEE7FEE7FEE7FEE7FEE7FEE729
:1001E000FEE7FEE7FEE7FEE704480549054A064B41
:1001F00070470000D50400083101000848010020C4
:10020000480700204803002048030020704770473B
:10021000704770477047754600F028F8AE460500F5
:100220006946534620F00700854618B020B5FFF711
:10023000DBFFBDE820404FF000064FF000074FF015
:1002400000084FF0000B21F00701AC46ACE8C009F4
:10025000ACE8C009ACE8C009ACE8C0098D467047FD
:100260000446AFF300802046FFF7A9FF004870471F
:10027000E800002000BFFEE770472DE9F04102468C
:1002800000250026002000230024002791F803C049
:100290000CF00F0591F803C00CF0100CBCF1000F2E
:1002A00003D091F802C04CEA050591F800C0BCF1FA
:1002B000000F31D0146800202BE04FF0010C0CFA35
:1002C00000F3B1F800C00CEA03069E4220D183007F
:1002D0004FF00F0C0CFA03F7BC4305FA03FC4CEA91
:1002E000040491F803C0BCF1280F06D14FF0010CB3
:1002F0000CFA00FCC2F814C00AE091F803C0BCF18B
:10030000480F05D14FF0010C0CFA00FCC2F810C0E8
:10031000401C0828D1D31460B1F800C0BCF1FF0F15
:1003200034DD546800202EE000F1080C4FF0010885
:1003300008FA0CF3B1F800C00CEA03069E4221D182
:1003400083004FF00F0C0CFA03F7BC4305FA03FCD3
:100350004CEA040491F803C0BCF1280F05D100F168
:10036000080C08FA0CF8C2F8148091F803C0BCF12C
:10037000480F07D100F1080C4FF0010808FA0CF8FB
:10038000C2F81080401C0828CED35460BDE8F0812C
:1003900000BFFEE700BFFEE77047704729B1064A7D
:1003A00092690243044B9A6104E0034A92698243D2
:1003B000014B9A617047000000100240704710B571
:1003C00000F002F810BD00000CB500200190009074
:1003D0003348006840F480303149086000BF30483D
:1003E000006800F4003000900198401C01900098D3
:1003F00018B90198B0F5A06FF1D12948006800F450
:10040000003010B10120009001E000200090009821
:10041000012843D12348006840F0100021490860BA
:100420000846006820F0030008600846006840F0B5
:10043000020008601A484068194948600846406848
:1004400048600846406840F480604860084640685C
:1004500020F47C1048600846406840F4E81048608A
:100460000846006840F08070086000BF0C480068D3
:1004700000F000700028F9D00948406820F003001F
:10048000074948600846406840F00200486000BFE5
:100490000348406800F00C000828F9D10CBD0000AA
:1004A0000010024000200240042808D14FF0E02153
:1004B000096941F004014FF0E022116107E04FF0BB
:1004C000E021096921F004014FF0E0221161704739
:1004D0007047000010B51348006840F00100114952
:1004E000086008464068104908400E4948600846C0
:1004F00000680E4908400B4908600846006820F46F
:10050000802008600846406820F4FE0048604FF4F0
:100510001F008860FFF753FF4FF000600449086038
:1005200010BD0000001002400000FFF8FFFFF6FEC3
:1005300008ED00E010B540F225511D4800F03EF8EE
:1005400010B31B4800F064F8C4B21A48008800F4E5
:100550000040C8B91748008800F4804060B10A2CF8
:1005600003D000201349088020E01248008840F49E
:1005700000401049088019E00D2C06D10D48008874
:1005800040F480400B49088010E00A480088C0F31E
:100590000D0009490C5407480088401C0549088093
:1005A00008460088C72801DD0020088010BD000033
:1005B00000380140080000202000002070B50246ED
:1005C000002400230025002040F66A16B14200D125
:1005D00000BFC1F3421501F01F03012606FA03F321
:1005E000012D02D19689334006E0022D02D1168AF0
:1005F000334001E0968A33400C12012606FA04F4D7
:100600001688344013B10CB1012000E0002070BD09
:1006100001468888C0F30800704700BFFEE7014626
:1006200000BF704710B56FF00400FFF73DFF0A48A8
:1006300000680A49B0FBF1F00949087008460078E3
:1006400000EB4001C1EBC0104FF6FF7101EAC000A2
:100650000449088010BD00000C00002000127A0040
:1006600000000020020000200146114A12884A437F
:100670004FF0E0235A6100229A611A46126942F053
:1006800001021A6100BF4FF0E022106900F0010280
:100690001AB100F48032002AF5D04FF0E02212693E
:1006A00022F001024FF0E0231A6100229A617047A4
:1006B0000200002010B501290CD100EB40020C4BC8
:1006C00003EBC202526800EB4003094C54F833308C
:1006D0001A610BE000EB4002054B03EBC2025268CB
:1006E00000EB4003024C54F833305A6110BD000057
:1006F000E0070008FFF796FF0121152000F016F82B
:100700000021162000F012F80FE001211520FFF75C
:10071000D1FF4FF49670FFF7A7FF00211520FFF7D8
:10072000C9FF4FF49670FFF79FFFEEE7F8B5054657
:100730000C4605EB4500294951F8306005EB4500B2
:1007400001EBC000808887B205EB4501234A02EB2C
:10075000C10188680121FFF721FEADF800701CB9C6
:1007600004208DF8030034E0022C03D148208DF8DA
:1007700003002EE0032C03D128208DF8030028E08D
:10078000012C06D110208DF8030003208DF8020003
:100790001FE0072C06D114208DF8030003208DF8EC
:1007A000020016E0042C06D11C208DF80300032063
:1007B0008DF802000DE0052C06D118208DF80300FD
:1007C00003208DF8020004E0062C02D100208DF8F1
:1007D000030069463046FFF750FDF8BDE00700080A
:1007E00000080140010000000400000000000000BB
:1007F000000C004000000000000801400200000062
:10080000040000000100000000000040040000009F
:100810000008014004000000040000000200000085
:10082000000000400800000000080140080000002F
:100830000400000003000000000000400C00000065
:100840000008014010000000040000000400000047
:10085000000000000000000000080140200000002F
:10086000040000000500000000000000000000007F
:1008700000080140400000000400000006000000E5
:10088000000400400000000000080140800000005B
:100890000400000007000000000400400400000005
:1008A00000080140000100000400000000000000FA
:1008B000002C014000000000000801400002000080
:1008C0000400000000000000002C014004000000B3
:1008D00000080140000400000400000000000000C7
:1008E000002C014008000000000801400008000042
:1008F0000400000000000000002C01400C0000007B
:10090000000801400010000004000000000000008A
:10091000000000000000000000080140002000006E
:1009200004000000000000000000000000000000C3
:10093000000801400040000004000000000000002A
:1009400000000000000000000008014000800000DE
:100950000400000000000000000000000000000093
:10096000000C014001000000080000000800000029
:100970000004004008000000000C014002000000DC
:100980000800000009000000000400400C00000006
:10099000000C0140040000000800000000000000FE
:1009A0000000000000000000000C014008000000F2
:1009B00008000000000000000000004004000000EB
:1009C000000C0140100000000800000000000000C2
:1009D0000004004000000000000C01402000000066
:1009E00008000000000000000004004004000000B7
:1009F000000C014040000000080000000000000062
:100A00000008004000000000000C014080000000D1
:100A10000800000000000000000800400400000082
:100A2000000C014000010000080000000000000070
:100A30000050014000000000000C014000020000D6
:100A40000800000000000000005401400000000009
:100A5000000C01400004000008000000000000003D
:100A60000000004008000000000C014000080000E9
:100A70000800000000000000000000400C00000022
:100A8000000C014000100000080000000000000001
:100A90000000000000000000000C014000200000E9
:100AA000080000000000000000000000000000003E
:100AB000000C0140004000000800000000000000A1
:100AC0000018004000000000000C01400080000001
:100AD00008000000000000000018004004000000B2
:100AE0000010014001000000100000000A0000009A
:100AF00000000000000000000010014002000000A3
:100B0000100000000B0000000000000000000000CA
:100B10000010014004000000100000000C00000064
:100B2000000000000000000000100140080000006C
:100B3000100000000D000000000000000000000098
:100B40000010014010000000100000000E00000026
:100B50000000000000000000001001402000000024
:100B6000100000000E000000000000000000000067
:100B700000100140400000001000000000000000D4
:100B8000003401400000000000100140800000001F
:100B900010000000000000000034014004000000CC
:100BA00000100140000100001000000000000000E3
:100BB0000034014008000000001001400002000065
:100BC0001000000000000000003401400C00000094
:100BD00000100140000400001000000000000000B0
:100BE00000000000000000000010014000080000AC
:100BF00010000000000000000000000000000000E5
:100C00000010014000100000100000000000000073
:100C10000000000000000000001001400020000063
:100C200010000000000000000000000000000000B4
:100C30000010014000400000100000000000000013
:100C400000000000000000000010014000800000D3
:100C50001000000000000000000000000000000084
:100C6000001401400100000020000000000000000E
:100C7000000000000000000000140140020000001D
:100C80002000000000000000000000000000000044
:100C900000140140040000002000000000000000DB
:100CA00000000000000000000014014008000000E7
:100CB0002000000000000000000000000000000014
:100CC000001401401000000020000000000000009F
:100CD000000000000000000000140140200000009F
:100CE00020000000000000000000000000000000E4
:100CF000001401404000000020000000000000003F
:100D0000000000000000000000140140800000000E
:100D100020000000000000000000000000000000B3
:100D2000001401400001000020000000000000004D
:100D3000000000000000000000140140000200005C
:100D40002000000000000000000000000000000083
:100D5000001401400004000020000000000000001A
:100D60000000000000000000001401400008000026
:100D70002000000000000000000000000000000053
:100D800000140140001000002000000000000000DE
:100D90000008004000000000001401400020000096
:100DA00020000000000000000008004004000000D7
:100DB000001401400040000020000000000000007E
:100DC00000080040080000000014014000800000FE
:100DD0002000000000000000000800400C0000009F
:100DE0000018014001000000400000000000000069
:100DF0000000000000000000001801400200000098
:100E000040000000000000000000000000000000A2
:100E10000018014004000000400000000000000035
:100E20000000000000000000001801400800000061
:100E30004000000000000000000000000000000072
:100E400000180140100000004000000000000000F9
:100E50000000000000000000001801402000000019
:100E600040000000000000000010004000000000F2
:100E70000018014040000000400000000000000099
:100E80000010004004000000001801408000000035
:100E90004000000000000000000000000000000012
:100EA00000180140000100004000000000000000A8
:100EB00000000000000000000018014000020000D7
:100EC0004000000000000000002C01400000000075
:100ED0000018014000040000400000000000000075
:100EE00000000000000000000018014000080000A1
:100EF0004000000000000000002C01400400000041
:100F00000018014000100000400000000000000038
:100F10000000000000000000001801400020000058
:100F20004000000000000000002C0140080000000C
:100F300000180140004000004000000000000000D8
:100F4000002C01400C00000000180140008000004F
:100F50004000000000000000000000000000000051
:100F6000001C0140010000008000000000000000A3
:100F70000000000000000000001C01400200000012
:100F800080000000000000000000000000000000E1
:100F9000001C014004000000800000000000000070
:100FA0000000000000000000001C014008000000DC
:100FB00080000000000000000000000000000000B1
:100FC000001C014010000000800000000000000034
:100FD0000000000000000000001C01402000000094
:100FE0008000000000000000000000000000000081
:100FF000001C0140400000008000000000000000D4
:101000000000000000000000001C01408000000003
:101010008000000000000000000000000000000050
:10102000001C0140000100008000000000000000E2
:101030000000000000000000001C01400002000051
:101040008000000000000000000000000000000020
:10105000001C0140000400008000000000000000AF
:101060000000000000000000001C0140000800001B
:1010700080000000000000000000000000000000F0
:10108000001C014000100000800000000000000073
:101090000000000000000000001C014000200000D3
:1010A00080000000000000000000000000000000C0
:1010B000001C014000400000800000000000000013
:1010C0000000000000000000001C01400080000043
:1010D0008000000000000000000000000000000090
:1010E0000011000800000020200000006C01000832
:1010F00020110008200000202807000088010008B7
:1011000000000000000000000000000000A24A04EF
:1011100000000000000000000102030406070809A7
:0400000508000131BD
:00000001FF
