:020000040800F2
:1000000020090020D5010008E1090008AD09000819
:10001000DD090008DF040008BD140008000000002E
:10002000000000000000000000000000510C00086B
:10003000E304000800000000690A00083D0D000804
:10004000EF010008EF010008EF010008EF010008D0
:10005000EF010008EF010008EF010008EF010008C0
:10006000EF010008EF010008EF010008EF010008B0
:10007000EF010008EF010008EF010008EF010008A0
:10008000EF010008EF010008EF010008EF01000890
:10009000EF010008EF010008EF010008EF01000880
:1000A000EF010008EF010008EF010008EF01000870
:1000B000EF010008EF010008EF010008EF01000860
:1000C000EF010008EF010008EF010008EF01000850
:1000D000EF0100082D0E0008DD0E0008910F00084A
:1000E000E5040008EF010008EF010008EF01000837
:1000F000EF010008EF010008EF010008EF01000820
:10010000EF010008EF010008EF010008EF0100080F
:10011000BD0D0008F90D0008EF010008EF0100080F
:10012000EF010008EF010008EF010008EF010008EF
:1001300000F002F800F03FF80AA090E8000C8244BA
:100140008344AAF10107DA4501D100F034F8AFF297
:10015000090EBAE80F0013F0010F18BFFB1A43F0A5
:1001600001031847D0170000F0170000103A24BF11
:1001700078C878C1FAD8520724BF30C830C144BF0C
:1001800004680C607047000000230024002500264E
:10019000103A28BF78C1FBD8520728BF30C148BFEA
:1001A0000B607047642900F04180002070471FB544
:1001B0001FBD10B510BD00F05BF91146FFF7F7FF4A
:1001C00001F02AFA00F079F903B4FFF7F2FF03BC5B
:1001D00000F07EF90948804709480047FEE7FEE73E
:1001E000FEE7FEE7FEE7FEE7FEE7FEE7FEE7FEE7E7
:1001F00004480549054A064B704700005D0D00089C
:1002000031010008200300202009002020050020E3
:10021000200500200FB4044910B503AA029800F08D
:10022000F9F810BC5DF814FB0C0000202DE9F0413A
:100230000646002410687529314616A510D0AFF384
:100240000080002802DA404213A507E031688A07DF
:1002500001D512A502E0490704D511A5012401E04A
:10026000AFF3008000210A2206F1240709E0B0FB69
:10027000F2FCB0FBF2F302FB1C003030785418465D
:10028000491C0028F3D123462A463046BDE8F041F8
:1002900000F067B8000000002D0000002B000000F7
:1002A000200000002DE9F0410F460546002028629D
:1002B0002846E968884770B3252805D0D5E901218B
:1002C0009047286A401CF2E7E968284600268847DC
:1002D0006C2804460AD0682C08D04C2C35D06A2CE7
:1002E00031D0742C31D07A2C2FD016E0E968064634
:1002F00028468847B042044608D16C2E23D04FF4DC
:1003000080662846E9688847044606E06C2E03D0DC
:100310004FF4807601E01EE04026E4B1A4F14100F4
:10032000192802D8203446F400663A462146284669
:100330002E60FFF737FF60B1012808D0FF1D27F0BE
:1003400007070837B4E78026DBE70026D9E73F1D1B
:10035000AEE72046B2E7286ABDE8F08170477047F3
:1003600070472DE9F0470D4699469246044600F144
:1003700024080168880604D5E06921F01001216095
:1003800000E00120A84201DD471B00E00027A16931
:100390007A1902EB0900081AA0612078C00602D47D
:1003A0002046AFF30080002608E0D4E901211AF8C6
:1003B00006009047206A401C761C20624E45F4DB04
:1003C0002078C0060AD52046AFF3008006E0D4E9C5
:1003D000012130209047206A401C2062381EA7F17E
:1003E0000107F4DC07E0D4E9012118F80500904783
:1003F000206A401C2062281EA5F10105F3DC20467E
:10040000AFF300802078000602D50220BDE8F08717
:100410000120FBE7074B70B50D467B4400F011F857
:100420000446284600F020F810B14FF0FF3070BDB0
:10043000204670BD4B11000001694A1C026108781A
:10044000704700B58FB0CDE9013100210591054914
:100450007944CDE9031011466846FFF723FF0FB03A
:1004600000BD0000E5FFFFFF007B00F0800070474B
:10047000754600F029F8AE4605006946534620F05F
:100480000700854618B020B5FFF7B2FEBDE8204052
:100490004FF000064FF000074FF000084FF0000B40
:1004A00021F00701AC46ACE8C009ACE8C009ACE8F3
:1004B000C009ACE8C0098D4670470446AFF3008020
:1004C0002046FFF781FE000000487047BC02002074
:1004D00001491820ABBEFEE726000200704700BFAE
:1004E000FEE7704710B54FF4804000F00FF828B1D8
:1004F0004FF4804000F004F801F042F810BD000015
:1005000001490860704700001404014001460020C2
:100510000022074B1B6803EA0102054B14331B68DA
:100520000B4013B10AB1012000E000207047000029
:1005300000040140002123498279002A3AD00A466A
:10054000126803689A430B461A600A1D1268036812
:100550009A430B1D1A60027911440A6803681A4312
:100560000A60184A0832126803689A43154B083328
:100570001A601A1D126803689A43124B0C331A60F2
:100580004279102A0ED11A1F126803681A430D4BC4
:1005900008331A601A1D126803681A43094B0C339A
:1005A0001A600DE00749427911440A6803681A434A
:1005B0000A6005E0027911440A6803689A430A60F8
:1005C00070470000000401402DE9FF4706468946B8
:1005D00092460121084600F069FA6B48864203D131
:1005E00004274FF0000828E06848864203D1082716
:1005F0004FF0010821E06648864203D110274FF0F2
:1006000002081AE06348864203D120274FF003080E
:1006100013E06148864203D140274FF004080CE004
:100620005E48864203D180274FF0050805E05C480C
:10063000864202D187154FF00608B9F5807F4BD06E
:100640001ADCB9F1100F3BD00CDCB9F1010F2BD043
:10065000B9F1020F2BD0B9F1040F2BD0B9F1080F6B
:1006600052D12AE0B9F1200F2DD0B9F1400F2DD091
:10067000B9F1800F48D12CE0B9F5805F38D009DCA2
:10068000B9F5007F2BD0B9F5806F2BD0B9F5006F8D
:100690003AD12AE0B9F5005F2DD0B9F5804F2DD0C1
:1006A000B9F5004F30D12CE0002406252DE00124BF
:1006B00007252AE00224082527E00324092524E051
:1006C00004240A2521E0052417251EE00624172509
:1006D0001BE00724172518E00824172515E0092436
:1006E000172512E00A2428250FE00B2428250CE00A
:1006F0000C24282509E00D24282506E00E242825B1
:1007000003E00F24282500E000BF00BF0121384688
:1007100000F0CCF9ADF80C9003208DF80E00BAF182
:100720000C0F03D148208DF80F0009E0BAF1080F33
:1007300003D128208DF80F0002E004208DF80F006F
:1007400003A9304600F04EF82146404600F02AF852
:10075000CDF8049001208DF80A0000208DF80800E3
:100760008DF809A001A8FFF7E5FE8DF800500620DE
:100770008DF801008DF8024001208DF803006846D5
:1007800000F030F9BDE8FF8700080140000C01408F
:10079000001001400014014000180140001C0140FD
:1007A0000020014030B500228B071C0F0F2303FAF5
:1007B00004F20B4B8C1053F824309343084C8D10EB
:1007C00044F8253023468C1053F824308C07240F2E
:1007D00000FA04F42343024C8D1044F8253030BD58
:1007E000080001402DE9F0410246002500260020C6
:1007F00000230024002791F803C00CF00F0591F8A6
:1008000003C00CF0100CBCF1000F03D091F802C033
:100810004CEA050591F800C0BCF1000F31D0146816
:1008200000202BE04FF0010C0CFA00F3B1F800C0EF
:100830000CEA03069E4220D183004FF00F0C0CFA05
:1008400003F7BC4305FA03FC4CEA040491F803C027
:10085000BCF1280F06D14FF0010C0CFA00FCC2F8D5
:1008600014C00AE091F803C0BCF1480F05D14FF065
:10087000010C0CFA00FCC2F810C0401C0828D1D3AF
:100880001460B1F800C0BCF1FF0F34DD54680020E3
:100890002EE000F1080C4FF0010808FA0CF3B1F853
:1008A00000C00CEA03069E4221D183004FF00F0CDA
:1008B0000CFA03F7BC4305FA03FC4CEA040491F874
:1008C00003C0BCF1280F05D100F1080C08FA0CF8A0
:1008D000C2F8148091F803C0BCF1480F07D100F1B1
:1008E000080C4FF0010808FA0CF8C2F81080401C00
:1008F0000828CED35460BDE8F08141617047000004
:10090000F8B504460D4616461F462148844204D1D8
:100910000121042000F0CAF82EE01E48844204D1D0
:100920000121082000F0C2F826E01B48844204D1CF
:100930000121102000F0BAF81EE01848844204D1CA
:100940000121202000F0B2F816E01548844204D1BD
:100950000121402000F0AAF80EE01248844204D1A0
:100960000121802000F0A2F806E00F48844203D164
:100970000121801500F09AF8ADF800508DF8036061
:100980008DF8027069462046FFF72CFFF8BD000085
:1009900000080140000C014000100140001401401B
:1009A00000180140001C01400020014000BFFEE78C
:1009B00010B50323102260210648FFF7A1FF202174
:1009C0000448FFF79AFF0323482220210248FFF73B
:1009D00097FF10BD000C01400018014000BFFEE76A
:1009E0007047000070B5002100230F22C47804B3C3
:1009F000154C246804F4E064C4F5E064210AC1F1F4
:100A00000403CA40447804FA03F184781440214373
:100A100009010E4C0678A155047804F01F05012445
:100A2000AC4005786D11AD0005F1E025C5F8004139
:100A300009E0047804F01F050124AC40044D067859
:100A4000761145F8264070BD0CED00E000E400E0B2
:100A500080E100E002490143024A11607047000052
:100A60000000FA050CED00E07047000029B1064ACD
:100A7000D2690243044BDA6104E0034AD26982433B
:100A8000014BDA61704700000010024029B1064AAC
:100A900012690243044B1A6104E0034A126982435B
:100AA000014B1A61704700000010024029B1064A4C
:100AB00092690243044B9A6104E0034A92698243BB
:100AC000014B9A61704700000010024029B1064AAC
:100AD000D2680243044BDA6004E0034AD2688243DE
:100AE000014BDA60704700000010024030B5002171
:100AF0000022002400232D4D6D6805F00C0121B16A
:100B0000042905D0082923D105E0294D056022E0FC
:100B1000274D05601FE0254D6D6805F47012234DCB
:100B20006D6805F48034022505EB92421CB9214D15
:100B3000554305600BE01D4D6D6805F400351DB192
:100B40001C4D5543056002E0194D5543056002E018
:100B5000174D056000BF00BF144D6D6805F0F00132
:100B60000909154D6B5C0568DD4045600F4D6D68EA
:100B700005F4E061090A104D6B5C4568DD40856055
:100B80000A4D6D6805F46051C90A0B4D6B5C4568F0
:100B9000DD40C560054D6D6805F44041890B074D8A
:100BA0006B5CC568B5FBF3F5056130BD0010024014
:100BB00000127A0000093D005C0000206C0000205B
:100BC00000B54FF0FF30094908600A2000F05AFED6
:100BD000012000F039FE4FF0FF30054908603C204D
:100BE00000F04AFE00200349086000BD8800002094
:100BF00084000020900000200348006808B1012014
:100C000070470020FCE700009000002010B504466B
:100C10000248046000F090FC10BD00008400002039
:100C200001480068704700009400002001480068F7
:100C3000704700009C0000200148006870470000D9
:100C400090000020002001490860704790000020BB
:100C5000704710B500F002F810BD00000CB5002080
:100C6000019000903348006840F4803031490860BA
:100C700000BF3048006800F4003000900198401C2C
:100C80000190009818B90198B0F5A06FF1D12948EA
:100C9000006800F4003010B10120009001E0002055
:100CA00000900098012843D12348006840F01000CC
:100CB000214908600846006820F0030008600846E3
:100CC000006840F0020008601A484068194948600E
:100CD0000846406848600846406840F480604860C4
:100CE0000846406820F47C1048600846406840F49C
:100CF000E81048600846006840F08070086000BF57
:100D00000C48006800F000700028F9D009484068DD
:100D100020F00300074948600846406840F00200A0
:100D2000486000BF0348406800F00C000828F9D173
:100D30000CBD000000100240002002400548006881
:100D4000401C0449086004480068401C02490860CF
:100D500070470000000000200800002010B5134874
:100D6000006840F0010011490860084640681049D9
:100D700008400E494860084600680E4908400B4983
:100D800008600846006820F4802008600846406833
:100D900020F4FE0048604FF41F008860FFF759FF01
:100DA0004FF000600449086010BD000000100240D0
:100DB0000000FFF8FFFFF6FE08ED00E010B540F27E
:100DC0002551064800F0C9F930B10448001D0088DB
:100DD000C1B2034800F00CFA10BD0000004C004006
:100DE0003400002010B504460121C804FFF73EFE80
:100DF000072C00D000BF10BD10B540F225510548AA
:100E000000F0ABF928B103488088C1B2024800F075
:100E1000EFF910BD005000404000002010B504461E
:100E200001210805FFF722FE10BD000010B540F2B9
:100E30002551064800F091F930B10448001D0088A2
:100E4000C1B2034800F0D4F910BD000000380140E1
:100E50001000002010B50446E4B901210520FFF779
:100E600025FE01218803FFF721FE4FF40070184989
:100E700008801820C870032088701648FFF7B2FC5D
:100E80004FF48060124908800420C8701148FFF7B1
:100E9000A9FC1BE0012C19D101210820FFF706FE57
:100EA00001218803FFF702FE40200949088018202D
:100EB000C870032088700848FFF794FC802004491C
:100EC00008800420C8700448FFF78CFC10BD0000A7
:100ED0005800002000080140000C014010B540F20D
:100EE0002551064800F039F930B10448001D00884A
:100EF000C1B2034800F07CF910BD0000004400407E
:100F00001C00002010B5044601214804FFF7AEFD87
:100F1000022C1AD101210420FFF7C8FD0121480449
:100F2000FFF7A4FD0420174908801820C87003208B
:100F300088701548FFF756FC0820124908800420E5
:100F4000C8701148FFF74EFC1BE0032C19D101219A
:100F50002020FFF7ABFD01214804FFF787FD20208B
:100F6000084908801820C870032088700748FFF7D8
:100F700039FC4020034908800420C8700348FFF76B
:100F800031FC10BD58000020000801400014014051
:100F900010B540F22551064800F0DFF830B10448A2
:100FA000001D0088C1B2034800F022F910BD000006
:100FB000004800402800002010B5044601218804A4
:100FC000FFF754FD042C1AD101210820FFF76EFD14
:100FD00001218804FFF76AFD2002284908801820B3
:100FE000C870032088702648FFF7FCFB6002234985
:100FF00008800420C8702248FFF7F4FB3CE0052C71
:101000001CD101211020FFF751FD01218804FFF7B9
:101010004DFD4FF48060194908801820C8700320E6
:1010200088701848FFF7DEFB4FF400601349088012
:101030000420C8701348FFF7D5FB1DE0062C1BD118
:1010400001212020FFF732FD01218804FFF72EFD4A
:101050004FF48070094908801820C87003208870F8
:101060000948FFF7BFFB4FF40070044908800420D3
:10107000C8700548FFF7B6FB10BD000058000020FF
:10108000000C0140001001400014014021B1828990
:1010900042F40052828104E082894DF6FF731A40C7
:1010A0008281704710B504462048844209D101214D
:1010B0008803FFF70BFD00214FF48040FFF706FD8A
:1010C00032E01B48844209D101214804FFF7DEFCCD
:1010D00000214FF40030FFF7D9FC25E01548844289
:1010E00009D101218804FFF7D1FC00214FF48020B1
:1010F000FFF7CCFC18E01048844209D10121C80454
:10110000FFF7C4FC00214FF40020FFF7BFFC0BE009
:101110000A48844208D101210805FFF7B7FC0021E5
:101120004FF48010FFF7B2FC10BD00000038014002
:101130000044004000480040004C00400050004087
:1011400002460020B1F5007F00D100BF13880B409C
:101150000BB1012000E00020704770B5024600246A
:1011600000230025002040F66A16B14200D100BFDE
:10117000C1F3421501F01F03012606FA03F3012D06
:1011800002D19689334006E0022D02D1168A3340FF
:1011900001E0968A33400C12012606FA04F4168800
:1011A000344013B10CB1012000E0002070BD0000FC
:1011B00001460A4A914200D10020094A914200D1D9
:1011C0000120084A914200D10220074A914200D1F1
:1011D0000420064A914200D10520704700380140A2
:1011E0000044004000480040004C004000500040D7
:1011F00010B5C28883889A420FDA028983889A429E
:1012000001D1002202814AB2048903681A55028979
:10121000521C0281C288521CC28010BDF0B5034628
:10122000002400260025002040F66A17B94200D1AC
:1012300000BF1846C1F3421401F01F06012707FA48
:1012400006F5012C01D10C3004E0022C01D1103044
:1012500000E014301AB107682F43076002E0076806
:10126000AF430760F0BD00002DE9F04786B00546AA
:101270000E460024A24600BFA1460027B08900B157
:1012800000BF2F462C8A4CF6FF700440F0880443C0
:101290002C82AC894EF6F3100440B08831890843A3
:1012A000718908430443AC81AC8A4FF6FF40044087
:1012B000B0890443AC8201A8FFF718FC1F4887429D
:1012C00002D1DDF810A001E0DDF80CA0A88900F43F
:1012D000004040B10AEBCA0000EB0A103168490037
:1012E000B0FBF1F807E00AEBCA0000EB0A10316826
:1012F0008900B0FBF1F86420B8FBF0F0040120098C
:10130000642101FB1089A88900F4004040B132201B
:1013100000EBC900B0FBF1F000F00700044308E067
:10132000322000EB09106421B0FBF1F000F00F0057
:1013300004432C8106B0BDE8F0870000003801406E
:1013400013B5044600BF80212046FFF7F9FE0028B0
:10135000F9D09DF80400A0801CBD70B505460C4670
:1013600004E014F8011B2846FFF7EAFF2078002864
:10137000F7D170BD70B586B004460D46164602968C
:101380004948844212D12846FFF764FD25208DF894
:1013900004000020ADF814000C20ADF8120000206D
:1013A000ADF81000ADF80E00ADF80C003F488442D7
:1013B00012D12846FFF7A6FD26208DF80400002054
:1013C000ADF814000C20ADF812000020ADF81000AC
:1013D000ADF80E00ADF80C003548844212D1284615
:1013E000FFF7EAFD27208DF804000020ADF8140077
:1013F0000C20ADF812000020ADF81000ADF80E0082
:10140000ADF80C002B48844212D12846FFF7EAFCC5
:1014100034208DF804000020ADF814000C20ADF845
:1014200012000020ADF81000ADF80E00ADF80C0071
:101430002148844212D12846FFF7F0FC35208DF870
:1014400004000020ADF814000C20ADF812000020BC
:10145000ADF81000ADF80E00ADF80C0000212046EC
:10146000FFF714FE2046FFF71DFE02A92046FFF7F6
:10147000FBFE01212046FFF709FE012240F2255123
:101480002046FFF7CBFE01208DF8070000208DF8E5
:1014900005002046FFF78CFE8DF8060001A8FFF737
:1014A000A1FA06B070BD00000038014000440040C1
:1014B00000480040004C00400050004000BFFEE7E4
:1014C00070B54FF44070FFF7C5FA144800684FF448
:1014D0007A72B0FBF2F1B1F1807F00D31DE021F010
:1014E0007F40401E4FF0E022506150170F2200282D
:1014F00007DA13071D0E0A4B00F00F04241F1D55B9
:1015000003E013071C0E074B1C5400BF00204FF0D4
:10151000E02290610720106100BF70BD70000020C4
:1015200018ED00E000E400E00246531A002B01DB56
:10153000184670475842FCE710B507480068401C41
:1015400048B1002005490860054908601022910251
:101550000448FFF739F810BD8400002090000020F7
:1015600094000020000C014070B504460D46E1B225
:101570000248FFF7E5FE204670BD0000003801403C
:1015800070B5002400F0A8F806461F480068351A18
:1015900041F2CC00854222D91C4801682846FFF759
:1015A000C3FFC82818D21A480068401C18490860B0
:1015B0000846006802280FD1012407E01548016899
:1015C000204600F0A9F800B102E0641C072CF5D910
:1015D00000BF00200E49086000200E4908600D4839
:1015E0000068432804D300200A49086008490860BD
:1015F000084801680068401C064A1060034840F82B
:1016000021500148066070BDA80000207C01002028
:10161000AC000020A40000204FF4A060FFF71AFAED
:101620004FF4E13200211B48FFF7A4FEFFF7C0F999
:10163000FFF7C6FA1E20FFF7E9FA17A11548FFF7D2
:101640008CFEFFF73DFF23E0FFF7D6FA00281FD0FE
:10165000FFF7F2FA0446214612A0FEF7DBFD15A0C3
:10166000FEF7D8FDFFF7DCFA0446214612A0FEF78C
:10167000D1FD12A0FEF7CEFD12A0FEF7CBFDFFF7C5
:10168000D5FA0446214612A0FEF7C4FDFFF7DAFAA8
:10169000DAE70000003801404C56445F4943200A15
:1016A000000000005265636569766564203A256C28
:1016B00064202000202F20002564200062697473BC
:1016C0002000000050726F746F636F6C3A2000004E
:1016D000256420200A00000000B50B4800684FF484
:1016E0007A72B0FBF2F04FF0E0229269801A482241
:1016F000B0FBF2F200F00AF800EB4003C3EBC010BD
:1017000002EBC001084600BD7000002001480068DF
:1017100070470000000000202DE9FE4F80460F4674
:10172000414801680091416801910089ADF80800C5
:101730004FF000099DF803009DF80210884202DD79
:101740009DF8030001E09DF80200824637480068DA
:10175000B0FBFAF43648006860436421B0FBF1F650
:101760009DF8080008B1022000E001208346002512
:10177000A8F1010000EB80002E4901EB4000016858
:101780000091416801910089ADF808005D4636E09E
:101790004FEA49099DF8042002FB04F1234A52F85C
:1017A0002500FFF7C1FEB0420BD29DF8052002FBD9
:1017B00004F11E4B6A1C53F82200FFF7B5FEB0423D
:1017C0001CD39DF8062002FB04F1184A52F82500AC
:1017D000FFF7AAFEB0420ED29DF8072002FB04F1EB
:1017E000124B6A1C53F82200FFF79EFEB04202D251
:1017F00049F0010902E00020BDE8FE8FAD1C781E13
:10180000A842C5D8072F0DD90B48C0F80090781E04
:1018100040080A4908600A4804600A48C0F8008085
:101820000120E9E70020E7E7700100207C010020AB
:10183000A0000020881800089000002094000020DC
:10184000980000209C000020012801DB072800DD13
:101850000120411E01EB8101054A02EB4101054ACD
:101860000B6813604B685360098911817047000051
:1018700088180008700100200149086070470000C6
:10188000A000002000BF70475E01011F010303019B
:1018900000008A02010A01020201000064001E47E2
:1018A000040B090600007C0101060103030100008E
:1018B000F401060E010202010000C201170101023B
:1018C000020101009600023E010606010000000030
:1018D000CC100000041900080C19000814190008A5
:1018E0001C190008241900082C1900080419000804
:1018F0000C190008141900081C1900082419000804
:101900002C190008303030303000000031303030D9
:1019100030000000303130303000000030303130E5
:1019200030000000303030313000000030303030D6
:10193000310000005419000800000020B000000031
:101940006C010008041A0008B000002070080000B4
:1019500088010008000000000000000000000000F6
:1019600000000000B0000020200000000000000087
:10197000D00000202000000000000000F000002047
:1019800020000000000000001001002020000000E6
:1019900000000000300100202000000000000000D6
:1019A00050010020200000000000000000000000A6
:1019B00000000000010203040102030406070809F5
:1019C0000204060800A24A04000000000000000013
:1019D00001020304060708090000000000000000DF
:1019E00000000000000000000000000000000000F7
:1019F000000000003C0000000000000000000000AB
:041A000000000000E2
:0400000508000131BD
:00000001FF
