:020000040800F2
:10000000580A00200D020008450F00083D0E0008A8
:10001000410F0008BF020008372900080000000057
:10002000000000000000000000000000951400081F
:10003000350A0008000000007D110008E51E0008D8
:1000400027020008270200082702000827020008EC
:1000500027020008270200082702000827020008DC
:1000600027020008270200082702000827020008CC
:1000700027020008270200082702000827020008BC
:1000800027020008270200082702000827020008AC
:10009000DD280008270200082702000827020008C0
:1000A000270200082702000827020008270200088C
:1000B000270200082702000827020008270200087C
:1000C000270200082702000827020008270200086C
:1000D00027020008D51F00088520000839210008E4
:1000E00027020008270200086526000827020008EA
:1000F000270200082702000827020008270200083C
:10010000270200082702000827020008270200082B
:10011000651F0008A11F0008270200082702000829
:10012000270200082702000827020008270200080B
:1001300000F002F800F05AF80AA090E8000C82449F
:100140008344AAF10107DA4501D100F04FF8AFF27C
:10015000090EBAE80F0013F0010F18BFFB1A43F0A5
:10016000010318477C3600009C3600000A444FF01B
:10017000000C10F8013B13F0070408BF10F8014B06
:100180001D1108BF10F8015B641E05D010F8016B4B
:10019000641E01F8016BF9D113F0080F1EBF10F8AF
:1001A000014BAD1C0C1B09D16D1E58BF01F801CBD2
:1001B000FAD505E014F8016B01F8016B6D1EF9D555
:1001C0009142D6D37047000000230024002500266A
:1001D000103A28BF78C1FBD8520728BF30C148BFAA
:1001E0000B6070471FB51FBD10B510BD00F031F892
:1001F0001146FFF7F7FF02F041FD00F04FF803B49E
:10020000FFF7F2FF03BC00F053F8000009488047F5
:1002100009480047FEE7FEE7FEE7FEE7FEE7FEE7E8
:10022000FEE7FEE7FEE7FEE704480549054A064B00
:1002300070470000051F0008310100085804002025
:10024000580A0020580600205806002070477047C2
:100250007047754600F028F8AE46050069465346DB
:1002600020F00700854618B020B5FFF7DDFFBDE898
:1002700020404FF000064FF000074FF000084FF00D
:10028000000B21F00701AC46ACE8C009ACE8C0099E
:10029000ACE8C009ACE8C0098D4670470446AFF32E
:1002A00000802046FFF7ABFF00487047F4030020B2
:1002B00001491820ABBEFEE726000200704700BFD0
:1002C000FEE70146CAB20B1243EA02207047000063
:1002D00070B505460C46402C0FDA0020094908701D
:1002E0002246C021284602F029FB2146012001F0C8
:1002F000C7F9012001F0F2F901E0002070BD0120F2
:10030000FCE70000A201002008B50020009022E1D7
:100310009748008800F00F0096490870084600785A
:1003200000287CD1944800689449088008460088D9
:1003300000F03000924908809048008800F4405056
:100340008E4908808C4909684BF6BF7201EA0200A9
:1003500080F4005080F0200040F4004141F0800122
:10036000854A11608248008800F0100090BB10465A
:10037000006848F60F7108401146086000F060FD03
:100380007D4909684BF6BF7201EA02007B49098882
:1003900001F4805109B180F480507849098801F452
:1003A000005109B180F400507549098801F010012D
:1003B00009B180F010007249098801F0200109B1EB
:1003C00080F0200081B241F4004141F080016A4A8E
:1003D000116008BDFFE76848006880B20090BDF872
:1003E000000000F40060B0B363480068C0F30E0082
:1003F00048F68F7108406049086001F04BFA5E4989
:1004000009684BF6BF7201EA02005C49098801F4F1
:10041000805109B180F480505849098800E056E0C5
:1004200001F4005109B180F400505549098801F0E8
:10043000100109B180F010005149098801F0200134
:1004400009B180F0200081B241F4004141F0800107
:10045000494A1160BDE7FFE7BDF8000000F4004025
:10046000002878D044480068C0F30E0048F68F7129
:1004700008404149086000F045FE3F4909684BF6D5
:10048000BF7201EA02003D49098801F4805109B1B7
:1004900080F480503949098801F4005109B180F491
:1004A00000503749098801F0100109B180F01000AF
:1004B0003349098801F0200109B180F0200081B2A0
:1004C00041F4004141F080012B4A116081E7294845
:1004D00000782C4901EB8000D0F8000C80B200902D
:1004E000BDF8000000F40040C0B12248007801EBE4
:1004F0008000D0F8000CC0F30E0048F68F71084061
:100500001C4909781F4A02EB8101C1F8000C194906
:100510000978491E1C4A52F821008047BDF80000A6
:1005200000F08000B8B113480078164901EB800054
:10053000D0F8000C48F60F7108400E490978114AAE
:1005400002EB8101C1F8000C0A490978491E0F4AE3
:1005500052F82100804708484430006880B20449BE
:10056000088000F4004000287FF4D2AE00BF30E7DE
:10057000940000207C010020005C004090010020DD
:100580009201002000500040BC000020A00000208C
:100590000B4A02EB8001D1F8001C01F4804171B1DB
:1005A00002EB8001D1F8001C48F68F7211404CF22A
:1005B00080021143024B03EB8002C2F8001C70471B
:1005C000005000400B4A02EB8001D1F8001C01F002
:1005D000400171B102EB8001D1F8001C48F68F7226
:1005E000114048F2C0021143024B03EB8002C2F8F3
:1005F000001C704700500040084A02EB8001D1F80F
:10060000001C48F68F62114048F280021143034BF0
:1006100003EB8002C2F8001C70470000005000404D
:100620002DE9F0472848006800F110052E8826487B
:100630000068077AD6B9042F18D124480078012819
:100640000FD100212248006880B2801C214A42F864
:10065000101030202049088000BF00201B4908707E
:1006600003E0072710201C49088027E0AC88A64239
:1006700001D8042000E002200746B44200D93446E5
:10068000A0B2A96888478046002000F085FB81461B
:10069000A2B24946404602F051F9A1B2002000F052
:1006A000EFFF2888001B288068882044688030205D
:1006B0000949088000020949088000BF0249096809
:1006C0000F72BDE8F0870000800100207A01002051
:1006D000505C00400060004092010020900100202A
:1006E0002DE9F0412848006800F110042688A06830
:1006F000C0B1BEB1A588B54200D93546A8B2A1683F
:10070000884707462088401B2080608828446080F6
:10071000002000F01FFB8046AAB24146384600F098
:1007200019FD00BF208850B14FF440501749088090
:100730000021084600F0A4FF3020154908802088D9
:10074000A188884204DB03200F490968087218E079
:100750002088002804DD05200B490968087210E094
:10076000208870B9062008490968087200210948E4
:10077000006880B2801C084A42F8101030200449FA
:100780000880BDE8F0810000800100209001002079
:1007900092010020505C0040006000402DE9F84FBD
:1007A0009B48006845780027BA46062D1BD198481B
:1007B0000068007800F07F00002813D19449096890
:1007C0008878012803D193490968CF690AE0022893
:1007D00003D1904909680F6A04E0032802D18D49CA
:1007E00009684F6A94E0002D64D189480068408808
:1007F00000285FD186480068C08802285AD1844802
:1008000000680079002855D181480068007800F020
:100810007F0028B97E480068808808B97E4F77E05D
:100820007B480068007800F07F00012810D17849EB
:1008300009684879774909688A6900219047002842
:1008400066D173480068807A002861D0724F5FE0FB
:100850006F480068007800F07F00022858D16C488B
:100860000068407900F00F0669480068407900F0A0
:10087000700967480068407900F0800038B1674926
:1008800001EB8600D0F8000C00F0300806E0634968
:1008900001EB8600D0F8000C00F440586048007866
:1008A000B04235D9B9F1000F32D1B8F1000F2FD0D5
:1008B000594F2DE0082D07D155480068007800F009
:1008C0007F0028BB574F23E00A2D21D150480068F4
:1008D000007800F07F0001281AD14D480068807A26
:1008E000B0B14B480068408890B949480068007929
:1008F00070B947480068C088012809D1444909688F
:100900004879444909688A690021904700B9464FEF
:1009100057B13F480068A0F812A03D4800688761C1
:100920000020B84700240FE0394A12685078394A4D
:100930001268116988470446032C05D109203449FF
:1009400009680872BDE8F88F31480068008A4FF6E0
:10095000FF71884204D109202D4909680872F1E726
:10096000022C03D02A480068008A20B908202849B0
:1009700009680872E6E726480068007800F0800001
:10098000E0B323480068C088009021480068008ACE
:100990000099884204D91E4900980968088223E01A
:1009A0001B480068008A1A490968C98888421BDA0E
:1009B00017480068008A1749096891F82C10884286
:1009C00003DA0020194908700EE011480068008A17
:1009D0001049096891F82C1090FBF1F201FB12000C
:1009E00010B90120114908700A48006890F82C10CD
:1009F000074800688182FFF713FE07E0FFE7032046
:100A000003490968087200030949088000BF99E793
:100A10008001002084010020351B000800500040A8
:100A2000E4000020B91A0008091B00087A01002020
:100A3000900100207047000010B50C480078012894
:100A400010D10B480278C0210A4801F077FF08480E
:100A50000178012000F014FE012000F03FFE00208C
:100A60000249087000F0C2F910BD0000A201002088
:100A7000A0010020B403002070B51549032001F047
:100A800043FF1449087014480468002506E0104824
:100A9000405D12490855601CC4B26D1C0D480078B9
:100AA0008542F4D30C4804600D480078201AC6B281
:100AB00036B900200B4908700949086006490860EA
:100AC000012008490870032000F0B0FD70BD00004F
:100AD000B4030020A001002098010020B4020020EF
:100AE0009C010020A101002001490860704700001E
:100AF00014040140002123498279002A3AD00A4691
:100B0000126803689A430B461A600A1D126803684C
:100B10009A430B1D1A60027911440A6803681A434C
:100B20000A60184A0832126803689A43154B083362
:100B30001A601A1D126803689A43124B0C331A602C
:100B40004279102A0ED11A1F126803681A430D4BFE
:100B500008331A601A1D126803681A43094B0C33D4
:100B60001A600DE00749427911440A6803681A4384
:100B70000A6005E0027911440A6803689A430A6032
:100B800070470000000401402DE9F04102460025B5
:100B90000026002000230024002791F803C00CF059
:100BA0000F0591F803C00CF0100CBCF1000F03D03E
:100BB00091F802C04CEA050591F800C0BCF1000FA5
:100BC00031D0146800202BE04FF0010C0CFA00F338
:100BD000B1F800C00CEA03069E4220D183004FF01A
:100BE0000F0C0CFA03F7BC4305FA03FC4CEA0404AF
:100BF00091F803C0BCF1280F06D14FF0010C0CFA9C
:100C000000FCC2F814C00AE091F803C0BCF1480F20
:100C100005D14FF0010C0CFA00FCC2F810C0401CCA
:100C20000828D1D31460B1F800C0BCF1FF0F34DD47
:100C3000546800202EE000F1080C4FF0010808FA7B
:100C40000CF3B1F800C00CEA03069E4221D18300E8
:100C50004FF00F0C0CFA03F7BC4305FA03FC4CEA07
:100C6000040491F803C0BCF1280F05D100F1080C71
:100C700008FA0CF8C2F8148091F803C0BCF1480FD0
:100C800007D100F1080C4FF0010808FA0CF8C2F87F
:100C90001080401C0828CED35460BDE8F08141612B
:100CA00070470000F8B504460D4616461F46214819
:100CB000844204D10121042000F0C6FA2EE01E482F
:100CC000844204D10121082000F0BEFA26E01B482E
:100CD000844204D10121102000F0B6FA1EE0184829
:100CE000844204D10121202000F0AEFA16E015481C
:100CF000844204D10121402000F0A6FA0EE01248FF
:100D0000844204D10121802000F09EFA06E00F48C1
:100D1000844203D10121801500F096FAADF800500D
:100D20008DF803608DF8027069462046FFF72CFFAE
:100D3000F8BD000000080140000C01400010014017
:100D40000014014000180140001C01400020014037
:100D50000161704701460548006880B200EBC100A0
:100D6000001D034A32F8100080B27047505C00400A
:100D70000060004001460648006880B200EBC100F8
:100D8000801D044A32F81000C0F3090070470000CB
:100D9000505C00400060004001460548006880B299
:100DA00000EBC100034A32F8100080B27047000027
:100DB000505C00400060004070B50A480468001DA7
:100DC0000568001D0668344454B1082206492046CF
:100DD00000F06EF8042204491031284600F068F84B
:100DE00070BD0000E8F7FF1F7600002010B50F4827
:100DF000007800B910BD0E480078012810D10D48C8
:100E00000278C0210C4801F099FD0A4801780120C0
:100E100000F036FC012000F061FC0020044908705D
:100E200000200249087000BFE4E7000071000020C4
:100E3000A2010020A0010020B403002000BFFEE7B3
:100E400010B518480068047A022C01D0042C05D192
:100E5000FFF7E6FB13480068047A1CE0062C19D162
:100E600010480068407805280ED10E4800680078C8
:100E700000F07F0040B90B490968C87800F056FBC4
:100E800009490968086A80470849096888688047ED
:100E9000082400E00824034909680C7200F070F986
:100EA00010BD0000800100208C0100208401002082
:100EB00030B50B46002100BF16E00A24B4EB107FCA
:100EC00005D9302404EB107403F8114005E04124E7
:100ED00004EB10740A3C03F81140000100254C009B
:100EE000641C1D554C1CE1B29142E6DB30BD000094
:100EF00010B50323102260210648FFF7D3FE2021FE
:100F00000448FFF7CCFE0323482220210248FFF7C4
:100F1000C9FE10BD000C01400018014010B5064C80
:100F2000A07A18B105200549086002E001200349B4
:100F3000086000F0E7FF10BD980200206C0100205F
:100F400000BFFEE77047704770B5002100230F22F5
:100F5000C47804B3154C246804F4E064C4F5E06478
:100F6000210AC1F10403CA40447804FA03F18478E9
:100F70001440214309010E4C0678A155047804F071
:100F80001F050124AC4005786D11AD0005F1E02589
:100F9000C5F8004109E0047804F01F050124AC40C5
:100FA000044D0678761145F8264070BD0CED00E042
:100FB00000E400E080E100E002490143024A1160E0
:100FC000704700000000FA050CED00E070B5022645
:100FD00047480068447846480068007800F07F0081
:100FE000002844D1092C03D100F024FE06465FE01E
:100FF000052C14D13E480068C0787F280BDC3C48A3
:101000000068807838B93A480068808818B938484C
:101010000068807A08B1082565E0002648E0032CC6
:101020000ED133480068C078012807D130480068E5
:10103000808818B900F022FE064639E0022637E023
:10104000012C35D12A480068C07801280DD12848E4
:101050000068808848B926480068407A00F020007F
:1010600018B100F073FC064622E0022620E020487A
:101070000068007800F07F00012805D10B2C17D103
:1010800000F078FE064613E019480068007800F08A
:101090007F0002280BD1012C03D100F057FC06463B
:1010A00006E0032C04D100F0FDFD064600E0022618
:1010B0004EB1E0B20F4A1268516988470646032EC6
:1010C00001D109250FE00EB108250CE0062500210D
:1010D0000948006880B2801C084A42F8101030208D
:1010E0000749088000BF024909680D7270BD000001
:1010F0008001002084010020505C0040006000401E
:101100009201002010B511480068047A022C01D029
:10111000042C01D1082412E0032C01D0052C05D1A8
:10112000FFF7DEFA09480068047A08E0072C05D1C9
:1011300007490968C8688047082400E00824034973
:1011400009680C7200F01CF810BD0000800100203E
:1011500084010020F0B5561C7510074E06EB4104C3
:101160002B4605E034F8047B20F8017B401C5B1E15
:10117000002BF7D1F0BD0000006000407047000078
:1011800010B50D4890F82C10002000F009FA0B481B
:101190000068007A082805D140020949088010201B
:1011A0000849088005480068007A092801D1012013
:1011B00010BD0020FCE70000E800002080010020B6
:1011C000900100209201002010B5012001F050FA9A
:1011D00001240B48046000200A4908800846008862
:1011E000074908600020091D08604FF4E0500549D8
:1011F00008800846008802490860002010BD0000F1
:10120000405C00408A01002029B1064AD2690243AD
:10121000044BDA6104E0034AD2698243014BDA618C
:10122000704700000010024029B1064A12690243CB
:10123000044B1A6104E0034A12698243014B1A61AC
:10124000704700000010024029B1064A926902432B
:10125000044B9A6104E0034A92698243014B9A610C
:10126000704700000010024029B1064AD2680243CC
:10127000044BDA6004E0034AD2688243014BDA602F
:10128000704700000010024030B500210022002409
:1012900000232D4D6D6805F00C0121B1042905D006
:1012A000082923D105E0294D056022E0274D05607E
:1012B0001FE0254D6D6805F47012234D6D6805F42F
:1012C0008034022505EB92421CB9214D554305603F
:1012D0000BE01D4D6D6805F400351DB11C4D5543E7
:1012E000056002E0194D5543056002E0174D0560A9
:1012F00000BF00BF144D6D6805F0F0010909154DE0
:101300006B5C0568DD4045600F4D6D6805F4E0617C
:10131000090A104D6B5C4568DD4085600A4D6D68BB
:1013200005F46051C90A0B4D6B5C4568DD40C56032
:10133000054D6D6805F44041890B074D6B5CC56830
:10134000B5FBF3F5056130BD0010024000127A00D4
:1013500000093D005C0000206C000020014908608D
:1013600070470000D800424270B50546072D01D0F5
:101370002E4805702D48007808284ED2DFE800F08E
:1013800004111A202B384E4F2948006828B900F064
:1013900053F806202549087002E00520234908700B
:1013A00041E000F049F8042020490870012020495C
:1013B000086038E002201D4948700320087032E0C0
:1013C0001A484078401E194948700846407808B9C4
:1013D0000420087027E01748006884B244F0100425
:1013E000144804600520114908700A2048701AE06A
:1013F0000E484078401E0D4948700846407858B95C
:101400000C48006884B224F010040A4804600620E6
:10141000087000200649086005E000BF00BF0620F4
:101420000249087000BF00BF70BD000071010020BC
:1014300074010020405C004010B50748006884B289
:1014400024F0040404480460FFF768FD4FF43F40B3
:101450000149086010BD0000405C004010B50A481A
:10146000006805280FD1094801680068401C074A38
:1014700010600A2907D100201146086001200449A4
:101480000870FFF7B3FC10BD6C0100209000002035
:10149000710000207047000070B506460C460848F1
:1014A000006805280AD1E1B23046FEF711FF054673
:1014B000002D01DD284670BD0020FCE70020FAE782
:1014C0006C0100200348007803490978401AC0B233
:1014D00070470000980100209C01002010B50446D0
:1014E00001210420FFF7B0FE00F098F900F0C8F9E0
:1014F00001F0EEF801F0CEF810BD08B50121684604
:1015000001F06AFC08B9002008BD9DF80000FBE767
:1015100001B501216846FFF7BFFF08BD4FF6F8711E
:101520000140014A11607047505C004030B50146EF
:101530000F4B1A78002014E003060E4C04EB935373
:10154000D3F8003C48F68F74234048F280042343CC
:10155000C4B223430406074D05EB9454C4F8003C81
:10156000401C9042E8D341F08003034C236030BD1F
:10157000E4000020005000404C5C004010B54A10D0
:101580005300054A126892B202EBC002121D034CCE
:1015900044F8123010BD0000505C00400060004074
:1015A00010B502460F48006880B200EBC200801DF3
:1015B0000D4C04EB40033E290BDD481101F01F04E4
:1015C0000CB9441EA0B24FF4004444EA80241C60CD
:1015D00007E0481001F001040CB1441CA0B28402E1
:1015E0001C6010BD505C00400060004030B50E4CE7
:1015F00004EB8003D3F8003C4BF68F7403EA04023B
:1016000001F480530BB182F4805201F400530BB10A
:1016100082F4005242F4004343F08003024D05EB94
:101620008004C4F8003C30BD0050004010B50B4BA6
:1016300003EB8002D2F8002C4BF68F7302EA030111
:1016400081F4805181F4005141F4004242F0800263
:10165000024C04EB8003C3F8002C10BD0050004086
:1016600010B54A105200044B1B689BB203EBC00339
:10167000024C44F8132010BD505C00400060004054
:10168000044A126892B202EBC002921C024B43F869
:1016900012107047505C00400060004030B50E4CA6
:1016A00004EB8003D3F8003C48F6BF7403EA04025D
:1016B00001F010030BB182F0100201F020030BB116
:1016C00082F0200242F4004343F08003024D05EB18
:1016D0008004C4F8003C30BD0050004010B50B4BF6
:1016E00003EB8002D2F8002C48F6BF7302EA030134
:1016F00081F0100181F0200141F4004242F08002AB
:10170000024C04EB8003C3F8002C10BD00500040D5
:1017100010B5074B03EB8002D2F8002C48F68F136C
:101720001A400A43024C04EB8003C3F8002C10BD9E
:101730000050004010B500F001F810BD0CB50020BD
:10174000019000903348006840F4803031490860CF
:1017500000BF3048006800F4003000900198401C41
:101760000190009818B90198B0F5A06FF1D12948FF
:10177000006800F4003010B10120009001E000206A
:1017800000900098012843D12348006840F01000E1
:10179000214908600846006820F0030008600846F8
:1017A000006840F0020008601A4840681949486023
:1017B0000846406848600846406840F480604860D9
:1017C0000846406820F47C1048600846406840F4B1
:1017D000E81048600846006840F08070086000BF6C
:1017E0000C48006800F000700028F9D009484068F3
:1017F00020F00300074948600846406840F00200B6
:10180000486000BF0348406800F00C000828F9D188
:101810000CBD000000100240002002401CB500205A
:101820001549088004E014480088401C12490880CB
:1018300011480088B0F5807FF5DD01210820FFF711
:1018400003FD0E48006800200C490860C8060860C7
:1018500080130A490C310860C000FFF745F94FF4C6
:101860008020009008208DF8050001208DF80600EA
:101870006846FFF73FF91CBD72000020040C0140D0
:1018800010B50020FFF76AFD0121C805FFF7BCFC79
:1018900010BD000038B501242948006880B2001D41
:1018A000284931F8100080B201EB40000090264832
:1018B0000068007A092832D0009800782249096827
:1018C00008700098401C0090009800781E49096834
:1018D00048700098401C0090009800EB4400009075
:1018E000009931F8020B0091FEF7EBFC16490968EC
:1018F0004880009800EB44000090009931F8020BFA
:101900000091FEF7DEFC104909688880009800EB22
:1019100044000090009800880B490968C8800120A5
:1019200009490968087208480068C08810B9FFF7BB
:101930004DFB01E0FEF732FFFFF722FC38BD00004F
:10194000505C004000600040800100202DE9F0471D
:1019500054480068007800F07F08B8F1000F0AD101
:1019600050480068407A00F0DF004E49096848722C
:101970000020BDE8F087B8F1020F7CD1494800682B
:10198000408818B947480068007908B10220F0E79C
:10199000DFF8149143480068477927F080052C460A
:1019A00040480068407900F0800038B13F4901EBC1
:1019B0008400D0F8000C00F0300606E03B4901EB53
:1019C0008400D0F8000C00F4405699F80000A842BA
:1019D00004D91EB133480068807A08B90220C8E7EC
:1019E00007F0800080B1314901EB8400D0F8000C91
:1019F00000F0300010284BD1E0B2FEF7E3FDE0B27A
:101A00003021FFF74BFE43E0284901EB8400D0F87A
:101A1000000C00F44050B0F5805F39D1E4B9244A9D
:101A200092F82C10E0B2FFF7BBFD204A02EB8401D4
:101A3000D1F8001C4BF68F7201EA020080F480504E
:101A400080F4005040F4004141F08001174B03EB5B
:101A50008402C2F8001C1BE0E0B2FEF799FD134AB5
:101A600002EB8401D1F8001C4BF68F7201EA0200F0
:101A700080F4805000E011E080F4005040F4004118
:101A800041F08001094B03EB8402C2F8001C00BF47
:101A9000084909684869804700206AE700BF0220BA
:101AA00067E7000080010020E400002000500040B3
:101AB000E80000208C01002010B504462CB901205C
:101AC000064909680882002010BD054909680868B0
:101AD0008047024800680A30F6E7000080010020D5
:101AE0008C01002010B5024606480068438A32B9CE
:101AF0008888C01A034C24682082002010BD086822
:101B00001844FBE78001002010B504462CB90120E1
:101B1000064909680882002010BD054909688868DF
:101B20008047024800680C30F6E700008001002082
:101B30008C01002010B504462CB9022039490968EF
:101B40000882002010BD0020374908803548006811
:101B5000007800F07F0018BB32490968487A00F02D
:101B6000200131B13049097841F002012E4A11704B
:101B700005E02D49097801F0FD012B4A117000F0B4
:101B8000400131B12849097841F00101264A11701C
:101B900005E02549097801F0FE01234A11703AE079
:101BA00020480068007800F07F00012801D11E481D
:101BB000C8E71C480068007800F07F00022828D1A0
:101BC000184A1268517901F00F0001F080027AB1D1
:101BD000164B03EB8002D2F8002C02F03002102AE0
:101BE00016D1114A127842F001020F4B1A700FE021
:101BF0000E4B03EB8002D2F8002C02F44052B2F5F7
:101C0000805F05D1084A127842F00102064B1A7033
:101C100001E0002096E70649096808698047024804
:101C200090E7000080010020780100200050004073
:101C30008C01002010B50E480068C0780D49497825
:101C4000884213DC0A480068807878B90848006840
:101C5000808858B906480068C078054909688872C4
:101C60000549096848688047002010BD0220FCE74C
:101C700080010020E40000208C01002010B50748FE
:101C80000068407A40F0200004490968487204491D
:101C90000968C8698047002010BD0000800100204D
:101CA0008C0100202DE9F0412E480068467926F08D
:101CB00080073C462B480068407900F0800038B12E
:101CC000294901EB8400D0F8000C00F0300506E053
:101CD000254901EB8400D0F8000C00F4405523485E
:101CE0000078A04208D91F480068408820B91DB17B
:101CF0001C480068807A10B90220BDE8F08106F027
:101D00008000A0B1184A02EB8401D1F8001C48F60B
:101D1000BF7201EA020080F0100040F4004141F07F
:101D20008001114B03EB8402C2F8001C14E00E4A40
:101D300002EB8401D1F8001C4BF68F7201EA02001D
:101D400080F4805040F4004141F08001064B03EBE9
:101D50008402C2F8001C00BF0549096888698047F1
:101D60000020CAE78001002000500040E40000206D
:101D70008C01002010B5174B1B68D978154B1B68D8
:101D80005879154B1B689A699047044611480068BA
:101D9000807AE8B13CB90F480068007918B90D485D
:101DA0000068807808B1022010BD8CB90B49096821
:101DB000C868804707480068407906490968C872C2
:101DC00004480068C0780349096808730020EBE7FD
:101DD0000220E9E780010020840100208C0100201E
:101DE00038B50021002200230093394B1B6898B2BC
:101DF00000BF09E0374C04EB8103D3F8003C9BB2F1
:101E0000354C44F82130491C0829F3D340F4806054
:101E10002F4B186040F00100186020F0010018609E
:101E200000BF2B4B1B1D1B6803F48063002BF8D0F5
:101E30004FF6FF33264C241D2360002109E0264B7A
:101E400053F821309BB2234D05EB8104C4F8003CCC
:101E5000491C0829F3D340F008001D4B18601B688B
:101E600098B240F004001A4B18601C4B1B6800939A
:101E70001A4B1A6822F0030242F001021A60184B52
:101E80001B6843F00403164C2360114B1B1D1B6899
:101E900003F4805333B930BF23461B6823F0040397
:101EA000236014E04EF6FF73094C241D2360231FAA
:101EB0001B6898B220F00800231F1860074C009B95
:101EC0002360074B1B6823F00403054C236038BDD7
:101ED000405C00400050004078020020007000404C
:101EE00010ED00E005480068401C04490860044803
:101EF0000068401C02490860704700000000002094
:101F00000800002010B51348006840F00100114996
:101F1000086008464068104908400E494860084675
:101F200000680E4908400B4908600846006820F424
:101F3000802008600846406820F4FE0048604FF4A6
:101F40001F008860FFF7F6FB4FF00060044908604F
:101F500010BD0000001002400000FFF8FFFFF6FE79
:101F600008ED00E010B540F22551064800F0C9F92F
:101F700030B10448001D0088C1B2034800F00CFADB
:101F800010BD0000004C00403400002010B5044695
:101F90000121C804FFF738F9072C00D000BF10BD9D
:101FA00010B540F22551054800F0ABF928B10348BF
:101FB0008088C1B2024800F0EFF910BD0050004027
:101FC0004000002010B5044601210805FFF71CF968
:101FD00010BD000010B540F22551064800F091F9FF
:101FE00030B10448001D0088C1B2034800F0D4F9A4
:101FF00010BD0000003801401000002010B504465C
:10200000E4B901210520FFF71FF901218803FFF73B
:102010001BF94FF40070184908801820C87003207D
:1020200088701648FEF7B0FD4FF4806012490880B2
:102030000420C8701148FEF7A7FD1BE0012C19D140
:1020400001210820FFF700F901218803FFF7FCF8C0
:102050004020094908801820C8700320887008486B
:10206000FEF792FD8020044908800420C8700448CF
:10207000FEF78AFD10BD0000580000200008014056
:10208000000C014010B540F22551064800F039F926
:1020900030B10448001D0088C1B2034800F07CF94B
:1020A00010BD0000004400401C00002010B5044694
:1020B00001214804FFF7A8F8022C1AD101210420BD
:1020C000FFF7C2F801214804FFF79EF804201749E2
:1020D00008801820C870032088701548FEF754FD4A
:1020E0000820124908800420C8701148FEF74CFDF2
:1020F0001BE0032C19D101212020FFF7A5F80121B5
:102100004804FFF781F82020084908801820C8708B
:10211000032088700748FEF737FD402003490880F8
:102120000420C8700348FEF72FFD10BD58000020A2
:10213000000801400014014010B540F22551064846
:1021400000F0DFF830B10448001D0088C1B2034838
:1021500000F022F910BD00000048004028000020D7
:1021600010B5044601218804FFF74EF8042C1AD15B
:1021700001210820FFF768F801218804FFF764F8BF
:102180002002284908801820C8700320887026483B
:10219000FEF7FAFC6002234908800420C870224838
:1021A000FEF7F2FC3CE0052C1CD101211020FFF7CA
:1021B0004BF801218804FFF747F84FF48060194974
:1021C00008801820C870032088701848FEF7DCFCCF
:1021D0004FF40060134908800420C8701348FEF7CC
:1021E000D3FC1DE0062C1BD101212020FFF72CF889
:1021F00001218804FFF728F84FF48070094908800E
:102200001820C870032088700948FEF7BDFC4FF401
:102210000070044908800420C8700548FEF7B4FC2B
:1022200010BD000058000020000C014000100140CB
:102230000014014021B1828942F40052828104E0FD
:1022400082894DF6FF731A408281704710B50446AB
:102250002048844209D101218803FFF705F80021B5
:102260004FF48040FFF700F832E01B48844209D168
:1022700001214804FEF7D8FF00214FF40030FEF79B
:10228000D3FF25E01548844209D101218804FEF7D7
:10229000CBFF00214FF48020FEF7C6FF18E0104866
:1022A000844209D10121C804FEF7BEFF00214FF48A
:1022B0000020FEF7B9FF0BE00A48844208D1012153
:1022C0000805FEF7B1FF00214FF48010FEF7ACFFC8
:1022D00010BD0000003801400044004000480040AC
:1022E000004C00400050004002460020B1F5007F45
:1022F00000D100BF13880B400BB1012000E000208B
:10230000704770B50246002400230025002040F6E7
:102310006A16B14200D100BFC1F3421501F01F039C
:10232000012606FA03F3012D02D19689334006E017
:10233000022D02D1168A334001E0968A33400C12F6
:10234000012606FA04F41688344013B10CB10120BA
:1023500000E0002070BD000001460A4A914200D111
:102360000020094A914200D10120084A914200D13F
:102370000220074A914200D10420064A914200D12E
:1023800005207047003801400044004000480040EC
:10239000004C00400050004010B5C28883889A422B
:1023A0000FDA028983889A4201D1002202814AB25F
:1023B000048903681A550289521C0281C288521C82
:1023C000C28010BDF0B50346002400260025002081
:1023D00040F66A17B94200D100BF1846C1F3421453
:1023E00001F01F06012707FA06F5012C01D10C3078
:1023F00004E0022C01D1103000E014301AB107685B
:102400002F43076002E00768AF430760F0BD00009C
:102410002DE9F04786B005460E460024A24600BFCF
:10242000A1460027B08900B100BF2F462C8A4CF688
:10243000FF700440F08804432C82AC894EF6F31000
:102440000440B08831890843718908430443AC8152
:10245000AC8A4FF6FF400440B0890443AC8201A827
:10246000FEF712FF1F48874202D1DDF810A001E0FD
:10247000DDF80CA0A88900F4004040B10AEBCA00C6
:1024800000EB0A1031684900B0FBF1F807E00AEBF5
:10249000CA0000EB0A1031688900B0FBF1F8642033
:1024A000B8FBF0F004012009642101FB1089A88920
:1024B00000F4004040B1322000EBC900B0FBF1F065
:1024C00000F00700044308E0322000EB091064210B
:1024D000B0FBF1F000F00F0004432C8106B0BDE822
:1024E000F08700000038014013B5044600BF80218A
:1024F0002046FFF7F9FE0028F9D09DF80400A080DF
:102500001CBD70B505460C4604E014F8011B2846B6
:10251000FFF7EAFF20780028F7D170BD70B586B0CC
:1025200004460D46164602964948844212D1284672
:10253000FFF764FD25208DF804000020ADF814009D
:102540000C20ADF812000020ADF81000ADF80E0020
:10255000ADF80C003F48844212D12846FFF7A6FD93
:1025600026208DF804000020ADF814000C20ADF8F2
:1025700012000020ADF81000ADF80E00ADF80C0010
:102580003548844212D12846FFF7EAFD27208DF80E
:1025900004000020ADF814000C20ADF8120000205B
:1025A000ADF81000ADF80E00ADF80C002B488442D9
:1025B00012D12846FFF7EAFC34208DF804000020F1
:1025C000ADF814000C20ADF812000020ADF810009A
:1025D000ADF80E00ADF80C002148844212D1284617
:1025E000FFF7F0FC35208DF804000020ADF8140052
:1025F0000C20ADF812000020ADF81000ADF80E0070
:10260000ADF80C0000212046FFF714FE2046FFF72E
:102610001DFE02A92046FFF7FBFE01212046FFF721
:1026200009FE012240F225512046FFF7CBFE012092
:102630008DF8070000208DF805002046FFF78CFE7E
:102640008DF8060001A8FEF77FFC06B070BD000003
:10265000003801400044004000480040004C004069
:102660000050004010B54FF48020FEF73DFA10BD39
:1026700010B504462CB14FF400410548FEF70FFB9E
:1026800004E04FF400410248FEF762FB10BD000079
:10269000000C014010B5084808490860022009688C
:1026A0000872074807490860074808490860054953
:1026B00009680868804710BD98020020800100204A
:1026C000E800002084010020180100208C01002077
:1026D00008B54FF4A060FEF76FFC14208DF80000E1
:1026E00002208DF8010000208DF8020001208DF8F5
:1026F00003006846FEF728FC2A208DF80000002021
:102700008DF801006846FEF71FFC08BD10B588B0C3
:10271000002469480068694908800846008800F478
:10272000007067490988084050B14FF6FF50624970
:10273000086064480078401C62490870FEF78EFE0D
:102740005E48008800F400405D490988084008B1EF
:10275000FDF7DAFD5948008800F48060584909887F
:10276000084030B14FF6FF30534908605649486879
:1027700080475248008800F40050514909880840B9
:1027800018B14DF6FF704C4908604C48008800F4C1
:1027900080504B490988084030B14EF6FF704649D9
:1027A00008600020FEF7E0FD4448008800F4006067
:1027B00043490988084060B14448007810B1FFF7E8
:1027C0000FFB02E00220FEF7CFFD4FF2FF703A4907
:1027D00008603A48008800F4807039490988084048
:1027E000002866D04FF6FF6033490860081D006876
:1027F00000F40040002856D035480068401C344999
:10280000086008460068032850D92B48001F00685C
:1028100000F00800002849D12748001F006880B256
:102820002C490860002408E02B4901EB8400D0F813
:10283000000C80B24DF82400641C082CF4D3254809
:10284000006840F00100234908600846006880B233
:102850001949091F08601F48006820F001001D4940
:1028600008600846006880B21349091F086000BF6D
:102870001148006800F480600028F9D04FF6FF305E
:102880000D490860002408E05DF8240080B2124A77
:1028900002EB8401C1F8000C641C082CF4D3002066
:1028A0000B49086002E00020094908600720FEF794
:1028B0005BFD08B010BD0000445C004094000020A7
:1028C0008A01002096000020E8000020700100200E
:1028D000980000209C0000200050004010B5FFF739
:1028E00015FF10BD0020064908604FF43F40054920
:1028F0000880084600880249091F086000207047C8
:10290000445C00408A0100202DE9F04104460E4657
:10291000002504F07F00FEF72DFA054604F07F0045
:10292000FEF718FA07462A4639463046FEF712FCEB
:102930002846BDE8F08100BFFEE70000F0B5144670
:1029400004F1010C4FEA6C07DFF824C00CEB4103E3
:102950003D460AE00678401C90F800C046EA0C228A
:1029600023F8022B9B1C401C6D1E002DF2D1F0BDE4
:102970000060004070B504460025212C08D11248A3
:102980000068007800F07F0021280ED10F4D0CE088
:10299000202C0AD10C480068007800F07F00212824
:1029A00000D10B4D20200B4908700DB9022070BDDD
:1029B00005480068856100210348006841820020C5
:1029C000A8470020F3E7000080010020012A00084A
:1029D000912B0008D800002010B50446024920467B
:1029E000FFF780F810BD00004401002010B5044638
:1029F00002492046FFF776F810BD00003C01002098
:102A0000014629B90820034A126810820020704745
:102A10000148FCE780010020DC00002070B505467D
:102A200006480068C478042C01DD002070BD04480D
:102A300000EBC4012846FFF755F8F7E780010020B6
:102A40004C0100200246002901DD02207047012AC6
:102A500001DD0220FAE70020F8E7000001460848FF
:102A60000068007800F07F00212807D1022901D1F9
:102A700000207047222901D10020FAE70220F8E760
:102A80008001002010B5002034490968887234485C
:102A9000C079324909684872002030490968C87213
:102AA000FEF73CFD4FF400710020FEF731FE1021CF
:102AB0000020FEF7F3FD40210020FEF75FFD80219E
:102AC0000020FEF7CDFD0020FDF796FD254890F88B
:102AD0002C100020FEF764FD0020FEF7A7FD00216A
:102AE0000120FEF715FEC0210120FEF7B9FD2021CF
:102AF0000120FEF7D3FD00210120FEF777FD4FF402
:102B0000C0610220FEF704FE4FF480710220FEF740
:102B1000A7FD00210220FEF769FD20210220FEF71B
:102B2000BDFD00210320FEF7F3FD4FF48871032063
:102B3000FEF724FD40210320FEF732FD4FF4405103
:102B40000320FEF753FD00210320FEF7A7FD002020
:102B5000FEF7ECFC01200449086010BD8001002054
:102B60003E370008E80000206C0100200348817A0D
:102B700011B10521024A116070470000980200203F
:102B80006C01002004200149086070476C0100209E
:102B9000014629B90820034A1268108200207047B4
:102BA0000148FCE780010020DC0000200348007899
:102BB000202802D10020014908707047D800002069
:102BC0007047000010B5FEF7F7F8002005490968C6
:102BD0008872FEF7F9FAFFF785FE002002490860C7
:102BE00010BD0000800100206C01002070B504467B
:102BF00000F074F8051901E000F016F900F06EF825
:102C0000A842F9D370BD000070B54FF44070FEF7D4
:102C1000D3F9144800684FF47A72B0FBF2F1B1F1C5
:102C2000807F00D31DE021F07F40401E4FF0E02266
:102C3000506150170F22002807DA13071D0E0A4BA8
:102C400000F00F04241F1D5503E013071C0E074B53
:102C50001C5400BF00204FF0E0229061072010615B
:102C600000BF70BDA401002018ED00E000E400E00A
:102C700010B504462046FFF7B9FF10BD4FF4A06021
:102C8000FEF79AF94FF4E13202211048FFF746FCB3
:102C9000FEF72EF90221152000F026F80CA10B48B2
:102CA000FFF72FFCFFF7B0FF4FF4E130FEF716FC03
:102CB0000BE0FEF707FC40B1FEF71FFCC4B2204654
:102CC000FEF726FC0120FFF7D3FFF2E700440040A7
:102CD0004C56445F4943200A000000000148006848
:102CE0007047000000000020F8B505460C4605EBD3
:102CF0004500294951F8306005EB450001EBC00063
:102D0000808887B205EB4501234A02EBC101886840
:102D10000121FEF799FAADF800701CB904208DF876
:102D2000030034E0022C03D148208DF803002EE08C
:102D3000032C03D128208DF8030028E0012C06D1B4
:102D400010208DF8030003208DF802001FE0072CEF
:102D500006D114208DF8030003208DF8020016E040
:102D6000042C06D11C208DF8030003208DF80200EE
:102D70000DE0052C06D118208DF8030003208DF8F6
:102D8000020004E0062C02D100208DF80300694601
:102D90003046FDF7F9FEF8BD2C2E000830B504468C
:102DA0000A4803680A480078C01AC5B2A94200D987
:102DB0002946002205E00748C05CA054581CC3B255
:102DC000521C8A42F7D3084630BD00009C01002007
:102DD00098010020B40200202DE9F04106460F467C
:102DE00039463046FFF7DAFF05460C48008884B2C2
:102DF0006019C4B20948046009480078001B00F05B
:102E0000FF08B8F1000F06D10020064908700349F9
:102E10000860034908602846BDE8F0819C01002055
:102E200098010020A1010020704700000008014027
:102E3000010000000400000000000000000C004041
:102E40000000000000080140020000000400000033
:102E500001000000000000400400000000080140E4
:102E60000400000004000000020000000000004018
:102E700008000000000801400800000004000000F5
:102E800003000000000000400C00000000080140AA
:102E9000100000000400000004000000000000001A
:102EA00000000000000801402000000004000000B5
:102EB00005000000000000000000000000080140C4
:102EC0004000000004000000060000000004004074
:102ED0000000000000080140800000000400000025
:102EE000070000000004004004000000000801404A
:102EF000000100000400000000000000002C014060
:102F00000000000000080140000200000400000072
:102F100000000000002C01400400000000080140F7
:102F2000000400000400000000000000002C01402C
:102F30000800000000080140000800000400000034
:102F400000000000002C01400C00000000080140BF
:102F5000001000000400000000000000000000005D
:102F600000000000000801400020000004000000F4
:102F70000000000000000000000000000008014008
:102F800000400000040000000000000000000000FD
:102F90000000000000080140008000000400000064
:102FA000000000000000000000000000000C0140D4
:102FB00001000000080000000800000000040040BC
:102FC00008000000000C01400200000008000000A2
:102FD00009000000000400400C000000000C01404B
:102FE00004000000080000000000000000000000D5
:102FF00000000000000C0140080000000800000074
:10300000000000000000004004000000000C01402F
:103010001000000008000000000000000004004054
:1030200000000000000C014020000000080000002B
:10303000000000000004004004000000000C0140FB
:1030400040000000080000000000000000080040F0
:1030500000000000000C014080000000080000009B
:10306000000000000008004004000000000C0140C7
:1030700000010000080000000000000000500140B6
:1030800000000000000C01400002000008000000E9
:10309000000000000054014000000000000C01404E
:1030A00000040000080000000000000000000040D4
:1030B00008000000000C01400008000008000000AB
:1030C00000000000000000400C000000000C014067
:1030D00000100000080000000000000000000000D8
:1030E00000000000000C014000200000080000006B
:1030F000000000000000000000000000000C014083
:10310000004000000800000000000000001800401F
:1031100000000000000C01400080000008000000DA
:1031200000000000001800400400000000100140F2
:1031300001000000100000000A0000000000000074
:10314000000000000010014002000000100000001C
:103150000B00000000000000000000000010014013
:1031600004000000100000000C000000000000003F
:1031700000000000001001400800000010000000E6
:103180000D000000000000000000000000100140E1
:1031900010000000100000000E0000000000000001
:1031A000000000000010014020000000100000009E
:1031B0000E000000000000000000000000100140B0
:1031C000400000001000000000000000003401403A
:1031D000000000000010014080000000100000000E
:1031E0000000000000340140040000000010014015
:1031F0000001000010000000000000000034014049
:103200000800000000100140000200001000000053
:1032100000000000003401400C00000000100140DC
:10322000000400001000000000000000000000008A
:103230000000000000100140000800001000000025
:10324000000000000000000000000000001001402D
:10325000001000001000000000000000000000004E
:1032600000000000001001400020000010000000DD
:1032700000000000000000000000000000100140FD
:1032800000400000100000000000000000000000EE
:10329000000000000010014000800000100000004D
:1032A00000000000000000000000000000140140C9
:1032B00001000000200000000000000000000000ED
:1032C0000000000000140140020000002000000087
:1032D0000000000000000000000000000014014099
:1032E00004000000200000000000000000000000BA
:1032F0000000000000140140080000002000000051
:103300000000000000000000000000000014014068
:10331000100000002000000000000000000000007D
:103320000000000000140140200000002000000008
:103330000000000000000000000000000014014038
:10334000400000002000000000000000000000001D
:103350000000000000140140800000002000000078
:103360000000000000000000000000000014014008
:10337000000100002000000000000000000000002C
:1033800000000000001401400002000020000000C6
:1033900000000000000000000000000000140140D8
:1033A00000040000200000000000000000000000F9
:1033B0000000000000140140000800002000000090
:1033C00000000000000000000000000000140140A8
:1033D0000010000020000000000000000008004075
:1033E0000000000000140140002000002000000048
:1033F000000000000008004004000000001401402C
:103400000040000020000000000000000008004014
:1034100008000000001401400080000020000000AF
:1034200000000000000800400C00000000180140EF
:10343000010000004000000000000000000000004B
:1034400000000000001801400200000040000000E1
:103450000000000000000000000000000018014013
:103460000400000040000000000000000000000018
:1034700000000000001801400800000040000000AB
:1034800000000000000000000000000000180140E3
:1034900010000000400000000000000000000000DC
:1034A0000000000000180140200000004000000063
:1034B0000000000000100040000000000018014063
:1034C000400000004000000000000000001000402C
:1034D00004000000001801408000000040000000CF
:1034E0000000000000000000000000000018014083
:1034F000000100004000000000000000000000008B
:103500000000000000180140000200004000000020
:1035100000000000002C01400000000000180140E5
:103520000004000040000000000000000000000057
:1035300000000000001801400008000040000000EA
:1035400000000000002C01400400000000180140B1
:10355000001000004000000000000000000000001B
:1035600000000000001801400020000040000000A2
:1035700000000000002C014008000000001801407D
:10358000004000004000000000000000002C01404E
:103590000C00000000180140008000004000000006
:1035A000000000000000000000000000001C0140BE
:1035B000010000008000000000000000000000008A
:1035C00000000000001C014002000000800000001C
:1035D000000000000000000000000000001C01408E
:1035E0000400000080000000000000000000000057
:1035F00000000000001C01400800000080000000E6
:10360000000000000000000000000000001C01405D
:10361000100000008000000000000000000000001A
:1036200000000000001C014020000000800000009D
:10363000000000000000000000000000001C01402D
:1036400040000000800000000000000000000000BA
:1036500000000000001C014080000000800000000D
:10366000000000000000000000000000001C0140FD
:1036700000010000800000000000000000000000C9
:1036800000000000001C014000020000800000005B
:10369000000000000000000000000000001C0140CD
:1036A0000004000080000000000000000000000096
:1036B00000000000001C0140000800008000000025
:1036C000000000000000000000000000001C01409D
:1036D000001000008000000000000000000000005A
:1036E00000000000001C01400020000080000000DD
:1036F000000000000000000000000000001C01406D
:1037000000400000800000000000000000000000F9
:1037100000000000001C014000800000800000004C
:103720000000000000000000000000001201000284
:103730000200004083044057000201020301090215
:103740004300020100C0320904000001020201002E
:1037500005240010010524010001042402020524AF
:10376000060001070582030800FF09040100020AA0
:103770000000000705030240000007058102400029
:1037800000040309042603530054004D006900633C
:103790000072006F0065006C0065006300740072C9
:1037A000006F006E00690063007300320353005421
:1037B000004D003300320020005600690072007492
:1037C00000750061006C00200043004F004D002098
:1037D0000050006F00720074002000200000000004
:1037E0000038000800000020B80100006C0100084B
:1037F000B4380008B8010020A0080000C801000883
:10380000011013B8017320209AD80C9AF80C8B1869
:10381000020C9A380C9A580C812D010203040440C2
:10382000090607080902040608141A035312541261
:103830004D123302213213390A0C1C08470F040AB7
:103840001179244143C0DA120823040113C52B1453
:1038500008852A1B08AD081AC1041375291B085DC9
:10386000101A45041AED0C1AD9041A1D0C413240E5
:1038700029441A6D280916741A851C132C3733082D
:10388000121A3E0832431A810832041A8508322679
:103890001AAB0829E2227473201A198B01211AFF2E
:1038A00001D12BA24A574940000800020304060731
:0438B0000809000003
:0400000508000131BD
:00000001FF
