:020000040800F2
:10000000B0070020D1010008C10C0008D905000884
:10001000BD0C000863030008F5160008000000008E
:100020000000000000000000000000008D0E00082D
:100030008103000800000000350D0008A10F000832
:10004000EB010008EB010008EB010008EB010008E0
:10005000EB010008EB010008EB010008EB010008D0
:10006000EB010008EB010008EB010008EB010008C0
:10007000EB010008EB010008EB010008EB010008B0
:10008000EB010008EB010008EB010008EB010008A0
:10009000EB010008EB010008EB010008EB01000890
:1000A000EB010008EB010008EB010008EB01000880
:1000B000EB010008EB010008EB010008EB01000870
:1000C000EB010008EB010008EB010008EB01000860
:1000D000EB0100087510000825110008D91100086F
:1000E000EB010008EB010008EB010008EB01000840
:1000F000EB010008EB010008EB010008EB01000830
:10010000EB010008EB010008EB010008EB0100081F
:100110000510000841100008EB010008EB01000881
:10012000EB010008EB010008EB010008EB010008FF
:1001300000F002F800F03CF80AA090E8000C8244BD
:100140008344AAF10107DA4501D100F031F8AFF29A
:10015000090EBAE80F0013F0010F18BFFB1A43F0A5
:1001600001031847C8200000E8200000103A24BF0F
:1001700078C878C1FAD8520724BF30C830C144BF0C
:1001800004680C607047000000230024002500264E
:10019000103A28BF78C1FBD8520728BF30C148BFEA
:1001A0000B607047002070471FB51FBD10B510BD14
:1001B00000F0A0F81146FFF7F7FF01F017FB00F081
:1001C000BEF803B4FFF7F2FF03BC00F0C3F8000071
:1001D0000948804709480047FEE7FEE7FEE7FEE7DB
:1001E000FEE7FEE7FEE7FEE7FEE7FEE70448054917
:1001F000054A064B70470000A50F000831010008B2
:10020000B0010020B0070020B0030020B0030020A0
:100210000FB4044910B503AA029800F03DF810BCD1
:100220005DF814FB140000202DE9F0410E46044651
:10023000002020622046E168884730B3252805D099
:10024000D4E901219047206A401CF2E7E16820468A
:1002500000278847050018D0A5F14100192802D8C9
:1002600020354FF400673246294620462760FFF7C5
:1002700099FF40B1012804D0F61D26F00706083684
:10028000D8E7361DD6E72846DAE7206ABDE8F081D0
:100290007047704770470000074B70B50D467B44B0
:1002A00000F011F80446284600F020F810B14FF095
:1002B000FF3070BD204670BD3315000001694A1C37
:1002C00002610878704700B58FB0CDE90131002197
:1002D000059105497944CDE9031011466846FFF7B9
:1002E000A3FF0FB000BD0000E5FFFFFF007B00F0A3
:1002F00080007047754600F029F8AE460500694653
:10030000534620F00700854618B020B5FFF76EFF72
:10031000BDE820404FF000064FF000074FF0000806
:100320004FF0000B21F00701AC46ACE8C009ACE887
:10033000C009ACE8C009ACE8C0098D467047044666
:10034000AFF300802046FFF73CFF000000487047F5
:100350004C01002001491820ABBEFEE72600020038
:10036000704700BFFEE7000010B5034A01210348B3
:1003700000F024FB10BD0000A086010000540040E6
:1003800070472DE9F0410246002500260020002399
:100390000024002791F803C00CF00F0591F803C06A
:1003A0000CF0100CBCF1000F03D091F802C04CEA25
:1003B000050591F800C0BCF1000F31D01468002091
:1003C0002BE04FF0010C0CFA00F3B1F800C00CEA7E
:1003D00003069E4220D183004FF00F0C0CFA03F766
:1003E000BC4305FA03FC4CEA040491F803C0BCF1D9
:1003F000280F06D14FF0010C0CFA00FCC2F814C013
:100400000AE091F803C0BCF1480F05D14FF0010C90
:100410000CFA00FCC2F810C0401C0828D1D31460AC
:10042000B1F800C0BCF1FF0F34DD546800202EE0AD
:1004300000F1080C4FF0010808FA0CF3B1F800C005
:100440000CEA03069E4221D183004FF00F0C0CFAF8
:1004500003F7BC4305FA03FC4CEA040491F803C01B
:10046000BCF1280F05D100F1080C08FA0CF8C2F80D
:10047000148091F803C0BCF1480F07D100F1080CBB
:100480004FF0010808FA0CF8C2F81080401C082848
:10049000CED35460BDE8F081F0B50A4600230024B5
:1004A0000021002500F00046B6F1004F02D11D4E9C
:1004B000F16901E01B4E7168C0F3034583B200F49B
:1004C0004016B6F5401F08D121F07061154E7668D0
:1004D00026F07066134F7E6012E000F48016B6F5C9
:1004E000801F06D1032606FA05F4A14341F070618E
:1004F00006E0460D360103FA06F6B14341F070619D
:1005000022B1460D360103FA06F6314300F00046EB
:10051000B6F1004F02D1034EF16101E0014E71606E
:10052000F0BD000000000140F8B504460D46164637
:100530001F462148844204D10121042000F01CFC04
:100540002EE01E48844204D10121082000F014FC52
:1005500026E01B48844204D10121102000F00CFC4D
:100560001EE01848844204D10121202000F004FC40
:1005700016E01548844204D10121402000F0FCFB24
:100580000EE01248844204D10121802000F0F4FBE7
:1005900006E00F48844203D10121801500F0ECFBF6
:1005A000ADF800508DF803608DF802706946204662
:1005B000FFF7E7FEF8BD000000080140000C014015
:1005C000001001400014014000180140001C0140CF
:1005D000002001400161704700BFFEE710B50446EE
:1005E0000121082000F0C8FB34B9C0201049088060
:1005F0001048FFF7C6FE1AE0012C0BD14FF44070F3
:100600000B4908800B48FFF7BCFE01210220FFF7D1
:1006100043FF0CE0022C0AD14FF41070044908800B
:100620000448FFF7AEFE01210220FFF735FF10BDA1
:1006300004000020000C014010B50446032C09D131
:100640000121082000F098FBA0020349088003481C
:10065000FFF797FE10BD000004000020000C0140D1
:1006600021B1028842F48062028004E002884FF6E1
:10067000FF331A400280704770B5024600240025FF
:1006800000230020958A138B1B0445EA030626F0FD
:100690007F4404EA01068E4201D1012000E00020DF
:1006A00070BD21B1028842F00102028004E002889C
:1006B0004FF6FE731A400280704721B1028842F45F
:1006C0008072028004E002884FF6FF631A400280C5
:1006D000704721B1028842F40072028004E002886F
:1006E0004FF6FF531A40028070470CB502460020B7
:1006F00000230193009300920B0F019321F07F419F
:10070000019B1BB1009B1433009303E0090C009B79
:1007100018330093009B1B680B400BB1012000E0D5
:1007200000200CBD2DE9F04385B004460D4600269F
:10073000B1460427DFF8CC80A6884FF6C07006408B
:10074000684600F039FBDDF808802F48B8FBF0F070
:100750001FFA80F946EA0906A68020884FF6FE7146
:100760000840208000262949286888420CD828683B
:100770004000B8FBF0F087B2042F00DA04273E43B4
:1007800009F10100208427E0E8884BF6FF718842D8
:1007900006D1286800EB4000B8FBF0F087B209E012
:1007A000286800EBC00101EB0010B8FBF0F087B245
:1007B00047F48047C7F30B0008B947F0010747F437
:1007C000004006434FF4967009FB00F04FF47A7135
:1007D00090FBF1F0401C2084A683208840F00100AB
:1007E000208026884FF6F5300640A888698908439E
:1007F00006432680A88929890843208105B0BDE8E1
:10080000F083000000127A0040420F00A086010031
:1008100012B141F0010102E04FF6FE73194001826E
:1008200070470182704700002DE9F04105460F46F0
:1008300014461E4601212846FFF73FFF44F620607C
:100840002949086008E028480068401E26490860D9
:1008500010B90120BDE8F08124492846FFF745FF83
:1008600018B9214800680028EDD11EB101212048A7
:10087000FFF7F6FE224639462846FFF7C9FFBCB906
:1008800044F620601849086007E017480068401ED9
:100890001549086008B90120DCE71449491C2846BD
:1008A000FFF723FFE0B9104800680028EDD117E0FA
:1008B000012C15D144F620600B49086007E00A4876
:1008C0000068401E0849086008B90120C2E70949CC
:1008D0002846FFF7D1FE18B9034800680028EED17A
:1008E000288B0020B6E70000000000200100001067
:1008F000005400400200030010B5044644F6206096
:100900000F49086007E00E480068401E0C49086067
:1009100008B9012010BD0B492046FFF7E6FE28B1BB
:1009200008497C392046FFF7E0FE18B90448006802
:100930000028E8D101212046FFF7CBFE0020E9E79F
:1009400000000020800000102DE9F04106460F460F
:1009500014461D4600231A4639463046FFF764FF09
:100960002146304600F00AF82946304600F006F8E5
:100970003046FFF7C1FFBDE8F081000070B50446C6
:100980000D4644F620600B49086004E00948006801
:10099000401E0849086008492046FFF7A6FE18B91E
:1009A000044800680028F1D129462046FFF739FFA6
:1009B00070BD000000000020800000107FB50446DC
:1009C0000E4615460121084600F0D6F91C202249A2
:1009D000C870032088702148844216D1012148053F
:1009E00000F0AAF93046FFF7F9FD00952014ADF8A4
:1009F0000C000020ADF80400ADF80800ADF80A00C6
:100A00004BF6FF70ADF8060018E01548844215D18A
:100A10000121880500F090F93046FFF70DFE0095A2
:100A20002014ADF80C000020ADF80400ADF808006B
:100A3000ADF80A004BF6FF70ADF806000021204625
:100A4000FFF72FFE69462046FFF76CFE0121204686
:100A5000FFF727FE7FBD0000040000200054004087
:100A60000058004070B506460C461546054806700D
:100A7000054804700548057000200549087000F01D
:100A800013F870BD080000200C0000200D000020AD
:100A90000F00002010B5082002490870002000F067
:100AA00083F810BD0F00002010B500202849087001
:100AB00028480078012804DD0846007840F0080046
:100AC00008702548007848B122480078012805D1EF
:100AD0001F48007840F004001D490870322000F0E3
:100AE0002DFE1E48007800F05FF84FF47A7000F099
:100AF00025FE302000F0C9F841F2941000F044FEC9
:100B0000302000F0C2F841F2941000F03DFE302099
:100B100000F0BBF8962000F037FE202000F0B5F87A
:100B20000B49097841F0200000F027F804200C4917
:100B3000087000F029F800F017F802200949087041
:100B4000097841F0040000F018F800F041F810BDF9
:100B5000090000200D0000200E0000200F000020E2
:100B60000A0000200B00002010B5012000F005F85D
:100B70004FF4FA6000F008FE10BD10B504460021E5
:100B8000204600F04CF810BD10B50648007840F043
:100B9000040004490870097841F00800FFF7EDFFF0
:100BA00010BD00000A00002010B50446054800787A
:100BB00044EA00030022044801780448FFF7C4FE19
:100BC00010BD00000F00002008000020005400406D
:100BD00010B50220FFF7D1FF4FF4FA6000F0D4FD0A
:100BE00010BD70B50446002504E0605D00F046F8D5
:100BF000681CC5B2605D0028F7D170BD10B5044611
:100C000044F00400FFF7D0FF012000F0BDFD24F008
:100C10000400FFF7C9FF322000F0B6FD10BD2DE93A
:100C2000F04104460D4604F0F006F02000EA0417F7
:100C300046EA050000F029F847EA050000F025F82B
:100C4000BDE8F0817FB505460C460A4B0FCB8DE819
:100C50000F0009480078844203DD07480078401EF1
:100C6000C4B21DF824102944C9B241F08000FFF736
:100C700084FF7FBD1C1900080D00002010B504463C
:100C800001212046FFF7CBFF10BD10B504462046DA
:100C9000FFF78AFF2046FFF7B1FF10BD10B5032311
:100CA000102251020448FFF73FFC4FF40051024864
:100CB000FFF790FC10BD00000010014000BFFEE7F0
:100CC0007047000070B5002100230F22C47804B3E0
:100CD000154C246804F4E064C4F5E064210AC1F111
:100CE0000403CA40447804FA03F184781440214391
:100CF00009010E4C0678A155047804F01F05012463
:100D0000AC4005786D11AD0005F1E025C5F8004156
:100D100009E0047804F01F050124AC40044D067876
:100D2000761145F8264070BD0CED00E000E400E0CF
:100D300080E100E07047000029B1064AD269024311
:100D4000044BDA6104E0034AD2698243014BDA6161
:100D5000704700000010024029B1064A12690243A0
:100D6000044B1A6104E0034A12698243014B1A6181
:100D7000704700000010024029B1064A9269024300
:100D8000044B9A6104E0034A92698243014B9A61E1
:100D9000704700000010024029B1064AD2680243A1
:100DA000044BDA6004E0034AD2688243014BDA6004
:100DB000704700000010024030B5002100220024DE
:100DC00000232D4D6D6805F00C0121B1042905D0DB
:100DD000082923D105E0294D056022E0274D056053
:100DE0001FE0254D6D6805F47012234D6D6805F404
:100DF0008034022505EB92421CB9214D5543056014
:100E00000BE01D4D6D6805F400351DB11C4D5543BB
:100E1000056002E0194D5543056002E0174D05607D
:100E200000BF00BF144D6D6805F0F0010909154DB4
:100E30006B5C0568DD4045600F4D6D6805F4E06151
:100E4000090A104D6B5C4568DD4085600A4D6D6890
:100E500005F46051C90A0B4D6B5C4568DD40C56007
:100E6000054D6D6805F44041890B074D6B5CC56805
:100E7000B5FBF3F5056130BD0010024000127A00A9
:100E800000093D006400002074000020704710B588
:100E900000F002F810BD00000CB500200190009099
:100EA0003348006840F480303149086000BF304862
:100EB000006800F4003000900198401C01900098F8
:100EC00018B90198B0F5A06FF1D12948006800F475
:100ED000003010B10120009001E000200090009847
:100EE000012843D12348006840F0100021490860E0
:100EF0000846006820F0030008600846006840F0DB
:100F0000020008601A48406819494860084640686D
:100F100048600846406840F4806048600846406881
:100F200020F47C1048600846406840F4E8104860AF
:100F30000846006840F08070086000BF0C480068F8
:100F400000F000700028F9D00948406820F0030044
:100F5000074948600846406840F00200486000BF0A
:100F60000348406800F00C000828F9D10CBD0000CF
:100F70000010024000200240042808D14FF0E02178
:100F8000096941F004014FF0E022116107E04FF0E0
:100F9000E021096921F004014FF0E022116170475E
:100FA0007047000010B51348006840F00100114977
:100FB000086008464068104908400E4948600846E5
:100FC00000680E4908400B4908600846006820F494
:100FD000802008600846406820F4FE0048604FF416
:100FE0001F008860FFF753FF4FF00060044908605E
:100FF00010BD0000001002400000FFF8FFFFF6FEE9
:1010000008ED00E010B540F22551064800F0C9F99E
:1010100030B10448001D0088C1B2034800F00CFA4A
:1010200010BD0000004C00403C00002010B50446FC
:101030000121C804FFF780FE072C00D000BF10BDBF
:1010400010B540F22551054800F0ABF928B103482E
:101050008088C1B2024800F0EFF910BD0050004096
:101060004800002010B5044601210805FFF764FE82
:1010700010BD000010B540F22551064800F091F96E
:1010800030B10448001D0088C1B2034800F0D4F913
:1010900010BD0000003801401800002010B50446C3
:1010A000E4B901210520FFF767FE01218803FFF75E
:1010B00063FE4FF40070184908801820C8700320A0
:1010C00088701648FFF75DF94FF480601249088078
:1010D0000420C8701148FFF754F91BE0012C19D106
:1010E00001210820FFF748FE01218803FFF744FE95
:1010F0004020094908801820C870032088700848DB
:10110000FFF73FF98020044908800420C870044894
:10111000FFF737F910BD0000600000200008014013
:10112000000C014010B540F22551064800F039F995
:1011300030B10448001D0088C1B2034800F07CF9BA
:1011400010BD0000004400402400002010B50446FB
:1011500001214804FFF7F0FD022C1AD101210420DF
:10116000FFF70AFE01214804FFF7E6FD04201749B6
:1011700008801820C870032088701548FFF701F90F
:101180000820124908800420C8701148FFF7F9F8B8
:101190001BE0032C19D101212020FFF7EDFD0121D7
:1011A0004804FFF7C9FD2020084908801820C870AE
:1011B000032088700748FFF7E4F8402003490880BF
:1011C0000420C8700348FFF7DCF810BD6000002061
:1011D000000801400014014010B540F225510648B6
:1011E00000F0DFF830B10448001D0088C1B20348A8
:1011F00000F022F910BD000000480040300000203F
:1012000010B5044601218804FFF796FD042C1AD17D
:1012100001210820FFF7B0FD01218804FFF7ACFD94
:101220002002284908801820C870032088702648AA
:10123000FFF7A7F86002234908800420C8702248FD
:10124000FFF79FF83CE0052C1CD101211020FFF78F
:1012500093FD01218804FFF78FFD4FF48060194949
:1012600008801820C870032088701848FFF789F894
:101270004FF40060134908800420C8701348FFF73A
:1012800080F81DE0062C1BD101212020FFF774FD02
:1012900001218804FFF770FD4FF480700949088030
:1012A0001820C870032088700948FFF76AF84FF4C7
:1012B0000070044908800420C8700548FFF761F8F1
:1012C00010BD000060000020000C01400010014033
:1012D0000014014021B1828942F40052828104E06D
:1012E00082894DF6FF731A408281704710B504461B
:1012F0002048844209D101218803FFF74DFD0021D8
:101300004FF48040FFF748FD32E01B48844209D18A
:1013100001214804FFF720FD00214FF40030FFF7C2
:101320001BFD25E01548844209D101218804FFF7FF
:1013300013FD00214FF48020FFF70EFD18E0104848
:10134000844209D10121C804FFF706FD00214FF4B2
:101350000020FFF701FD0BE00A48844208D101217B
:101360000805FFF7F9FC00214FF48010FFF7F4FCAB
:1013700010BD00000038014000440040004800401B
:10138000004C00400050004002460020B1F5007FB4
:1013900000D100BF13880B400BB1012000E00020FA
:1013A000704770B50246002400230025002040F657
:1013B0006A16B14200D100BFC1F3421501F01F030C
:1013C000012606FA03F3012D02D19689334006E087
:1013D000022D02D1168A334001E0968A33400C1266
:1013E000012606FA04F41688344013B10CB101202A
:1013F00000E0002070BD000001460A4A914200D181
:101400000020094A914200D10120084A914200D1AE
:101410000220074A914200D10420064A914200D19D
:10142000052070470038014000440040004800405B
:10143000004C00400050004010B5C28883889A429A
:101440000FDA028983889A4201D1002202814AB2CE
:10145000048903681A550289521C0281C288521CF1
:10146000C28010BDF0B503460024002600250020F0
:1014700040F66A17B94200D100BF1846C1F34214C2
:1014800001F01F06012707FA06F5012C01D10C30E7
:1014900004E0022C01D1103000E014301AB10768CA
:1014A0002F43076002E00768AF430760F0BD00000C
:1014B0002DE9F04786B005460E460024A24600BF3F
:1014C000A1460027B08900B100BF2F462C8A4CF6F8
:1014D000FF700440F08804432C82AC894EF6F31070
:1014E0000440B08831890843718908430443AC81C2
:1014F000AC8A4FF6FF400440B0890443AC8201A897
:10150000FFF75AFC1F48874202D1DDF810A001E026
:10151000DDF80CA0A88900F4004040B10AEBCA0035
:1015200000EB0A1031684900B0FBF1F807E00AEB64
:10153000CA0000EB0A1031688900B0FBF1F86420A2
:10154000B8FBF0F004012009642101FB1089A8898F
:1015500000F4004040B1322000EBC900B0FBF1F0D4
:1015600000F00700044308E0322000EB091064217A
:10157000B0FBF1F000F00F0004432C8106B0BDE891
:10158000F08700000038014013B5044600BF8021F9
:101590002046FFF7F9FE0028F9D09DF80400A0804E
:1015A0001CBD000070B586B004460D4616460121EC
:1015B0000846FFF7E1FB02964948844212D12846CB
:1015C000FFF76CFD25208DF804000020ADF8140015
:1015D0000C20ADF812000020ADF81000ADF80E00A0
:1015E000ADF80C003F48844212D12846FFF7AEFD0B
:1015F00026208DF804000020ADF814000C20ADF872
:1016000012000020ADF81000ADF80E00ADF80C008F
:101610003548844212D12846FFF7F2FD27208DF885
:1016200004000020ADF814000C20ADF812000020DA
:10163000ADF81000ADF80E00ADF80C002B48844258
:1016400012D12846FFF7F2FC34208DF80400002068
:10165000ADF814000C20ADF812000020ADF8100019
:10166000ADF80E00ADF80C002148844212D1284696
:10167000FFF7F8FC35208DF804000020ADF81400C9
:101680000C20ADF812000020ADF81000ADF80E00EF
:10169000ADF80C0000212046FFF71CFE2046FFF7A6
:1016A00025FE02A92046FFF703FF01212046FFF790
:1016B00011FE012240F225512046FFF7D3FE012002
:1016C0008DF8070000208DF805002046FFF794FEF6
:1016D0008DF8060001A8FFF7F5FA06B070BD00000E
:1016E000003801400044004000480040004C0040E9
:1016F0000050004000BFFEE710B56FF00400FFF798
:101700003BFC0A4800680A49B0FBF1F0094908703F
:101710000846007800EB4001C1EBC0104FF6FF71A6
:1017200001EAC0000449088010BD000078000020D4
:1017300000127A0010000020120000200146114A19
:1017400012884A434FF0E0235A6100229A611A46F8
:10175000126942F001021A6100BF4FF0E0221069E5
:1017600000F001021AB100F48032002AF5D04FF0E7
:10177000E022126922F001024FF0E0231A610022F8
:101780009A617047120000200146114A12784A43BC
:101790004FF0E0235A6100229A611A46126942F022
:1017A00001021A6100BF4FF0E022106900F001024F
:1017B0001AB100F48032002AF5D04FF0E02212690D
:1017C00022F001024FF0E0231A6100229A61704773
:1017D0001000002070B504460D46E1B20248FFF744
:1017E000D3FE204670BD00000044004008B500BF95
:1017F00000BF0020009000BF00BFFFF74FFAFFF7C7
:101800007BFF0121152000F02FF80021162000F0A9
:101810002BF84FF4E13202210E48FFF7C3FE0EA071
:10182000FEF7F6FCFEF7A0FD40F21450FFF786FF2E
:10183000022210217E20FFF715F9FFF72BF9FFF7A1
:1018400093F900210220FFF7FDF905A0FFF7C9F980
:1018500000BFFEE7004400406162630D0A00000023
:1018600048656C6C6F202100F8B505460C4605EB09
:101870004500294951F8306005EB450001EBC000F7
:10188000808887B205EB4501234A02EBC1018868D5
:101890000121FFF771FAADF800701CB904208DF832
:1018A000030034E0022C03D148208DF803002EE021
:1018B000032C03D128208DF8030028E0012C06D149
:1018C00010208DF8030003208DF802001FE0072C84
:1018D00006D114208DF8030003208DF8020016E0D5
:1018E000042C06D11C208DF8030003208DF8020083
:1018F0000DE0052C06D118208DF8030003208DF88B
:10190000020004E0062C02D100208DF80300694695
:101910003046FEF736FDF8BD2C1900080000000027
:1019200040000000140000005400000000080140C6
:10193000010000000400000000000000000C004056
:101940000000000000080140020000000400000048
:1019500001000000000000400400000000080140F9
:10196000040000000400000002000000000000402D
:10197000080000000008014008000000040000000A
:1019800003000000000000400C00000000080140BF
:10199000100000000400000004000000000000002F
:1019A00000000000000801402000000004000000CA
:1019B00005000000000000000000000000080140D9
:1019C0004000000004000000060000000004004089
:1019D000000000000008014080000000040000003A
:1019E000070000000004004004000000000801405F
:1019F000000100000400000000000000002C014075
:101A00000000000000080140000200000400000087
:101A100000000000002C014004000000000801400C
:101A2000000400000400000000000000002C014041
:101A30000800000000080140000800000400000049
:101A400000000000002C01400C00000000080140D4
:101A50000010000004000000000000000000000072
:101A60000000000000080140002000000400000009
:101A7000000000000000000000000000000801401D
:101A80000040000004000000000000000000000012
:101A90000000000000080140008000000400000079
:101AA000000000000000000000000000000C0140E9
:101AB00001000000080000000800000000040040D1
:101AC00008000000000C01400200000008000000B7
:101AD00009000000000400400C000000000C014060
:101AE00004000000080000000000000000000000EA
:101AF00000000000000C0140080000000800000089
:101B0000000000000000004004000000000C014044
:101B10001000000008000000000000000004004069
:101B200000000000000C0140200000000800000040
:101B3000000000000004004004000000000C014010
:101B40004000000008000000000000000008004005
:101B500000000000000C01408000000008000000B0
:101B6000000000000008004004000000000C0140DC
:101B700000010000080000000000000000500140CB
:101B800000000000000C01400002000008000000FE
:101B9000000000000054014000000000000C014063
:101BA00000040000080000000000000000000040E9
:101BB00008000000000C01400008000008000000C0
:101BC00000000000000000400C000000000C01407C
:101BD00000100000080000000000000000000000ED
:101BE00000000000000C0140002000000800000080
:101BF000000000000000000000000000000C014098
:101C00000040000008000000000000000018004034
:101C100000000000000C01400080000008000000EF
:101C20000000000000180040040000000010014007
:101C300001000000100000000A0000000000000089
:101C40000000000000100140020000001000000031
:101C50000B00000000000000000000000010014028
:101C600004000000100000000C0000000000000054
:101C700000000000001001400800000010000000FB
:101C80000D000000000000000000000000100140F6
:101C900010000000100000000E0000000000000016
:101CA00000000000001001402000000010000000B3
:101CB0000E000000000000000000000000100140C5
:101CC000400000001000000000000000003401404F
:101CD0000000000000100140800000001000000023
:101CE000000000000034014004000000001001402A
:101CF000000100001000000000000000003401405E
:101D00000800000000100140000200001000000068
:101D100000000000003401400C00000000100140F1
:101D2000000400001000000000000000000000009F
:101D3000000000000010014000080000100000003A
:101D40000000000000000000000000000010014042
:101D50000010000010000000000000000000000063
:101D600000000000001001400020000010000000F2
:101D70000000000000000000000000000010014012
:101D80000040000010000000000000000000000003
:101D90000000000000100140008000001000000062
:101DA00000000000000000000000000000140140DE
:101DB0000100000020000000000000000000000002
:101DC000000000000014014002000000200000009C
:101DD00000000000000000000000000000140140AE
:101DE00004000000200000000000000000000000CF
:101DF0000000000000140140080000002000000066
:101E0000000000000000000000000000001401407D
:101E10001000000020000000000000000000000092
:101E2000000000000014014020000000200000001D
:101E3000000000000000000000000000001401404D
:101E40004000000020000000000000000000000032
:101E5000000000000014014080000000200000008D
:101E6000000000000000000000000000001401401D
:101E70000001000020000000000000000000000041
:101E800000000000001401400002000020000000DB
:101E900000000000000000000000000000140140ED
:101EA000000400002000000000000000000000000E
:101EB00000000000001401400008000020000000A5
:101EC00000000000000000000000000000140140BD
:101ED000001000002000000000000000000800408A
:101EE000000000000014014000200000200000005D
:101EF0000000000000080040040000000014014041
:101F00000040000020000000000000000008004029
:101F100008000000001401400080000020000000C4
:101F200000000000000800400C0000000018014004
:101F30000100000040000000000000000000000060
:101F400000000000001801400200000040000000F6
:101F50000000000000000000000000000018014028
:101F6000040000004000000000000000000000002D
:101F700000000000001801400800000040000000C0
:101F800000000000000000000000000000180140F8
:101F900010000000400000000000000000000000F1
:101FA0000000000000180140200000004000000078
:101FB0000000000000100040000000000018014078
:101FC0004000000040000000000000000010004041
:101FD00004000000001801408000000040000000E4
:101FE0000000000000000000000000000018014098
:101FF00000010000400000000000000000000000A0
:102000000000000000180140000200004000000035
:1020100000000000002C01400000000000180140FA
:10202000000400004000000000000000000000006C
:1020300000000000001801400008000040000000FF
:1020400000000000002C01400400000000180140C6
:102050000010000040000000000000000000000030
:1020600000000000001801400020000040000000B7
:1020700000000000002C0140080000000018014092
:10208000004000004000000000000000002C014063
:102090000C0000000018014000800000400000001B
:1020A000000000000000000000000000001C0140D3
:1020B000010000008000000000000000000000009F
:1020C00000000000001C0140020000008000000031
:1020D000000000000000000000000000001C0140A3
:1020E000040000008000000000000000000000006C
:1020F00000000000001C01400800000080000000FB
:10210000000000000000000000000000001C014072
:10211000100000008000000000000000000000002F
:1021200000000000001C01402000000080000000B2
:10213000000000000000000000000000001C014042
:1021400040000000800000000000000000000000CF
:1021500000000000001C0140800000008000000022
:10216000000000000000000000000000001C014012
:1021700000010000800000000000000000000000DE
:1021800000000000001C0140000200008000000070
:10219000000000000000000000000000001C0140E2
:1021A00000040000800000000000000000000000AB
:1021B00000000000001C014000080000800000003A
:1021C000000000000000000000000000001C0140B2
:1021D000001000008000000000000000000000006F
:1021E00000000000001C01400020000080000000F2
:1021F000000000000000000000000000001C014082
:10220000004000008000000000000000000000000E
:1022100000000000001C0140008000008000000061
:102220000000000000000000000000004C22000838
:10223000000000208C0000006C010008D82200087B
:102240008C00002024070000880100080000000026
:10225000000000000000000000000000000000007E
:10226000000000008C0000202000000000000000A2
:10227000AC0000202000000000000000CC00002086
:102280002000000000000000EC0000202000000002
:10229000000000000C0100202000000000000000F1
:1022A0002C010020200000000000000000000000C1
:1022B00000000000010203040102030406070809EC
:1022C0000204060800A24A0400000000000000000A
:0822D0000102030406070809DE
:0400000508000131BD
:00000001FF
