:020000040800F2
:10000000D8070020D50100081D09000815090008BF
:1000100019090008F907000871180008000000001D
:10002000000000000000000000000000410F000878
:10003000FD070008000000009D0900086910000885
:10004000EF010008EF010008EF010008890C00082B
:10005000EF010008EF010008EF010008EF010008C0
:10006000EF010008EF010008EF010008EF010008B0
:10007000EF010008EF010008EF010008EF010008A0
:10008000EF010008EF010008EF010008EF01000890
:10009000EF010008EF010008EF010008EF01000880
:1000A000EF010008EF010008EF010008EF01000870
:1000B000EF010008EF010008EF010008EF01000860
:1000C000EF010008EF010008EF010008EF01000850
:1000D000EF010008F9110008A91200085D130008DB
:1000E000EF010008EF010008EF010008EF01000830
:1000F000EF010008EF010008EF010008EF01000820
:10010000EF010008EF010008EF010008EF0100080F
:1001100089110008C5110008EF010008EF0100086F
:10012000EF010008EF010008EF010008EF010008EF
:1001300000F002F800F03FF80AA090E8000C8244BA
:100140008344AAF10107DA4501D100F034F8AFF297
:10015000090EBAE80F0013F0010F18BFFB1A43F0A5
:1001600001031847DC210000FC210000103A24BFE5
:1001700078C878C1FAD8520724BF30C830C144BF0C
:1001800004680C607047000000230024002500264E
:10019000103A28BF78C1FBD8520728BF30C148BFEA
:1001A0000B607047642900F07580002070471FB510
:1001B0001FBD10B510BD00F0C3FA1146FFF7F7FFE1
:1001C00001F0ACFB00F0E1FA03B4FFF7F2FF03BC6F
:1001D00000F0E6FA0948804709480047FEE7FEE7D5
:1001E000FEE7FEE7FEE7FEE7FEE7FEE7FEE7FEE7E7
:1001F00004480549054A064B704700006D10000889
:1002000031010008D8010020D8070020D8030020C1
:10021000D80300200FB4044910B503AA029800F0D7
:1002200005FA10BC5DF814FB040000202DE9F04134
:100230000E460446002020622046E168884730B31D
:10024000252805D0D4E901219047206A401CF2E717
:10025000E168204600278847050018D0A5F1410035
:10026000192802D820354FF4006732462946204627
:100270002760FFF797FF40B1012804D0F61D26F054
:1002800007060836D8E7361DD6E72846DAE7206A9B
:10029000BDE8F0812DE9F04106460024106875297B
:1002A000314616A510D0AFF30080002802DA404294
:1002B00013A507E031688A0701D512A502E04907B6
:1002C00004D511A5012401E0AFF3008000210A222A
:1002D00006F1240709E0B0FBF2FCB0FBF2F302FBED
:1002E0001C00303078541846491C0028F3D12346AE
:1002F0002A463046BDE8F04100F03FB9000000005A
:100300002D0000002B0000002000000010B5203A56
:10031000C0F00B80B1E81850203AA0E81850B1E8BE
:100320001850A0E81850BFF4F5AF5FEA027C24BF74
:10033000B1E81850A0E8185044BF18C918C0BDE86B
:1003400010405FEA827C24BF51F8043B40F8043B34
:1003500008BF7047D20728BF31F8023B48BF11F8E9
:10036000012B28BF20F8023B48BF00F8012B704743
:100370004FF0000200B5134694469646203922BF3E
:10038000A0E80C50A0E80C50B1F12001BFF4F7AF89
:10039000090728BFA0E80C5048BF0CC05DF804EB6B
:1003A000890028BF40F8042B08BF704748BF20F8D9
:1003B000022B11F0804F18BF00F8012B704700008E
:1003C000014900F045B900004801002010B503685C
:1003D0001C1404EB21449BB289B2194494FBF2F340
:1003E00002FB134394FBF2F401EB034393FBF2F1A2
:1003F00002FB113193FBF2F301E05B1E1144002973
:10040000FBDB016003EB044010BD2DE9F04704461F
:100410004FF0FF3A86B00068029060680390A068D1
:100420000490E068019020690090656905F18040C2
:10043000B0F1004F7DD83C22002102A8FFF7C6FF93
:100440003C22014603A8FFF7C1FF1822014604A879
:10045000FFF7BCFF411E40F2B55201A8FFF7B6FFFF
:100460000C22064668460021FFF7B0FF00EB86002D
:1004700028443E4D00267D440FE09A1A491CCDE9E0
:100480000012022902D00C2907D104E0810704D010
:10049000521C019201E0401C00960099019B6A5C8D
:1004A0009A42EADD012906D11C2B04D1810702D032
:1004B0000221CDE90016A0F146018B2940D2019915
:1004C000009B00220F4602E0AE5C521C31449A426F
:1004D000FADB012B02DD820700D0491E40F2B55540
:1004E00040F26D16C21700EB927292106A4300F050
:1004F000030505FB062285070A4400D1521E049D10
:1005000002EB4206DDF80C80A94605EBC605184E45
:10051000C5EB0515DDF808C008EB850535442E143C
:10052000ADB2C6EB0616C5EB0515B6000CEB85059E
:1005300000E005E006EB154666F31F45360C03D0D8
:10054000504606B0BDE8F087C4E904307F1C0720A0
:10055000521CC4E9029792FBF0F3E4E806C800FBE2
:10056000132084E803042846EBE70000BA1E0000CD
:10057000A039CEFD7047704770472DE9F0470D4612
:1005800099469246044600F124080168880604D57D
:10059000E06921F01001216000E00120A84201DDA6
:1005A000471B00E00027A1697A1902EB0900081A2D
:1005B000A0612078C00602D42046AFF30080002658
:1005C00008E0D4E901211AF806009047206A401C8F
:1005D000761C20624E45F4DB2078C0060AD5204602
:1005E000AFF3008006E0D4E9012130209047206A73
:1005F000401C2062381EA7F10107F4DC07E0D4E9B3
:10060000012118F805009047206A401C2062281E2E
:10061000A5F10105F3DC2046AFF300802078000649
:1006200002D50220BDE8F0870120FBE7074B70B53B
:100630000D467B4400F06DF80446284600F07CF837
:1006400010B14FF0FF3070BD204670BDCF120000DA
:1006500070B50C46016800204A1C3ED03C22B1FB1C
:10066000F2F302FB1313B1FBF2F12360B1FBF2F3DF
:1006700002FB1313B1FBF2F118226360B1FBF2F33A
:1006800002FB1313B1FBF2F146F2E0320A440721F8
:10069000A360B2FBF1F301FB132140F2B553B2FBAF
:1006A000F3F5A161B2FBF3F103FB15228900B2F56A
:1006B000B77F08D39B10521EB2FBF3F52944B2FB5F
:1006C000F3F503FB15220F4BE261616189077B445F
:1006D0000CD03B2A0AD3521C08E02C212046FFF7FD
:1006E00047FE0120E0600AE0521A401C195C91426A
:1006F000FAD9521CC4E903204FF0FF302062204693
:1007000070BD0000621C000001694A1C026108788B
:10071000704700B58FB0CDE9013100210591054941
:100720007944CDE9031011466846FFF77FFD0FB00D
:1007300000BD0000E5FFFFFF007B00F08000704778
:10074000754600F029F8AE4605006946534620F08C
:100750000700854618B020B5FFF74AFDBDE82040E8
:100760004FF000064FF000074FF000084FF0000B6D
:1007700021F00701AC46ACE8C009ACE8C009ACE820
:10078000C009ACE8C0098D4670470446AFF300804D
:100790002046FFF719FD0000004870477401002053
:1007A00001491820ABBEFEE726000200704710B5D5
:1007B000012000F035F9002000F032F910BD0000F2
:1007C00008B50146002000900348009000980844B6
:1007D00000900098008808BD006C004008B5002219
:1007E0000092044A0092009A02440092009A11601A
:1007F00008BD0000006C004000BFFEE770472DE917
:10080000F041024600250026002000230024002796
:1008100091F803C00CF00F0591F803C00CF0100C18
:10082000BCF1000F03D091F802C04CEA050591F825
:1008300000C0BCF1000F31D0146800202BE04FF055
:10084000010C0CFA00F3B1F800C00CEA03069E425A
:1008500020D183004FF00F0C0CFA03F7BC4305FACC
:1008600003FC4CEA040491F803C0BCF1280F06D144
:100870004FF0010C0CFA00FCC2F814C00AE091F829
:1008800003C0BCF1480F05D14FF0010C0CFA00FC7D
:10089000C2F810C0401C0828D1D31460B1F800C0C1
:1008A000BCF1FF0F34DD546800202EE000F1080C8D
:1008B0004FF0010808FA0CF3B1F800C00CEA030687
:1008C0009E4221D183004FF00F0C0CFA03F7BC437A
:1008D00005FA03FC4CEA040491F803C0BCF1280FAC
:1008E00005D100F1080C08FA0CF8C2F8148091F850
:1008F00003C0BCF1480F07D100F1080C4FF001080C
:1009000008FA0CF8C2F81080401C0828CED35460B6
:10091000BDE8F08100BFFEE700BFFEE770470000C2
:1009200070B5002100230F22C47804B3154C24684D
:1009300004F4E064C4F5E064210AC1F10403CA4090
:10094000447804FA03F184781440214309010E4CE1
:100950000678A155047804F01F050124AC40057801
:100960006D11AD0005F1E025C5F8004109E00478FE
:1009700004F01F050124AC40044D0678761145F8BB
:10098000264070BD0CED00E000E400E080E100E0F6
:10099000014908627047000000000E4270470000E5
:1009A00029B1064AD2690243044BDA6104E0034AE2
:1009B000D2698243014BDA617047000000100240A7
:1009C00029B1064A12690243044B1A6104E0034A42
:1009D00012698243014B1A61704700000010024007
:1009E00029B1064A92690243044B9A6104E0034A22
:1009F00092698243014B9A617047000000100240E7
:100A000029B1064AD2680243044BDA6004E0034A83
:100A1000D2688243014BDA60704700000010024048
:100A200001490860704700004004424230B500218F
:100A30000022002400232D4D6D6805F00C0121B12A
:100A4000042905D0082923D105E0294D056022E0BD
:100A5000274D05601FE0254D6D6805F47012234D8C
:100A60006D6805F48034022505EB92421CB9214DD6
:100A7000554305600BE01D4D6D6805F400351DB153
:100A80001C4D5543056002E0194D5543056002E0D9
:100A9000174D056000BF00BF144D6D6805F0F001F3
:100AA0000909154D6B5C0568DD4045600F4D6D68AB
:100AB00005F4E061090A104D6B5C4568DD40856016
:100AC0000A4D6D6805F46051C90A0B4D6B5C4568B1
:100AD000DD40C560054D6D6805F44041890B074D4B
:100AE0006B5CC568B5FBF3F5056130BD00100240D5
:100AF00000127A0000093D0054000020640000202C
:100B000010B501460022002300204A11012A02D11B
:100B1000094C236806E0022A02D1074C236A01E04F
:100B2000054C636A01F01F02012494401C400CB183
:100B3000012000E0002010BD0010024000210B4AFF
:100B400011700A4A203A82F82010012802D00428A5
:100B500008D103E00121054A117004E00521034A90
:100B6000117000E000BF00BF70470000201002407D
:100B700001490860704700003C0442420249096A8A
:100B80000143014A11627047001002402DE9F04311
:100B900093B004460D4616461F46DDE91A892C21FE
:100BA00008A8FFF7E5FB0D96681E0C900B940A97BA
:100BB000CDF82480CDF8209001214FF0C050FFF7F0
:100BC000EFFE0120FFF7E4FE1C220CA96846FFF7A8
:100BD0009DFB08A80FC800F0A6FA002013B0BDE8DE
:100BE000F0830000024909888143014A118070475F
:100BF000042800400348008840F0100001490880A4
:100C00007047000004280040034800884FF6EF7149
:100C100008400149088070470428004000B58BB0A7
:100C2000684600F06FFA09490698087205988880AE
:100C30000498401C88710398C87102980870019844
:100C400048700098887000200BB000BD7C00002028
:100C5000002103480188001F008841EA00407047D6
:100C60001C28004001460020064A12880A40D0B2E3
:100C7000044A121F12880A4012B108B1012000E094
:100C800000207047042800401FB50120FFF7EAFF4D
:100C9000A0B1FFF7C3FF1B4880781A494978194A69
:100CA0001278184B9B88CDE90032CDE90210154827
:100CB0008379C279017A14A0FFF7ACFA0220FFF71A
:100CC000D1FFC8B100F020F90220FFF78BFFFFF73A
:100CD000A5FF0C4880780B4949780A4A1278094BDD
:100CE000DB79CDE90032CDE90210064883798288AC
:100CF000017A0CA0FFF78EFA0520FFF773FF00F0D2
:100D000003F91FBD7C00002054696D653A202564FD
:100D10002025642D25642D25642025643A25643A18
:100D200025640A00416C61726D2054696D653A203A
:100D300025642025642D25642D25642025643A250D
:100D4000643A25640A00000029B1064A1288024369
:100D5000044B1A8004E0034A12888243014B1A8034
:100D6000704700000028004010B5002401214FF01A
:100D7000C050FFF715FE0120FFF70AFE0420FFF721
:100D80001FFD45F25001884239D0FFF710FD0120C8
:100D9000FFF7D4FE04E0601CC4B20A2000F08CFD12
:100DA0004120FFF7ADFE08B9FA2CF4DBFA2C01DB89
:100DB000012010BD4FF48070FFF7E0FE0120FFF727
:100DC000D7FE00F0A1F800F0A9F801210846FFF7CE
:100DD000BBFF01210220FFF7B7FF00F095F8FFF7F6
:100DE00009FF47F6FF7000F07FF800F08DF8FFF77D
:100DF0000BFF45F250010420FFF7F0FC0BE000F080
:100E00008DF801210846FFF79FFF01210220FFF71F
:100E10009BFF00F079F800F004F8FFF7FFFE0020D8
:100E2000C7E708B503208DF8000000208DF8010009
:100E30008DF8020001208DF803006846FFF770FD71
:100E400029208DF8000000208DF8010001208DF888
:100E500003006846FFF764FD08BD2DE9F04393B039
:100E600004460D4616461F46DDE91A892C2108A8BE
:100E7000FFF77EFA0D96681E0C900B940A97CDF83A
:100E80002480CDF8209001214FF0C050FFF788FD5D
:100E90000120FFF77DFD1C220CA96846FFF736FAFA
:100EA00008A80FC800F052F9002013B0BDE8F08385
:100EB00000B50246FFF79EFE100C03490880091D8D
:100EC0000A80FFF7A1FE00BD2028004000B50246C1
:100ED000FFF790FE100C03490880091D0A80FFF7F8
:100EE00093FE00BD1828004000B50246FFF782FEC1
:100EF000C2F3034003490880091D0A80FFF784FEFE
:100F000000BD00000828004000BF0348008800F032
:100F100020000028F9D070470428004007480088C6
:100F20004FF6F77108400549088000BF0348008864
:100F300000F008000028F9D07047000004280040A5
:100F4000704710B500F002F810BD00000CB500208D
:100F5000019000903348006840F4803031490860C7
:100F600000BF3048006800F4003000900198401C39
:100F70000190009818B90198B0F5A06FF1D12948F7
:100F8000006800F4003010B10120009001E0002062
:100F900000900098012843D12348006840F01000D9
:100FA000214908600846006820F0030008600846F0
:100FB000006840F0020008601A484068194948601B
:100FC0000846406848600846406840F480604860D1
:100FD0000846406820F47C1048600846406840F4A9
:100FE000E81048600846006840F08070086000BF64
:100FF0000C48006800F000700028F9D009484068EB
:1010000020F00300074948600846406840F00200AD
:10101000486000BF0348406800F00C000828F9D180
:101020000CBD0000001002400020024010B5044634
:10103000FFF76AFF2046FFF73BFFFFF765FF10BD94
:10104000042808D14FF0E021096941F004014FF074
:10105000E022116107E04FF0E021096921F004016D
:101060004FF0E022116170477047000010B513483F
:10107000006840F0010011490860084640681049C6
:1010800008400E494860084600680E4908400B4970
:1010900008600846006820F4802008600846406820
:1010A00020F4FE0048604FF41F008860FFF749FFFE
:1010B0004FF000600449086010BD000000100240BD
:1010C0000000FFF8FFFFF6FE08ED00E00FB410B5DA
:1010D0000798A0F26C70079002A8FFF796F910BC71
:1010E0005DF814FB73B5054601A8FFF769F90446DE
:1010F000606900F26C7060612C2221462846FFF77F
:1011000005F97CBD30B58BB00446FFF7A1FD05465F
:1011100029466846FFF7E6FF2C2269462046FFF77E
:10112000F5F80BB030BD0FB410B588B01C220EA975
:101130006846FFF7EBF80AA80FC8FFF7C7FF044699
:10114000FFF774FF08B010BC5DF814FB0FB410B5C6
:1011500088B01C220EA96846FFF7D8F80AA80FC865
:10116000FFF7B4FF044600F004F808B010BC5DF8C7
:1011700014FB10B50446FFF7C7FE2046FFF7A6FE96
:10118000FFF7C2FE10BD000010B540F22551064821
:1011900000F0C9F930B10448001D0088C1B203480D
:1011A00000F00CFA10BD0000004C00402C000020A4
:1011B00010B504460121C804FFF7F2FB072C00D04C
:1011C00000BF10BD10B540F22551054800F0ABF945
:1011D00028B103488088C1B2024800F0EFF910BD81
:1011E000005000403800002010B5044601210805D9
:1011F000FFF7D6FB10BD000010B540F225510648A0
:1012000000F091F930B10448001D0088C1B20348D4
:1012100000F0D4F910BD00000038014008000020A3
:1012200010B50446E4B901210520FFF7D9FB0121DF
:101230008803FFF7D5FB4FF4007018490880182089
:10124000C870032088701648FFF7D9FA4FF4806001
:10125000124908800420C8701148FFF7D0FA1BE03B
:10126000012C19D101210820FFF7BAFB01218803C5
:10127000FFF7B6FB4020094908801820C8700320FA
:1012800088700848FFF7BBFA8020044908800420D2
:10129000C8700448FFF7B3FA10BD000050000020EA
:1012A00000080140000C014010B540F225510648ED
:1012B00000F039F930B10448001D0088C1B203487C
:1012C00000F07CF910BD0000004400401400002034
:1012D00010B5044601214804FFF762FB022C1AD125
:1012E00001210420FFF77CFB01214804FFF758FB94
:1012F0000420174908801820C870032088701548FA
:10130000FFF77DFA0820124908800420C8701148B0
:10131000FFF775FA1BE0032C19D101212020FFF7FC
:101320005FFB01214804FFF73BFB202008490880B0
:101330001820C870032088700748FFF760FA402023
:10134000034908800420C8700348FFF758FA10BD0D
:1013500050000020000801400014014010B540F288
:101360002551064800F0DFF830B10448001D008820
:10137000C1B2034800F022F910BD0000004800404F
:101380002000002010B5044601218804FFF708FB67
:10139000042C1AD101210820FFF722FB0121880427
:1013A000FFF71EFB2002284908801820C870032080
:1013B00088702648FFF723FA60022349088004203A
:1013C000C8702248FFF71BFA3CE0052C1CD1012114
:1013D0001020FFF705FB01218804FFF701FB4FF404
:1013E0008060194908801820C87003208870184848
:1013F000FFF705FA4FF40060134908800420C87015
:101400001348FFF7FCF91DE0062C1BD10121202019
:10141000FFF7E6FA01218804FFF7E2FA4FF4807043
:10142000094908801820C870032088700948FFF710
:10143000E6F94FF40070044908800420C87005489C
:10144000FFF7DDF910BD000050000020000C014046
:10145000001001400014014021B1828942F4005281
:10146000828104E082894DF6FF731A4082817047C1
:1014700010B504462048844209D101218803FFF7B2
:10148000BFFA00214FF48040FFF7BAFA32E01B4860
:10149000844209D101214804FFF792FA00214FF458
:1014A0000030FFF78DFA25E01548844209D101216B
:1014B0008804FFF785FA00214FF48020FFF780FAB7
:1014C00018E01048844209D10121C804FFF778FAD6
:1014D00000214FF40020FFF773FA0BE00A48844222
:1014E00008D101210805FFF76BFA00214FF48010A5
:1014F000FFF766FA10BD00000038014000440040CC
:1015000000480040004C00400050004002460020CF
:10151000B1F5007F00D100BF13880B400BB1012053
:1015200000E00020704770B502460024002300252B
:10153000002040F66A16B14200D100BFC1F3421547
:1015400001F01F03012606FA03F3012D02D196894B
:10155000334006E0022D02D1168A334001E0968A1C
:1015600033400C12012606FA04F41688344013B1F5
:101570000CB1012000E0002070BD000001460A4AC5
:10158000914200D10020094A914200D10120084A2D
:10159000914200D10220074A914200D10420064A1C
:1015A000914200D1052070470038014000440040BE
:1015B00000480040004C00400050004010B5C28878
:1015C00083889A420FDA028983889A4201D10022E5
:1015D00002814AB2048903681A550289521C0281A9
:1015E000C288521CC28010BDF0B5034600240026FC
:1015F0000025002040F66A17B94200D100BF184606
:10160000C1F3421401F01F06012707FA06F5012C69
:1016100001D10C3004E0022C01D1103000E0143074
:101620001AB107682F43076002E00768AF430760FD
:10163000F0BD00002DE9F04786B005460E460024B7
:10164000A24600BFA1460027B08900B100BF2F46C7
:101650002C8A4CF6FF700440F08804432C82AC893D
:101660004EF6F3100440B08831890843718908436D
:101670000443AC81AC8A4FF6FF400440B089044378
:10168000AC8201A8FFF7D2F91F48874202D1DDF8EA
:1016900010A001E0DDF80CA0A88900F4004040B1E2
:1016A0000AEBCA0000EB0A1031684900B0FBF1F800
:1016B00007E00AEBCA0000EB0A1031688900B0FBB2
:1016C000F1F86420B8FBF0F004012009642101FB6B
:1016D0001089A88900F4004040B1322000EBC90015
:1016E000B0FBF1F000F00700044308E0322000EB0B
:1016F00009106421B0FBF1F000F00F0004432C81CD
:1017000006B0BDE8F08700000038014013B504467C
:1017100000BF80212046FFF7F9FE0028F9D09DF890
:101720000400A0801CBD000070B586B004460D46C4
:10173000164602964948844212D12846FFF770FDAA
:1017400025208DF804000020ADF814000C20ADF821
:1017500012000020ADF81000ADF80E00ADF80C003E
:101760003F48844212D12846FFF7B2FD26208DF86B
:1017700004000020ADF814000C20ADF81200002089
:10178000ADF81000ADF80E00ADF80C0035488442FD
:1017900012D12846FFF7F6FD27208DF8040000201F
:1017A000ADF814000C20ADF812000020ADF81000C8
:1017B000ADF80E00ADF80C002B48844212D128463B
:1017C000FFF7F6FC34208DF804000020ADF814007B
:1017D0000C20ADF812000020ADF81000ADF80E009E
:1017E000ADF80C002148844212D12846FFF7FCFCDA
:1017F00035208DF804000020ADF814000C20ADF861
:1018000012000020ADF81000ADF80E00ADF80C008D
:1018100000212046FFF720FE2046FFF729FE02A9FF
:101820002046FFF707FF01212046FFF715FE0122A2
:1018300040F225512046FFF7D7FE01208DF8070022
:1018400000208DF805002046FFF798FE8DF8060071
:1018500001A8FFF765F806B070BD00000038014030
:101860000044004000480040004C00400050004050
:1018700000BFFEE710B56FF00400FFF7E1FB0A4878
:1018800000680A49B0FBF1F0094908700846007881
:1018900000EB4001C1EBC0104FF6FF7101EAC00040
:1018A0000449088010BD00006800002000127A0082
:1018B00000000020020000200146114A12884A431D
:1018C0004FF0E0235A6100229A611A46126942F0F1
:1018D00001021A6100BF4FF0E022106900F001021E
:1018E0001AB100F48032002AF5D04FF0E0221269DC
:1018F00022F001024FF0E0231A6100229A61704742
:101900000200002070B504460D46E1B20248FFF720
:10191000FDFE204670BD0000003801401CB5FFF7F9
:10192000A9FF0121152000F02BF80021162000F05E
:1019300027F8FFF719FA37202A21172340F2E4721B
:10194000CDE9001004211920FFF787FA4FF4FA704F
:10195000FFF7B2FF05202B21172340F2E472CDE9F7
:10196000001004211920FFF711F94FF4E132002192
:101970000248FFF7D9FE00BFFEE700000038014033
:10198000F8B505460C4605EB4500294951F830608D
:1019900005EB450001EBC000808887B205EB4501EF
:1019A000234A02EBC10188680121FFF719F8ADF85D
:1019B00000701CB904208DF8030034E0022C03D120
:1019C00048208DF803002EE0032C03D128208DF849
:1019D000030028E0012C06D110208DF8030003201D
:1019E0008DF802001FE0072C06D114208DF80300AB
:1019F00003208DF8020016E0042C06D11C208DF87F
:101A0000030003208DF802000DE0052C06D11820FC
:101A10008DF8030003208DF8020004E0062C02D1AB
:101A200000208DF8030069463046FEF7E8FEF8BD59
:101A3000341A000800080140010000000400000002
:101A400000000000000C0040000000000008014001
:101A5000020000000400000001000000000000403F
:101A60000400000000080140040000000400000021
:101A700002000000000000400800000000080140D3
:101A80000800000004000000030000000000004007
:101A90000C000000000801401000000004000000DD
:101AA00004000000000000000000000000080140E9
:101AB00020000000040000000500000000000000FD
:101AC0000000000000080140400000000400000089
:101AD0000600000000040040000000000008014073
:101AE0008000000004000000070000000004004027
:101AF0000400000000080140000100000400000094
:101B000000000000002C014000000000000801401F
:101B1000000200000400000000000000002C014052
:101B20000400000000080140000400000400000060
:101B300000000000002C01400800000000080140E7
:101B4000000800000400000000000000002C01401C
:101B50000C0000000008014000100000040000001C
:101B6000000000000000000000000000000801402C
:101B70000020000004000000000000000000000041
:101B800000000000000801400040000004000000C8
:101B900000000000000000000000000000080140FC
:101BA00000800000040000000000000000000000B1
:101BB00000000000000C01400100000008000000CF
:101BC000080000000004004008000000000C014074
:101BD00002000000080000000900000000040040AE
:101BE0000C000000000C0140040000000800000090
:101BF000000000000000000000000000000C014098
:101C00000800000008000000000000000000004084
:101C100004000000000C014010000000080000005B
:101C2000000000000004004000000000000C014023
:101C30002000000008000000000000000004004038
:101C400004000000000C01404000000008000000FB
:101C5000000000000008004000000000000C0140EF
:101C600080000000080000000000000000080040A4
:101C700004000000000C014000010000080000000A
:101C8000000000000050014000000000000C014076
:101C900000020000080000000000000000540140A5
:101CA00000000000000C01400004000008000000DB
:101CB000000000000000004008000000000C01408F
:101CC00000080000080000000000000000000040C4
:101CD0000C000000000C0140001000000800000093
:101CE000000000000000000000000000000C0140A7
:101CF00000200000080000000000000000000000BC
:101D000000000000000C014000400000080000003E
:101D1000000000000018004000000000000C01401E
:101D200000800000080000000000000000180040D3
:101D3000040000000010014001000000100000003D
:101D40000A00000000000000000000000010014038
:101D500002000000100000000B0000000000000066
:101D6000000000000010014004000000100000000E
:101D70000C00000000000000000000000010014006
:101D800008000000100000000D000000000000002E
:101D900000000000001001401000000010000000D2
:101DA0000E000000000000000000000000100140D4
:101DB00020000000100000000E00000000000000E5
:101DC0000000000000100140400000001000000072
:101DD000000000000034014000000000001001403D
:101DE00080000000100000000000000000340140EE
:101DF000040000000010014000010000100000007D
:101E00000000000000340140080000000010014004
:101E1000000200001000000000000000003401403B
:101E20000C00000000100140000400001000000041
:101E30000000000000000000000000000010014051
:101E4000000800001000000000000000000000007A
:101E50000000000000100140001000001000000011
:101E60000000000000000000000000000010014021
:101E70000020000010000000000000000000000032
:101E800000000000001001400040000010000000B1
:101E900000000000000000000000000000100140F1
:101EA00000800000100000000000000000000000A2
:101EB00000000000001401400100000020000000AC
:101EC00000000000000000000000000000140140BD
:101ED00002000000200000000000000000000000E0
:101EE0000000000000140140040000002000000079
:101EF000000000000000000000000000001401408D
:101F000008000000200000000000000000000000A9
:101F1000000000000014014010000000200000003C
:101F2000000000000000000000000000001401405C
:101F30002000000020000000000000000000000061
:101F400000000000001401404000000020000000DC
:101F5000000000000000000000000000001401402C
:101F600080000000200000000000000000000000D1
:101F700000000000001401400001000020000000EB
:101F800000000000000000000000000000140140FC
:101F9000000200002000000000000000000000001F
:101FA00000000000001401400004000020000000B8
:101FB00000000000000000000000000000140140CC
:101FC00000080000200000000000000000000000E9
:101FD000000000000014014000100000200000007C
:101FE0000000000000080040000000000014014054
:101FF0000020000020000000000000000008004059
:102000000400000000140140004000002000000017
:10201000000000000008004008000000001401401B
:1020200000800000200000000000000000080040C8
:102030000C000000001801400100000040000000FA
:102040000000000000000000000000000018014037
:10205000020000004000000000000000000000003E
:1020600000000000001801400400000040000000D3
:102070000000000000000000000000000018014007
:102080000800000040000000000000000000000008
:102090000000000000180140100000004000000097
:1020A00000000000000000000000000000180140D7
:1020B0002000000040000000000000000010004070
:1020C0000000000000180140400000004000000037
:1020D0000000000000100040040000000018014053
:1020E0008000000040000000000000000000000030
:1020F0000000000000180140000100004000000046
:102100000000000000000000000000000018014076
:10211000000200004000000000000000002C014010
:102120000000000000180140000400004000000012
:102130000000000000000000000000000018014046
:10214000000800004000000000000000002C0140DA
:1021500004000000001801400010000040000000D2
:102160000000000000000000000000000018014016
:10217000002000004000000000000000002C014092
:10218000080000000018014000400000400000006E
:1021900000000000002C01400C000000001801406D
:1021A000008000004000000000000000000000006F
:1021B00000000000001C0140010000008000000041
:1021C000000000000000000000000000001C0140B2
:1021D000020000008000000000000000000000007D
:1021E00000000000001C014004000000800000000E
:1021F000000000000000000000000000001C014082
:102200000800000080000000000000000000000046
:1022100000000000001C01401000000080000000D1
:10222000000000000000000000000000001C014051
:1022300020000000800000000000000000000000FE
:1022400000000000001C0140400000008000000071
:10225000000000000000000000000000001C014021
:10226000800000008000000000000000000000006E
:1022700000000000001C0140000100008000000080
:10228000000000000000000000000000001C0140F1
:1022900000020000800000000000000000000000BC
:1022A00000000000001C014000040000800000004D
:1022B000000000000000000000000000001C0140C1
:1022C0000008000080000000000000000000000086
:1022D00000000000001C0140001000008000000011
:1022E000000000000000000000000000001C014091
:1022F000002000008000000000000000000000003E
:1023000000000000001C01400040000080000000B0
:10231000000000000000000000000000001C014060
:1023200000800000800000000000000000000000AD
:10233000000000001F1D1F1E1F1E1F1F1E1F1E1F2F
:1023400060230008000000207C0000006C010008F1
:10235000DC2300087C0000205C07000088010008E6
:1023600000000000000000008600002020000000A7
:1023700000000000A6000020200000000000000077
:10238000C60000202000000000000000E600002041
:1023900020000000000000000601002020000000D6
:1023A00000000000260100202000000000000000C6
:1023B0000000000000000000010203040102030409
:1023C000060708090204060800A24A0400000000EB
:0C23D000000000000102030406070809D9
:0400000508000131BD
:00000001FF
