:020000040800F2
:10000000B0070020F9010008532400084B24000821
:100010004F2400082F230008C52F0008000000000F
:100020000000000000000000000000001D26000885
:100030003323000800000000C52400083127000811
:10004000130200081302000813020008130200083C
:10005000130200081302000813020008130200082C
:10006000130200081302000813020008130200081C
:10007000130200081302000813020008130200080C
:1000800013020008130200081302000813020008FC
:1000900013020008130200081302000813020008EC
:1000A00013020008130200081302000813020008DC
:1000B00013020008130200081302000813020008CC
:1000C00013020008130200081302000813020008BC
:1000D0001302000805280008B5280008692900084F
:1000E000130200081302000813020008130200089C
:1000F000130200081302000813020008130200088C
:10010000130200081302000813020008130200087B
:1001100095270008D12700081302000813020008E1
:10012000130200081302000813020008130200085B
:1001300000F002F800F050F80AA090E8000C8244A9
:100140008344AAF10107DA4501D100F045F8AFF286
:10015000090EBAE80F0013F0010F18BFFB1A43F0A5
:1001600001031847A4360000C4360000103A24BF2B
:1001700078C878C1FAD8520724BF30C830C144BF0C
:1001800004680C607047000000230024002500264E
:10019000103A28BF78C1FBD8520728BF30C148BFEA
:1001A0000B607047662903F06582642900F078804F
:1001B000002070471FB500F00DFF04000020002153
:1001C00003F084F8401C60600020002103F068F810
:1001D000E0601FBD10B510BD01F0DAF91146FFF760
:1001E000E9FF03F007F801F033FC03B4FFF7F2FF77
:1001F00003BC01F087FC000009488047094800471C
:10020000FEE7FEE7FEE7FEE7FEE7FEE7FEE7FEE7C6
:10021000FEE7FEE704480549054A064B7047000023
:100220003527000831010008B0010020B007002088
:10023000B0030020B00300200FB4044910B503AA96
:10024000029800F01FFC10BC5DF814FB04000020B5
:1002500070B5044685690068C10601D5302600E006
:100260002026C00707D070BDD4E901213046904751
:10027000206A401C20626D1EF6D570BD70B5044624
:1002800085690078C00707D170BDD4E9012120201D
:100290009047206A401C20626D1EF6D570BD00009C
:1002A0002DE9F0410646002410687529314616A54F
:1002B00010D0AFF30080002802DA404213A507E017
:1002C00031688A0701D512A502E0490704D511A5B6
:1002D000012401E0AFF3008000210A2206F1240787
:1002E00009E0B0FBF2FCB0FBF2F302FB1C00303083
:1002F00078541846491C0028F3D123462A46304634
:10030000BDE8F04100F057B9000000002D000000EA
:100310002B000000200000002DE9F0474FF0000AFC
:1003200089460446C0F820A02046E1688847002896
:1003300076D0252806D0D4E901219047206A401CB8
:100340002062F1E7E168204600258847C4F81CA038
:1003500006460027C4F818A02A2E09D0304602F01D
:10036000AEFE38B304EB8708303EC8F8186019E0D9
:1003700059F8041B204604EB87029161E168884725
:10038000012F064618D1E069002820DA25F0200563
:100390001DE0D8F8180000EB800006EB4000303874
:1003A000C8F818002046E1688847064602F087FE34
:1003B0000028EED1012F0AD02E2E08D12046E16868
:1003C00088477F1C0646022F45F02005C4DBA06944
:1003D000002803DA404245F00105A061E80701D09A
:1003E00025F01005B6B1A6F14100192802D8203633
:1003F00045F400654A463146204625604D46FFF7E4
:10040000D1FE58B1012806D0ED1D25F0070000F1FE
:10041000080989E704E005F1040985E730468AE721
:10042000206ABDE8F08700000FB400B58DB010A9B8
:10043000099000910B904FF0FF300A9000200C9033
:10044000064878440690064878446A4607900F9913
:1004500009A800F08FFD0DB05DF814FB4F0B0000F4
:10046000670B00002DE9FF5F1D464FF0FF3B9146F3
:100470004FF000085F46D5E90146A96901987F1C45
:100480008847296A824688470028F6D1BAF1FF3F9B
:100490000CD0002E24F4C06419DD600614D5BAF126
:1004A0002B0F09D0BAF12D0F0ED103E0584604B03E
:1004B000BDE8F09F44F48064A96901987F1C8847D7
:1004C000761E8246002E02DDBAF1300F03D0B9F15C
:1004D000000F26D032E0A969761E01987F1C44F4F3
:1004E00000748847002E824605DDBAF1780F06D0E9
:1004F000BAF1580F03D0B9F1000F10D01EE0B9F1D6
:10050000000F02D0B9F1100F18D1A969761E019819
:100510007F1C24F4007488478246102002E00820E3
:1005200000E00A20814609E0A96908FB0908761E57
:1005300001987F1C44F4007488478246002E05DD34
:100540004946504600F0B0FA0028EDDAE969019812
:100550008847A00502D46FF00100A8E7E00725D185
:10056000600613D5600502D5C8F1000000E04046E2
:1005700029680A1D2A600968220501D5087015E05E
:10058000220701D5088011E008600FE02868011DEE
:1005900029600068210502D580F8008006E0210767
:1005A00002D5A0F8008001E0C0F8008038467EE760
:1005B0007047704770472DE9F0470D4699469246BF
:1005C000044600F124080168880604D5E06921F09A
:1005D0001001216000E00120A84201DD471B00E07E
:1005E0000027A1697A1902EB0900081AA061207896
:1005F000C00602D42046FFF72BFE002608E0D4E90F
:1006000001211AF806009047206A401C761C2062DF
:100610004E45F4DB2078C0060AD52046FFF718FEC9
:1006200006E0D4E9012130209047206A401C206276
:10063000381EA7F10107F4DC07E0D4E9012118F81E
:1006400005009047206A401C2062281EA5F1010584
:10065000F3DC2046FFF712FE2078000602D50220C8
:10066000BDE8F0870120FBE770472DE9FF4F0C46FE
:100670001E464FF0FF378BB0D2E90001DDF86080F5
:100680000A908A46C1F30A5505B93D46002108463D
:100690004FF00000BAF1000F00F4400005DA00EB63
:1006A00080004FF4400101EA50004FEA9059B9F13F
:1006B000010F00DDB9460A9850EA4A000ED044F610
:1006C0001050A5F2FF3545432F14B8F1000F1ED08E
:1006D0007542291E1EDDC9F100021CE0B8F1010FB0
:1006E0004FF0000001D0302103E0F24305E0215437
:1006F000401CB042FBDB30460022002121540B9904
:10070000C1F80880C1E900200FB0BDE8F08FBD1B23
:100710006D1CDEE74A4600DA694206A800F0C2FE18
:1007200006AB93E8070003AB83E8070050460A993D
:1007300001F0EFF98DE80700A0F500501F38009098
:100740000398002D09DD42F21F014A46084403A91F
:100750000390684601F079FC08E0A0F500504A4695
:100760001F3803A90390684601F097FC8DE8070045
:100770000004000C03D04FF0FF30410800E01046A9
:10078000B8F1000F03D00022009215461EE0751E3E
:1007900005D400F027FC303262556D1EF9D5B34602
:1007A0000122084302D000227F1C04E02078302878
:1007B00001D100227F1E002A099786D01DE0112D4D
:1007C00007DA00F00FFC303262556D1C50EA01026E
:1007D000F5D1084302D00098C8B10EE00021681E90
:1007E00005E0235C625C63542254401E491C814234
:1007F000F7DBAB46A81B401E0990002004F80B0055
:100800000B98099AC0F80880C0E9002B7CE71126F4
:100810004FF0000859E72DE9F04F88460446D21DF5
:1008200022F0070191B0D1E90001CDE90A0102F0FF
:10083000CBFB02460B98C00F01D02D2007E02068AB
:10084000810701D52B2002E0202101EAC000032A04
:10085000099001D0072A05DB03464146204600F0F7
:1008600027FC0BE12078800601D5E06900E0062036
:10087000B8F1650F814606D0B8F1660F18D0B8F10F
:10088000670F70D131E00020B9F1110F009001DB4A
:10089000112301E009F101030AAA01A90CA8FFF73D
:1008A000E4FEDDE90C70002609F10105834647E00E
:1008B00001204B4600904FF000470AAA01A90CA85E
:1008C000FFF7D3FEDDE90DB00C995D46002610B9A7
:1008D00009F101000D18B9EB050003D4C0F1FF3692
:1008E00009F10105A5EB09002BE0B9F1010F01DACF
:1008F0004FF001090020B9F1110F0090484601DDC9
:10090000112300E003460AAA01A90CA8FFF7ADFED7
:10091000DDE90C704D4600268346207800070AD496
:10092000AB4500DA5D4601A8012D04DD411911F83F
:10093000011C302907D04F4502DA17F1040F04DA01
:10094000012082460FE06D1EEEE7002F02DCED1B5A
:100950003E4403E0781CA84200DD7D1CB81B00F17A
:10096000010A4FF000472078000703D4AA4501DBB5
:100970004FF0FF3A0021B7F1004F0DF143088DF819
:10098000431024D002202B23002F01DA7F422D2395
:100990000A21021EA0F1010000DC5FB197FBF1FC0F
:1009A00097FBF1F201FB1C7C17460CF1300C08F8A8
:1009B00001CDEEE7A8F1010003702188090501D5FA
:1009C000452100E06521A0F1010800F8011C09980B
:1009D0000FA9A1EB0807FF1D00B10120411901EB90
:1009E000EA70A1693844081A401EA0612078C00648
:1009F00002D42046FFF72CFC099828B1D4E9012144
:100A00009047206A401C20622078C00622D52046EC
:100A1000FFF71EFC1EE0002E04DBB34502DD01A83B
:100A2000805D00E03020D4E901219047206A401C1D
:100A30002062761CAAF101005FEA000A0AD100F0E8
:100A4000C9FAC0680168405CD4E901219047206A76
:100A5000401C2062281EA5F10105DCDC07E0D4E97A
:100A6000012118F8010B9047206A401C2062381EB3
:100A7000A7F10107F3DC2046FFF700FC032011B0CB
:100A800043E60000074B70B50D467B4400F0FDFACD
:100A90000446284600F074FD10B14FF0FF3070BDE1
:100AA000204670BD832600003A2800D2303820F05E
:100AB0002002412A01D3A2F13700884201D34FF02E
:100AC000FF3070472DE9FF4F064689B00878FF28B0
:100AD00006D0491C2D2805D000244FF0000908E05D
:100AE00000200CE00124F8E709EB8903491C00EB26
:100AF00043090878FF28F7D114B1C9F100008146F5
:100B0000107800252C46AA4629462D2801D02B28EE
:100B100004D1521C2D2813D0002082468B46107819
:100B2000FF280FD04FF0000C0A21521CA5FB0178C2
:100B300004FB018105FB0C11C5194BEB0104EEE729
:100B40000120EAE7002108464FF00000BAF1000F4B
:100B500002D000EB80004008C0F38158B8F1010FCB
:100B600001DD4FF0FF380C9809EB000755EA04004F
:100B700009D04FF0020917F5FA7F0BDA4FEACA7075
:100B8000C6E900B012E04FEACA70C6E900B00DB085
:100B9000BDE8F08FB7F5FA7F0DDDF0487844D0E975
:100BA0000010C6E9001040EACA70706000F016FA42
:100BB000C0F80090EBE7391E02DAC8F1000200E04D
:100BC000424600DA794206A800F06CFC06AB93E8D6
:100BD000070003AB83E8070044F23E005BEA040130
:100BE0000090584604D144F21E012C465D46009107
:100BF000210C0904014306D10099240444EA154458
:100C00002D041039009104F07F41014306D1009971
:100C1000240244EA15642D020839009104F0704161
:100C2000014306D10099240144EA15742D01091FDE
:100C3000009104F04041014306D10099A40044EA28
:100C40009574AD00891E009104F00041084304D161
:100C500000986D196441401E009042466846002F7E
:100C6000CDE9014503A902DD01F02BFA01E001F015
:100C700000FABAF1000F04460D4601D084F000449A
:100C800040F2FF7724F00040284303D0C4F30A5019
:100C9000B84212D100F0A2F9C0F80090C4F30A5093
:100CA000B8420AD1AE487844D0E90010C6E9001035
:100CB00004F000410843706069E7C6E9005466E744
:100CC0002DE9FF4F1F464FF0000A4FF0FF38454611
:100CD00091B0D7E90146CDF83CA000F07BF9C0689F
:100CE0000168405C1090B96912986D1C8847396A98
:100CF000814688470028F6D1B9F1FF3F0AD0002E7F
:100D000024F4D06411DDB9F12B0F08D0B9F12D0F07
:100D10000BD102E0404615B03AE744F48064B9696B
:100D200012986D1C8847761E8146600504A901D57E
:100D30002D2000E02B20002E01F1010B0DF13008D9
:100D40008DF810003FDDB9F1690F08D0B9F1490FF6
:100D500005D0B9F16E0F02D0B9F14E0F1CD13B4650
:100D600001A8009580E85002DDE912126FF0020040
:100D700002F0E6FCC11CCED10EE0B96912986D1CE0
:100D8000884781461398761E44F4007405600F98D6
:100D9000401C002E0F9016DDB9F1300FEDD0B9F1E7
:100DA000780F02D0B9F1580F0DD10F9801280AD150
:100DB0003B46CDE90054DDE91212001F029602F015
:100DC000BDFCC11CA7D1109989453ED144F08004D7
:100DD00006E01399681CAAF1010A44F40074086043
:100DE000B9696D1C1298761E884730288146F0D06C
:100DF0002BE01099894505D1200603D4761E44F0D6
:100E0000800418E0484602F05AF908B3761E0DF146
:100E100023018B4544F4007408D2A9F130000BF88B
:100E2000010B200607D5AAF1010003E0200602D439
:100E30000AF101008246A00502D51399681C0860DA
:100E4000B96912986D1C88478146002ED1DC53E0A9
:100E5000002E51DDB9F1650F02D0B9F1450F4BD12C
:100E6000A00549D5B9696D1C1298761E24F440740A
:100E70008847002E81460CDD2B2804D0B9F12D0FB8
:100E800007D144F48074B96912986D1C8847761EA6
:100E90008146E00501D52D2100E02B2108F8011B3A
:100EA000CDF8008021E0761E0DF13901884544F42B
:100EB00000740CD2A9F1300010F0FF0088F8000097
:100EC00002D10099884509D908F1010806E0E0053A
:100ED00001D5244801E042F20F708246B9691298A8
:100EE0006D1C8847814613980560002E04DD484636
:100EF00002F0E5F80028D6D1F96912988847FF205A
:100F000053468BF8000088F8000000200A900B90F0
:100F100004AA0CA90AA8FFF7D5FDA00502D46FF01A
:100F20000100F8E614F0240F0AD0E00714D1386865
:100F3000DDE90A12031D3B600068C0E900120BE006
:100F40000AA9684602F064F8E00705D13868009AFB
:100F5000011D3960006802602846DCE6882C00002C
:100F60007E2B0000F1D8FFFF026811441378016066
:100F700018467047D1600549794451610449794464
:100F8000116200211161114600F0D2B8EDFFFFFFA0
:100F9000ED000000426842B1016811F8013B23B145
:100FA000521EC0E90012184670470121C160881E18
:100FB000704742685AB1C368016843B983688B427D
:100FC00005D0491E521CC0E90012002070474FF0A6
:100FD000FF307047004870476C01002000487047A0
:100FE0004C01002030B5B0F10A024FEA900E71F1C9
:100FF00000034EEA817EB0EB0E0061EB91014FEAF7
:10100000101E4EEA017E10EB0E0041EB11114FEA6B
:10101000102E4EEA016E10EB0E0041EB11214FEA4B
:10102000104E4EEA014E10EB0E0041EB11414018FC
:1010300041F100014FEAD00040EA41704FEAD1018E
:1010400010EB80054FEA810444EA907444EB0104FC
:101050006D1944EB0404521BA3414FF0000348BF39
:101060000A3200D530BD401C41F1000130BD10B541
:10107000044600F0B3FA0068005D00F0010010BD06
:1010800001694A1C02610878704700B58FB0CDE94C
:1010900001310021059105497944CDE9031011463C
:1010A0006846FFF739F90FB000BD0000E5FFFFFF0C
:1010B0002DE9F0411F46044603260168072A01F482
:1010C000006004DB08B116A505E016A503E008B131
:1010D00015A500E015A521F010002060A069C01E34
:1010E000A0610FB1401EA0612046FFF7B1F84FB1DB
:1010F000D4E9012138469047206A401C2062C01C78
:10110000206206E0206AFAE7D4E9012115F8010B14
:101110009047761EF8D22046FFF7B0F8BDE8F08180
:101120004E414E006E616E00494E4600696E66008B
:101130002DE9F34F4FF0000A0C4656468DB00120C2
:101140000C9001F10C000B9062690B980121904703
:1011500005002DD0252D2CD0216A8847C0B16269A9
:101160000B9801219047216A88470028F7D16269CE
:10117000411E0B98904700E0761CA1690D988847A6
:10118000216A88470028F7D1E1690D988847DBE795
:10119000A1690D988847A842074601D1761CD3E77C
:1011A000E1690D9888477F1C02D1BAF1000F6FD01A
:1011B0006BE162690B9800273D46394690472A2823
:1011C00004D162690B98012190470125DFF8D08294
:1011D00062690B9801219047A0F130010A290AD2D7
:1011E0004745E5DC07EB870100EB4107303FDFD4E3
:1011F00045F01005ECE7E90601D46FF000476C28D4
:101200000AD04C2814D0682815D06A280DD074282C
:101210001CD07A281AD01DE062690B9801219047F2
:101220006C2802D045F0040514E045F002050DE0FD
:1012300045F020050AE062690B9801219047682873
:1012400002D045F0080505E045F4006562690B9899
:1012500001219047C4E9015765283DD019DC582881
:101260007AD00CDC452837D004DC252826D041284C
:101270009ED131E046282FD0472899D12CE05B2819
:1012800077D0612828D063287CD0642823D15AE005
:10129000F6E06F2848D008DC66281DD067281BD0F0
:1012A000692821D06E2816D127E0702845D07328F0
:1012B00068D0752847D078280DD14DE0A1690D98E8
:1012C0008847252805463FF469AFE1690D988847AE
:1012D0006D1C3FF46AAFD8E00D9923466A466FF063
:1012E000010002F029FAC5E045F0400023464FF026
:1012F00000026060A80736D43EE0E8077FF447AFFD
:101300002068011D21600068290501D506701BE7D2
:10131000290701D5068017E7A90703D5F117C0E90A
:10132000006111E706600FE745F0400023464FF0EB
:1013300008026060A80716D41EE040F60E0125EAF8
:101340000100606016E045F0400023464FF00A02BD
:101350006060A80707D40FE045F040006060A80770
:1013600008D5234610220D996FF00100AFF30080DD
:1013700080E007E0102223460D996FF00100FFF78F
:1013800071F877E04FF0000963284F46C8464B4696
:10139000CB4602D05B2806D038E0E80601D4012015
:1013A000A060012732E06269D4F80CB00B980121EB
:1013B00090475E2807D14FF0010949466269D4F889
:1013C0000CB00B989047216939B900210A4603AB4C
:1013D00043F82120491C0829FADBD8B3216949B315
:1013E00008F1010862690B98012190475D28F4D14A
:1013F000B9F1000F09D0002003A951F82020D243F1
:1014000041F82020401C0828F7DB03AB20690028A6
:1014100020794FEA40701ED05B462246CDF800800E
:10142000CDE901970D9900286FF0010020DAAFF3A4
:1014300000801FE0C11703AA00EBD1614B1121F01E
:101440001F0102EB8302411A136801208840034305
:101450001360C7E719E00D99224600286FF00100DC
:10146000009702DAAFF3008004E0AFF3008001E000
:10147000AFF3008000280ADA401C06D10C9820B196
:101480004FF0FF300FB0BDE8F08F5046FAE7E907A4
:1014900001D10AF1010A064400200C9054E6000034
:1014A000CCCCCC0C2DE9F047814616468AB03348A7
:1014B00078440DC88DE80D0030487844801C03AC9A
:1014C0000DC884E80D0041F69B300844372190FB9D
:1014D000F1F290FBF1F5A5F1800501FB12041B3C34
:1014E00002D56442012000E00020DFF890A0804691
:1014F0000027FA44AAF1BE0A0DE0E00709D03246FF
:10150000684607EB47010AEB810100F0C6FD8DE854
:10151000070064107F1C002CEFD1184F7F44AC3FB4
:1015200018E0E80714D007EB04100DF1180A90E852
:101530000E008AE80E00C068F04201D198190890A8
:10154000324606A903A800F0A8FD03AB83E8070014
:101550006D10641C002DE4D132466946B8F1000FCD
:1015600003A802D000F071FD01E000F096FDC9E98A
:101570000001C9F808200AB0BDE8F0873C2300004C
:10158000007B00F080007047004870474C0100204D
:101590007546FFF7F9FFAE4605006946534620F051
:1015A0000700854618B020B5FEF734FEBDE82040A0
:1015B0004FF000064FF000074FF000084FF0000B0F
:1015C00021F00701AC46ACE8C009ACE8C009ACE8C2
:1015D000C009ACE8C0098D467047000010B5FFF7A0
:1015E000F9FC001D10BD00BFE51C000010B5FFF7A1
:1015F000F5FC006810BD10B50446FFF7EFFC046071
:1016000010BD00002DE9FF4F1F464FF03C0987B089
:101610004FF00042DDE9141001F10108DDF858A097
:1016200002EA405003900020049083460546044699
:101630000590B969461E08988847AAF1010A0290E8
:10164000BAF1000F37DD02982E2815D01021FFF7D0
:101650002BFA00282ADB4FF0010B0499014316D026
:10166000B9F1000F0BDB4A46C11700F037FA05430A
:101670000C43A9F1040905E00120059007E008B139
:1016800045F0010501200490059800B9361DB9699F
:10169000089808F101088847BBF1000FAAF1010A78
:1016A0000290CDD00999C1F80080C9E7029870284E
:1016B00008D0502806D0F96908988847BBF1000F78
:1016C00014D04FE0002002900120BBF1000F0490E5
:1016D00009D0B969089808F101088847AAF10109F9
:1016E000B9F1000F07DCF969089888476FF001002D
:1016F0000BB0BDE8F08F2B2804D02D280CD14FF073
:10170000FF300490B969089808F101088847A9F1E9
:101710000109B9F1000FE6DD411CE4D00A21FFF711
:10172000C3F90028DFDB029908F1010801EB810110
:1017300000EB41000290B969089888470A21FFF739
:10174000B3F9099AA9F10109B9F1000FC2F80080B3
:1017500001DD0028E7DAF9690898884704990298BA
:1017600000FB016655EA040004D004F04041090082
:1017700002D006E0039898E0A40044EA9574AD0016
:10178000B61E04F00041080002D16D196441761EB6
:10179000159810F0240F03D04FF00B095C4803E0BC
:1017A0004FF028096FF07D008246564507DAAAEB14
:1017B00006018944B9F1410F01DD4FF041090120D3
:1017C0000021A9F1010200F089F9024628400B46E8
:1017D0002140084301D0012100E00021501E029168
:1017E00043F1FF3128402140084301D0012000E0AF
:1017F00000200299834651EA0B014FD00021084690
:101800004FF00000039900F4400039B100EB800074
:101810004FF4400100EBD07001EA60008015012810
:1018200002DD4FF0FF3000E013D0401C36D00298AC
:1018300060B3BBF1000F0CD14A460120002100F03B
:101840004DF928402140084301D0012000E000204C
:10185000E0B101204A46002100F040F9034640195A
:101860000A4661412D1A8C4111D3B9F1400F09DDAF
:10187000159810F0240F02D0AAF1340603E0AAF163
:10188000170600E0761C00254FF0004406E05B1EC2
:1018900042F1FF3220EA030521EA0204CAF1010005
:1018A000B04206DA1B4903980843019000200090DB
:1018B0000EE0039AC4F3D321E80A0A43164940EA2A
:1018C00044500A433146CDE90002684601F0ECFB82
:1018D000159810F0240F0BD01598C00715D1386853
:1018E000DDE90012031D3B600068C0E900120CE056
:1018F00002A8694601F08CFB1598C00705D138682D
:10190000029A011D3960006802604046F0E600005E
:1019100002FCFFFF0000F07F0000F03F2DE9FF4FC9
:1019200092461D4685B04FF00041DDE9124BDDE9DE
:1019300014727F1E01EA4B50414940F0FF4940EAD2
:101940000108002122F020004928049102D04E28ED
:1019500028D04CE03BA0012607C88DE80700A96904
:101960000698641C88477F1E014606D41DF80600B1
:1019700018B121F0200181420BD0E969069888470F
:10198000032E34D0082E32D06FF0010009B0BDE82C
:10199000F08F761C032E01D0082EE0D1601CCAF80F
:1019A0000000DCE7A9690698641C88477F1E2AD4DA
:1019B00020F02000412826D1A9690698641C884798
:1019C0007F1E20D420F020004E281CD1A969069843
:1019D000641C88477F1E48F4002849F48009CAF82F
:1019E000004001D4282806D0E969069888475FEAB4
:1019F000CB7012D022E0A9690698641C88477F1E2C
:101A000001D4002803DAE96906988847BCE7292849
:101A1000F1D1641CCAF80040E9E71BF0240F07D09D
:101A200028680499031D2B600068C0E9001805E0D0
:101A30002868021D2A600068C0F800902046A5E7CB
:101A40000000F07F494E46494E49545900000000BD
:101A50000446AFF300802046FEF7C7FB4FF0013C81
:101A600050F8042B51F8043B9A4221D1A2EB0C030D
:101A7000934313EACC1317D150F8042B51F8043BCD
:101A80009A4215D1A2EB0C03934313EACC130BD16A
:101A900050F8042B51F8043B9A4209D1A2EB0C03F5
:101AA000934313EACC13DBD04FF00000704700BF24
:101AB000D01A01BAB1FA81F101F0180122FA01F04D
:101AC000CB40C1F12001DBB2C0B2C01A2CFA01F345
:101AD000D11A914311EAC311E6D17047B2F1200344
:101AE0000AD5C2F1200301FA02F120FA03F300FA49
:101AF00002F041EA0301704700FA03F14FF00000E1
:101B00007047000001491820ABBEFEE72600020026
:101B100070475FEA400C08BF91F0000F4FEA8C233A
:101B20004FEAC12243EA51514FEA1C5018BF00F559
:101B3000F0404FEA300018BF41F000415FEA6C5CB2
:101B400000F02980BCF1FF3F08BF40F080407047A3
:101B5000130C06BF12044FF0100C4FF0000C130EC4
:101B600004BF12020CF1080C130F04BF12010CF198
:101B7000040C930F04BF92000CF1020CD30F04BFAE
:101B800052000CF1010C11464FF00002A0F11F00B1
:101B9000A0EB0C00704711F0004F08BF704731F008
:101BA00000413FF4D5AF0B0C06BF09044FF0100CF9
:101BB0004FF0000C0B0E04BF09020CF1080C0B0FC8
:101BC00004BF09010CF1040C8B0F04BF89000CF158
:101BD000020CCB0F04BF49000CF1010CCCF1200327
:101BE000A0EB0C0022FA03F302FA0CF241EA030123
:101BF00000F10100704720F07F4C80EA030023F0E1
:101C00007F47ACEB070303F57C5300F0004003F182
:101C1000FF032DE980494FEA154B09B44FEA1443FD
:101C200025EA0B4E24EA03480FF2042606EB13279D
:101C300049083E785FEA320203FB0667C7F50007F2
:101C400007FB06F64FEA54374FEAD64606F102067E
:101C500007FB066CCCF1005C4FEA1C472CEA074CF2
:101C600007FB06F40CFB06F504EB15464FEA961647
:101C700034BF00204FF000404FEAD13706FB07FC8D
:101C80004FEA1C4C0CFB0BF7D21B03FB0CF761EB70
:101C900007010CFB0EF7B0EB074072EB17420CFB91
:101CA00008F734BFA2EB0742B2EB074261EB1741E2
:101CB0004FEA0C444FEA910706FB07FC4FEA1C4C25
:101CC0000CFB0BF7B0EBC74072EB573203FB0CF782
:101CD00034BFA2EBC742B2EBC74261EB57310CFBFA
:101CE0000EF7B0EBC70072EB57720CFB08F734BF6E
:101CF000A2EBC702B2EBC70261EB5771039F4FEA39
:101D0000816141EA921104EBCC044FEAD1374FEAEA
:101D1000826206FB07FC42EA90124FEA80604FEABB
:101D20001C4C0CFB0BF7D21B03FB0CF761EB070100
:101D30000CFB0EF7B0EB074072EB17420CFB08F7F9
:101D400034BFA2EB0742B2EB074261EB17414FEA07
:101D50008C554FEA910704EB9C2406FB07FC4FEAE5
:101D60001C4C0CFB0BF7B0EBC74072EB573203FB7C
:101D70000CF734BFA2EBC742B2EBC74261EB57315D
:101D80000CFB0EF7B0EBC70072EB57720CFB08F7B9
:101D900034BFA2EBC702B2EBC70261EB577115EB80
:101DA0004C254FEA816141EA92114FEA82624FEA83
:101DB000D13742EA901206FB07FC44F100044FEAD7
:101DC00080604FEA1C4C0CFB0BF7D21B03FB0CF79B
:101DD00061EB07010CFB0EF7B0EB074072EB17420B
:101DE0000CFB08F734BFA2EB0742B2EB074261EBF2
:101DF000174115EB1C154FEA813141EA92414FEA38
:101E0000823242EA90424FEA80304FEA0C7644F147
:101E1000000448EA03434EEA0B484FF0000EB2EBD1
:101E2000080C71EB030724BF624639464EEB0E0ED9
:101E30004FF0000B0018524149414BEB0B0BB2EB3A
:101E4000080C71EB03077BF1000B24BF6246394697
:101E50004EEB0E0E4FF0000B0018524149414BEB78
:101E60000B0BB2EB080C71EB03077BF1000B24BFEB
:101E7000624639464EEB0E0E51EA020718BF46F095
:101E8000010616EB0E7655F1000254F1000103D560
:101E9000BDE88901BDE80088BDE88901BDE80048CA
:101EA000B619524141EB0101A3F101037047808053
:101EB0007F7E7D7C7B7A79787776767574737271A4
:101EC00071706F6E6E6D6C6C6B6A6A69686867665C
:101ED00066656464636362616160605F5F5E5E5DEE
:101EE0005D5C5C5B5B5A5A59595858575756565562
:101EF00055555454535352525251515050504F4FC4
:101F00004F4E4E4D4D4D4C4C4C4B4B4B4A4A4A4913
:101F10004949484848474747474646464545454456
:101F2000444444434343434242424241414100000E
:101F300046EA0646A3F570534FEA164646EA42566D
:101F40004FEAD22242EA415210B54FEAD121A3F121
:101F5000010300F017F820F0004000F1010C00F040
:101F6000004701EB00501146BCF5006F40EA070046
:101F700000D210BD02484FF0000140EA070010BD3A
:101F80000000F07F002B26D4770021D01CB54FEA4B
:101F9000370703B44FF010004FF010014FF000006E
:101FA0000FBCBDE810400BF1010BBBF1010F08BFE6
:101FB0005FEA170722BF12F1010211F101014FF090
:101FC000004143F1000300F0004043EA0000704785
:101FD000F9D35708DAE746EA064613F1400F4FEA0D
:101FE00016461FDD13F1200FDFBF16430A460021FE
:101FF00020335B42C8D0C3F1200746EA064602FA06
:1020000007F74FEA164646EA0706C3F1200722FA09
:1020100003F201FA07F721FA03F14FF0000342EA55
:102020000702B1E746EA020646EA06464FEA1646C6
:1020300046EA0106BCBF46EA0646360C4FF00003EE
:102040004FF000024FF000019EE72DE9C048934693
:1020500030B491E8380007C831EA400C48BF34EA90
:10206000430C03D5FFF7C7FDFFF78CFFF0BCBDE8BD
:1020700000882DE9C048934630B491E8380007C87D
:1020800031EA400C48BF34EA430C03D5FFF7B3FDF7
:10209000FFF74EFFF0BCBDE800882DE9C04893462D
:1020A00030B491E8380007C810F0804F08BF13F033
:1020B000804F03D100F019F8FFF764FFF0BCBDE8D2
:1020C00000882DE9C048934630B491E8380007C82D
:1020D00010F0804F08BF13F0804F03D100F005F8D7
:1020E000FFF726FFF0BCBDE8008820F07F4780EABC
:1020F000030023F07F4C07EB0C03A3F57C5300F0A7
:102100000040A3F1FE0392F0000F00F0B38095F0C1
:10211000000F00F077802DE901494FEA11404FEAA6
:10212000144621EA004800FB06FC24EA064708FBA7
:1021300006F607FB08F800FB07F718EB06484CEB20
:10214000164C4FEA124B18EB07484FEA15464CEB7A
:10215000174022EA0B4E0BFB06FC25EA06470EFB56
:1021600006F607FB0EFE0BFB07F71EEB064E4CEBCD
:10217000164C4FF000061EEB074E4CEB174B18EBBE
:102180000B0840F1000018EB0E0B58EB000840F173
:1021900000008F1A4FF000013CBFC943661B14BFFB
:1021A000B5EB040C00213CBFC943F61B4FEA1744B2
:1021B0004EEA8E0E27EA04454FEA1C4704FB0762ED
:1021C0002CEA074C05FB07F70CFB05F604FB0CFC9F
:1021D00016EB074642EB174216EB0C4642EB1C424D
:1021E0001BEB060658EB0202414146EA9E0601D56A
:1021F000BDE80189B619524141EB0101A3F1010388
:10220000BDE801894FEA14454FEA114724EA054623
:1022100021EA074C05FB07F406FB07F70CFB06F168
:1022200005FB0CFC11EB074144EB17444FEA124746
:1022300011EB0C4144EB1C4422EA074C05FB07F26E
:1022400006FB07F70CFB06F605FB0CFC16EB074636
:1022500042EB174216EB0C4642EB1C456A1854F150
:10226000000148BF7047B619524141EB0101A3F18B
:102270000103704795F0000F37D04FEA11424FEA43
:10228000144721EA024624EA074C02FB07F106FB49
:1022900007F70CFB06F402FB0CFC14EB074441EBC4
:1022A00017414FEA154714EB0C4441EB1C4125EA5A
:1022B000074C02FB07F506FB07F70CFB06F602FBD3
:1022C0000CFC16EB074645EB174516EB0C4645EBA9
:1022D0001C42121951F1000148BF7047B619524112
:1022E00041EB0101A3F1010370474FEA14454FEAA6
:1022F000114724EA054621EA074C05FB07F106FBD6
:1023000007F70CFB06F24FF0000605FB0CFC12EB86
:10231000074241EB174112EB0C4251EB1C4148BF05
:102320007047921841EB0101A3F10103704700BF10
:10233000FEE770472DE9F041024600250026002007
:1023400000230024002791F803C00CF00F0591F83A
:1023500003C00CF0100CBCF1000F03D091F802C0C8
:102360004CEA050591F800C0BCF1000F31D01468AB
:1023700000202BE04FF0010C0CFA00F3B1F800C084
:102380000CEA03069E4220D183004FF00F0C0CFA9A
:1023900003F7BC4305FA03FC4CEA040491F803C0BC
:1023A000BCF1280F06D14FF0010C0CFA00FCC2F86A
:1023B00014C00AE091F803C0BCF1480F05D14FF0FA
:1023C000010C0CFA00FCC2F810C0401C0828D1D344
:1023D0001460B1F800C0BCF1FF0F34DD5468002078
:1023E0002EE000F1080C4FF0010808FA0CF3B1F8E8
:1023F00000C00CEA03069E4221D183004FF00F0C6F
:102400000CFA03F7BC4305FA03FC4CEA040491F808
:1024100003C0BCF1280F05D100F1080C08FA0CF834
:10242000C2F8148091F803C0BCF1480F07D100F145
:10243000080C4FF0010808FA0CF8C2F81080401C94
:102440000828CED35460BDE8F08100BFFEE700BF8E
:10245000FEE7704770B5002100230F22C47804B353
:10246000154C246804F4E064C4F5E064210AC1F169
:102470000403CA40447804FA03F1847814402143E9
:1024800009010E4C0678A155047804F01F050124BB
:10249000AC4005786D11AD0005F1E025C5F80041AF
:1024A00009E0047804F01F050124AC40044D0678CF
:1024B000761145F8264070BD0CED00E000E400E028
:1024C00080E100E07047000029B1064AD26902436A
:1024D000044BDA6104E0034AD2698243014BDA61BA
:1024E000704700000010024029B1064A12690243F9
:1024F000044B1A6104E0034A12698243014B1A61DA
:10250000704700000010024029B1064A9269024358
:10251000044B9A6104E0034A92698243014B9A6139
:10252000704700000010024029B1064AD2680243F9
:10253000044BDA6004E0034AD2688243014BDA605C
:10254000704700000010024030B500210022002436
:1025500000232D4D6D6805F00C0121B1042905D033
:10256000082923D105E0294D056022E0274D0560AB
:102570001FE0254D6D6805F47012234D6D6805F45C
:102580008034022505EB92421CB9214D554305606C
:102590000BE01D4D6D6805F400351DB11C4D554314
:1025A000056002E0194D5543056002E0174D0560D6
:1025B00000BF00BF144D6D6805F0F0010909154D0D
:1025C0006B5C0568DD4045600F4D6D6805F4E061AA
:1025D000090A104D6B5C4568DD4085600A4D6D68E9
:1025E00005F46051C90A0B4D6B5C4568DD40C56060
:1025F000054D6D6805F44041890B074D6B5CC5685E
:10260000B5FBF3F5056130BD0010024000127A0001
:1026100000093D005400002064000020704710B500
:1026200000F002F810BD00000CB5002001900090F1
:102630003348006840F480303149086000BF3048BA
:10264000006800F4003000900198401C0190009850
:1026500018B90198B0F5A06FF1D12948006800F4CD
:10266000003010B10120009001E00020009000989F
:10267000012843D12348006840F010002149086038
:102680000846006820F0030008600846006840F033
:10269000020008601A4840681949486008464068C6
:1026A00048600846406840F48060486008464068DA
:1026B00020F47C1048600846406840F4E810486008
:1026C0000846006840F08070086000BF0C48006851
:1026D00000F000700028F9D00948406820F003009D
:1026E000074948600846406840F00200486000BF63
:1026F0000348406800F00C000828F9D10CBD000028
:102700000010024000200240042808D14FF0E021D0
:10271000096941F004014FF0E022116107E04FF038
:10272000E021096921F004014FF0E02211617047B6
:102730007047000010B51348006840F001001149CF
:10274000086008464068104908400E49486008463D
:1027500000680E4908400B4908600846006820F4EC
:10276000802008600846406820F4FE0048604FF46E
:102770001F008860FFF753FF4FF0006004490860B6
:1027800010BD0000001002400000FFF8FFFFF6FE41
:1027900008ED00E010B540F22551064800F000FABF
:1027A00030B10448001D0088C1B2034800F0B0FAFF
:1027B00010BD0000004C00402C00002010B5044665
:1027C0000121C804FFF780FE072C00D000BF10BD18
:1027D00010B540F22551054800F0E2F928B1034850
:1027E0008088C1B2024800F093FA10BD005000404A
:1027F0003800002010B5044601210805FFF764FEEB
:1028000010BD000010B540F22551064800F0C8F98F
:1028100030B10448001D0088C1B2034800F078FAC6
:1028200010BD0000003801400800002010B504462B
:10283000E4B901210520FFF767FE01218803FFF7B6
:1028400063FE4FF40070184908801820C8700320F8
:1028500088701648FFF76EFD4FF4806012490880BB
:102860000420C8701148FFF765FD1BE0012C19D149
:1028700001210820FFF748FE01218803FFF744FEED
:102880004020094908801820C87003208870084833
:10289000FFF750FD8020044908800420C8700448D8
:1028A000FFF748FD10BD0000500000200008014067
:1028B000000C014010B540F22551064800F070F9B7
:1028C00030B10448001D0088C1B2034800F020FA6E
:1028D00010BD0000004400401400002010B5044664
:1028E00001214804FFF7F0FD022C1AD10121042038
:1028F000FFF70AFE01214804FFF7E6FD042017490F
:1029000008801820C870032088701548FFF712FD52
:102910000820124908800420C8701148FFF70AFDFA
:102920001BE0032C19D101212020FFF7EDFD01212F
:102930004804FFF7C9FD2020084908801820C87006
:10294000032088700748FFF7F5FC40200349088002
:102950000420C8700348FFF7EDFC10BD50000020B4
:10296000000801400014014010B540F2255106480E
:1029700000F016F930B10448001D0088C1B20348C8
:1029800000F0C6F910BD0000004800402000002003
:1029900010B5044601218804FFF796FD042C1AD1D6
:1029A00001210820FFF7B0FD01218804FFF7ACFDED
:1029B0002002284908801820C87003208870264803
:1029C000FFF7B8FC6002234908800420C870224841
:1029D000FFF7B0FC3CE0052C1CD101211020FFF7D3
:1029E00093FD01218804FFF78FFD4FF480601949A2
:1029F00008801820C870032088701848FFF79AFCD8
:102A00004FF40060134908800420C8701348FFF792
:102A100091FC1DE0062C1BD101212020FFF774FD45
:102A200001218804FFF770FD4FF480700949088088
:102A30001820C870032088700948FFF77BFC4FF40A
:102A40000070044908800420C8700548FFF772FC34
:102A500010BD000050000020000C0140001001409B
:102A60000014014010B50346184600F027F904464B
:102A7000E08808B9012010BD0020FCE710B504462D
:102A8000204600F01BF90346D8889988884201D176
:102A9000012010BD0020FCE721B1828942F40052E0
:102AA000828104E082894DF6FF731A40828170476B
:102AB00010B504462048844209D101218803FFF75C
:102AC00033FD00214FF48040FFF72EFD32E01B481C
:102AD000844209D101214804FFF706FD00214FF48B
:102AE0000030FFF701FD25E01548844209D101219E
:102AF0008804FFF7F9FC00214FF48020FFF7F4FC75
:102B000018E01048844209D10121C804FFF7ECFC09
:102B100000214FF40020FFF7E7FC0BE00A48844255
:102B200008D101210805FFF7DFFC00214FF48010D8
:102B3000FFF7DAFC10BD00000038014000440040FF
:102B400000480040004C00400050004073B506466D
:102B5000304600F0B3F80346DD885C890FE09888C2
:102B6000A04200D10024186800579DF80410884244
:102B700001D101207CBD601C84B2681E85B2002D8D
:102B8000EDDC0020F6E702460020B1F5007F00D121
:102B900000BF13880B400BB1012000E000207047FC
:102BA00070B50246002400230025002040F66A1676
:102BB000B14200D100BFC1F3421501F01F0301264D
:102BC00006FA03F3012D02D19689334006E0022D67
:102BD00002D1168A334001E0968A33400C12012656
:102BE00006FA04F41688344013B10CB1012000E059
:102BF000002070BD30B504460025204600F05EF888
:102C00000346D88800280EDD58899988884201D16A
:102C1000002058815989186845565889401C5881A8
:102C2000D888401ED880E8B230BDF0B507460D46C2
:102C3000164600243846FFF715FF40B90A213846EA
:102C4000FFF784FF28B93846FFF718FF08B90020BE
:102C5000F0BD0BE03846FFF7CDFF2855285D0A2868
:102C600002D1601C84B204E0601C84B2701EA042D9
:102C7000F0DC00BF002028552046E9E701460A4A5B
:102C8000914200D10020094A914200D10120084A16
:102C9000914200D10220074A914200D10420064A05
:102CA000914200D1052070470038014000440040A7
:102CB00000480040004C00400050004001460A4AD5
:102CC000914200D109480A4A914200D109480A4A72
:102CD000914200D109480A4A914200D109480A4A62
:102CE000914200D109487047003801400800002097
:102CF0000044004014000020004800402000002054
:102D0000004C00402C000020005000403800002003
:102D100010B5C28883889A420FDA028983889A4262
:102D200001D1002202814AB2048903681A5502893E
:102D3000521C0281C288521CC28010BDF0B50346ED
:102D4000002400260025002040F66A17B94200D171
:102D500000BF1846C1F3421401F01F06012707FA0D
:102D600006F5012C01D10C3004E0022C01D1103009
:102D700000E014301AB107682F43076002E00768CB
:102D8000AF430760F0BD00002DE9F04786B005466F
:102D90000E460024A24600BFA1460027B08900B11C
:102DA00000BF2F462C8A4CF6FF700440F088044385
:102DB0002C82AC894EF6F3100440B0883189084368
:102DC000718908430443AC81AC8A4FF6FF4004404C
:102DD000B0890443AC8201A8FFF7B6FB1F488742C5
:102DE00002D1DDF810A001E0DDF80CA0A88900F404
:102DF000004040B10AEBCA0000EB0A1031684900FC
:102E0000B0FBF1F807E00AEBCA0000EB0A103168EA
:102E10008900B0FBF1F86420B8FBF0F00401200950
:102E2000642101FB1089A88900F4004040B13220E0
:102E300000EBC900B0FBF1F000F00700044308E02C
:102E4000322000EB09106421B0FBF1F000F00F001C
:102E500004432C8106B0BDE8F08700000038014033
:102E600013B5044600BF80212046FFF78CFE0028E2
:102E7000F9D09DF80400A0801CBD000070B586B09C
:102E800004460D46164602964948844212D1284609
:102E9000FFF7CCFC25208DF804000020ADF81400CD
:102EA0000C20ADF812000020ADF81000ADF80E00B7
:102EB000ADF80C003F48844212D12846FFF70EFDC2
:102EC00026208DF804000020ADF814000C20ADF889
:102ED00012000020ADF81000ADF80E00ADF80C00A7
:102EE0003548844212D12846FFF752FD27208DF83D
:102EF00004000020ADF814000C20ADF812000020F2
:102F0000ADF81000ADF80E00ADF80C002B4884426F
:102F100012D12846FFF752FC34208DF8040000201F
:102F2000ADF814000C20ADF812000020ADF8100030
:102F3000ADF80E00ADF80C002148844212D12846AD
:102F4000FFF758FC35208DF804000020ADF8140080
:102F50000C20ADF812000020ADF81000ADF80E0006
:102F6000ADF80C0000212046FFF796FD2046FFF744
:102F70009FFD02A92046FFF707FF01212046FFF72A
:102F80008BFD012240F225512046FFF7D7FE01209C
:102F90008DF8070000208DF805002046FFF76EFE33
:102FA0008DF8060001A8FFF755FA06B070BD0000C5
:102FB000003801400044004000480040004C004000
:102FC0000050004000BFFEE7490050EAC12018BF92
:102FD00004204A0D18BF40F0010040F2FF72B2EB2E
:102FE000515F08BF40F00200012808BF052070476C
:102FF00040F2013200204FF0E04100F06FBB0000D2
:10300000024A0020110700F069BB000001FDFFFF2C
:1030100010B50446D1E9000100F002F8206010BDAF
:10302000F8B504460D466A4600F07EF800987E30FA
:10303000009000281FDC002213462046294600F09D
:10304000A1F918D0002140F608004FF00000064614
:103050002046294600F050F9044640F6080006EAEA
:1030600000014FF0000034F0004004BF0220FEF7E2
:10307000C2FA2046F8BD0098FF280DDB0220FEF7BB
:10308000BAFA002213462046294600F047FA8CBFC0
:1030900004484FF0FF40F8BD20462946BDE8F840FF
:1030A00000F02AB9000080FF10B504460A46D4E9B2
:1030B0000003194600F064F8C4E9000110BD30387F
:1030C0000A2801D2012070470020704710B56FF028
:1030D0000400FFF719FB0A4800680A49B0FBF1F049
:1030E000094908700846007800EB4001C1EBC010A8
:1030F0004FF6FF7101EAC0000449088010BD0000CE
:103100007800002000127A00000000200200002059
:1031100070B504460D46E1B20248FFF7A1FE204615
:1031200070BD00000044004010B51446002222602B
:10313000114A21F000439342A8BF10BD53EA000298
:1031400008BF10BDB3F5801FA8BF226807DA36227A
:1031500000F0C4FA6FF0350221F000432260DFF87E
:103160001CC06FF31E510CEB23531A4441F0FF5166
:1031700041F00051226010BD0000F07F02FCFFFF13
:103180002DE9F04106460C4640F2FF75174635EA38
:1031900014502BD000221346304600F0F3F825D00F
:1031A0003A463046214600F099FA06460C4635EA82
:1031B000145010D000221346304600F0E3F815D129
:1031C0000220FEF718FAFFF71BFF0A46214662F3BA
:1031D0001E01BDE8F0810220FEF70DFAFFF708FF9F
:1031E0000A46214662F31E01BDE8F08130462146C1
:1031F000BDE8F0819EB000BFFFF768FF4FF4E132F9
:1032000002211848FFF73AFE2BE0642205A9154871
:10321000FFF70BFD002824D013481449144B154A1E
:10322000CDE9001014A105A8FDF7FEF8042801D18E
:10323000012000E00020044694B10B48006800F033
:10324000A3F905460E460948006800F09DF98DE88F
:10325000630007480268074801680CA0FCF7ECFF10
:1032600000BFD2E70044004074000020700000203E
:103270006C00002068000020496E70757420256481
:103280002025642025662025660A00002564202567
:10329000642025322E32662025322E32660D0A0039
:1032A00010B500290AD00878002807D005487844CE
:1032B000FEF7D4FB002801D0002010BD024878445E
:1032C00010BD0000820500007A05000010B500293D
:1032D0000AD00878002807D005487844FEF7BEFBDE
:1032E000002801D0002010BD0248784410BD000025
:1032F000720500006A05000021F00042A2F1605250
:10330000B2F5801F01F0004328BFD2F17F6C0BD9CA
:103310005FEA001C43EAC20242EB507018BF7047DC
:1033200028BF20F001007047B2F5801FBCBF1846CF
:1033300070474FEA410C1CF5001F02D2084600F00E
:1033400094B970B500F096F800000089FFF7F6BF59
:103350004FF00040A0F580007047000002494FF098
:10336000000000F089B900BF0000F87F491058BF85
:10337000C1F140415B1058BFC3F140438B42EFF3B2
:103380000080704751EA030C17D41CF5801F58BF0A
:10339000BCF5801F00F10680994218BF704708BF36
:1033A0009042704707D711F5801F58BF13F5801F53
:1033B00019D499427047894270471CF5801F08D57F
:1033C000BCF5801FF7D58B4218BF704708BF8242FB
:1033D00070474FF4001C1CEB410F38BF1CEB430F30
:1033E00001D28B42704770B500F044F89224490036
:1033F0004FF000514FF08053FFF7B8BF51EA030C74
:1034000017D41CF5801F58BFBCF5801F00F1068043
:10341000994218BF704708BF9042704707D711F50F
:10342000801F58BF13F5801F19D4994270478942F5
:1034300070471CF5801F08D5BCF5801FF7D58B425F
:1034400018BF704708BF824270474FF4001C1CEB46
:10345000410F38BF1CEB430F01D28B42704770B550
:1034600000F008F8922449004FF000514FF08053CB
:10347000FFF77CBF0EF1020E2EF0030E5EF8046B18
:10348000364205D4012A43EB030515F5001F12D877
:10349000012841EB010C1CF5001F0CD80ED14FEA9E
:1034A000D17C15F5001F0CEB4C0C0CF1020C08BF85
:1034B0004CEBD37C04E04FF0080C01E04FEAD37CE6
:1034C0000CEB4C0526FA05F606F00706B6F1040CDF
:1034D00006D20EEB860CBDE870404CF0010C604744
:1034E000DFE80CF0090B02024FF000414FF0000042
:1034F000A1F5002170BD19461046012851EB0104C9
:1035000018BFD4F5001484BF002001F0004170BD45
:103510000808A0F500114FEA3101704753EA010C89
:1035200017D41CF5801F58BFBCF5801F00F1068022
:103530008B4218BF704708BF8242704707D713F508
:10354000801F58BF11F5801F19D48B4270479B42D2
:1035500070471CF5801F08D5BCF5801FF7D5994230
:1035600018BF704708BF904270474FF4001C1CEB17
:10357000430F38BF1CEB410F01D2994270470FB483
:103580000CBC03BCFFF76BBF43004FEAD30C4FEA00
:103590003C0C43401FBF40070CF1605113F0FE4F3D
:1035A00070471CF0006F03D100200CF00041704701
:1035B0000CF0004343EA507010B540EACC0000F034
:1035C0000EF800BF000000924FEA0001FFF7A0BF15
:1035D0004FF000414FF00000A1F5002170470EF1BF
:1035E000020E2EF0030E5EF8044B244204D44FEA80
:1035F0004102B2F17F4F11D84FEA4003B3F17F4F40
:103600000CD80ED14FEAD07CB2F17F4F0CEB4C0CB2
:103610000CF1020C08BF4CEBD17C04E04FF0080C1D
:1036200001E04FEAD17C0CEB4C0324FA03F404F0E4
:103630000704B4F1040C06D20EEB840CBDE8104074
:103640004CF0010C6047DFE80CF0070802024FF075
:103650000040A0F5800010BD0846420018BFD2F11E
:10366000807288BF00F0004010BDFF2141EAD050B9
:10367000C0057047FDF7CFB80CF00F03092B08BF4A
:10368000082000F05F800A2B0BD0082B18BF704772
:1036900008BF1CF0400F0AD04FF000004FF00001AF
:1036A00070471CF0400F18BF4FF0004070471CF0EF
:1036B000100F08D020F0704300F07F4242EAD3019F
:1036C0004FEA4370704700F0604021F07F4242EAC9
:1036D000000201F07F4040EA727070474FF0FF0C2B
:1036E0004CF4E06C1CEA11531CBF9CEA030C94459B
:1036F000C2BFDA4201EB02517047002B0DD0BCF182
:10370000000F0FD0002A01F00041A4BF41F0E041BA
:1037100041F07F614FF00000704701F000414FF031
:103720000000704750EA01334FF09B0C18BF4CF07B
:10373000806C7FF413AE7047FDF7C2BAFDF762BF2D
:10374000FEF7ECB81CF4801F11D01CF4E02F03D05E
:103750006FEACC31490070474FF04050EFF30082E0
:1037600022F0704242EA000282F3008870474FF074
:103770000000704702400000000000A000000000B0
:1037800005400000000000C8000000000C400000E0
:103790000000409C00000000194000000020BCBE5A
:1037A0000000000034400000BFC91B8E0000000470
:1037B000B5400000504BCFD06607E2CF01000000BB
:1037C0006C4100003E8251AADFEEA73401000000E8
:1037D000D9420000DCB5A0E23A301F97FFFFFFFF9F
:1037E000B4450000FD25A0C8E9A3C14FFFFFFFFFBE
:1037F000FF3F00000000008000000000FF3F0000CD
:1038000000000080000000005C390008000000207B
:103810008C0000006C010008E83900088C000020D2
:103820002407000088010008000000000000F07F6D
:103830001C00000043000000F8FFFFFF0C00000028
:103840000E0000000F0000002E000000100100001C
:1038500043000000F8FFFFFF004040404040404070
:103860004040414141414140404040404040404053
:1038700040404040404040404005020202020202F7
:103880000202020202020202022020202020202046
:10389000202020020202020202029090909090905A
:1038A0001010101010101010101010101010101018
:1038B000101010100202020202028888888888888C
:1038C0000808080808080808080808080808080878
:1038D0000808080802020202400000000000000080
:1038E00000000000000000000000000000000000D8
:1038F00000000000000000000000000000000000C8
:1039000000000000000000000000000000000000B7
:1039100000000000000000000000000000000000A7
:103920000000000000000000000000000000000097
:103930000000000000000000000000000000000087
:103940000000000000000000000000000000000077
:103950000000000000000000000000000000000067
:10396000000000008C00002020000000000000008B
:10397000AC0000202000000000000000CC0000206F
:103980002000000000000000EC00002020000000EB
:10399000000000000C0100202000000000000000DA
:1039A0002C010020200000000000000000000000AA
:1039B00000000000010203040102030406070809D5
:1039C00002040608000000000000000000000000E3
:1039D0000000000000A24A040000000000000000F7
:0839E0000102030406070809B7
:0400000508000131BD
:00000001FF
