:020000040800F2
:10000000700700200D020008670D00085F0D000852
:10001000630D0008DD040008DD1300080000000087
:10002000000000000000000000000000310F000888
:10003000D90B000800000000F90D0008A910000805
:1000400027020008270200082702000827020008EC
:1000500027020008270200082702000827020008DC
:1000600027020008270200082702000827020008CC
:1000700027020008270200082702000827020008BC
:1000800027020008270200082702000827020008AC
:100090004913000827020008270200082702000869
:1000A000270200082702000827020008270200088C
:1000B000270200082702000827020008270200087C
:1000C000270200082702000827020008270200086C
:1000D000270200082702000827020008270200085C
:1000E000270200082702000827020008270200084C
:1000F000270200082702000827020008270200083C
:10010000270200082702000827020008270200082B
:10011000270200082702000827020008270200081B
:10012000270200082702000827020008270200080B
:1001300000F002F800F041F80AA090E8000C8244B8
:100140008344AAF10107DA4501D100F036F8AFF295
:10015000090EBAE80F0013F0010F18BFFB1A43F0A5
:1001600001031847A0150000C0150000103A24BF75
:1001700078C878C1FAD8520724BF30C830C144BF0C
:1001800004680C607047000000230024002500264E
:10019000103A28BF78C1FBD8520728BF30C148BFEA
:1001A0000B607047782900F09380002070471FB5DE
:1001B00000F0CFF81FBD10B510BD00F05FF911467B
:1001C000FFF7F5FF01F06EF900F07DF903B4FFF7DA
:1001D000F2FF03BC01F004F90B49D1F800C04A68F2
:1001E0005CF8043B1068184442F8040B8C4528BFA7
:1001F000A1F1DC0C8A4228BFA1F1DC02C1F800C0E9
:100200004A6020F0004070470801002009488047FC
:1002100009480047FEE7FEE7FEE7FEE7FEE7FEE7E8
:10022000FEE7FEE7FEE7FEE704480549054A064B00
:1002300070470000D910000831010008700100204B
:10024000700700207003002070030020704700003A
:100250000FB4044910B503AA029800F0E1F810BCED
:100260005DF814FB0C0000202DE9F0410E46044619
:10027000002020622046E168884730B3252805D059
:10028000D4E901219047206A401CF2E7E16820464A
:1002900000278847050018D0A5F14100192802D889
:1002A00020354FF400673246294620462760FFF785
:1002B00079FF40B1012804D0F61D26F00706083664
:1002C000D8E7361DD6E72846DAE7206ABDE8F08190
:1002D00070B504460D4621461068AFF300802188B2
:1002E000090502D50F4A7A4402E00E4A7A440E32DA
:1002F000002104F1240305E000F00F060009965DDB
:100300005E54491C0028F7D120780023000704D54B
:10031000702D02D009B1022311322046BDE8704091
:1003200000F024B8AA1300000B4910B5A1F17C021B
:100330000A4CC2E93712372106E000EB104342F8BD
:100340002130074B00FB03400B1EA1F10101F4DC3F
:1003500010BD0120E8E70000A8000020E119D666E2
:10036000CD0D010070477047704770472DE9F04789
:100370000D4699469246044600F124080168880615
:1003800004D5E06921F01001216000E00120A842BD
:1003900001DD471B00E00027A1697A1902EB090083
:1003A000081AA0612078C00602D42046AFF300806E
:1003B000002608E0D4E901211AF806009047206AD7
:1003C000401C761C20624E45F4DB2078C0060AD51E
:1003D0002046AFF3008006E0D4E9012130209047A9
:1003E000206A401C2062381EA7F10107F4DC07E0F8
:1003F000D4E9012118F805009047206A401C2062CA
:10040000281EA5F10105F3DC2046AFF3008020781B
:10041000000602D50220BDE8F0870120FBE70000BE
:10042000074B70B50D467B4400F011F80446284692
:1004300000F020F810B14FF0FF3070BD204670BDC5
:100440005710000001694A1C02610878704700B526
:100450008FB0CDE901310021059105497944CDE9FD
:10046000031011466846FFF7FFFE0FB000BD000005
:10047000E5FFFFFF007B00F080007047754600F04D
:1004800029F8AE4605006946534620F00700854628
:1004900018B020B5FFF7C8FEBDE820404FF00006B9
:1004A0004FF000074FF000084FF0000B21F007015C
:1004B000AC46ACE8C009ACE8C009ACE8C009ACE89F
:1004C000C0098D4670470446AFF300802046FFF711
:1004D0007DFE0000004870471001002000BFFEE7CD
:1004E000B1F5007F3AD00FDC202928D006DC0129A5
:1004F0001CD004291DD0082940D11DE0402921D05D
:10050000B1F5807F3AD126E0B1F5004F31D006DC5D
:10051000B1F5806F25D0B1F5006F2FD124E0B1F592
:10052000803F12D0B1F5003F28D111E0154A82601A
:1005300025E00822C26022E01022C2601FE00822EB
:1005400002611CE01022026119E00822426016E0FC
:100550001022426013E00422426010E00422426054
:100560000DE0042242600AE000228261042242601F
:1005700005E0002282610422426000E000BF00BF6B
:10058000704700000101010000B587B000F0ECFBEE
:1005900000F024FB224800F045F804A800F0EDF933
:1005A00000208DF816008DF817008DF818008DF8D2
:1005B00019008DF81A0001208DF81B0000208DF81D
:1005C00012008DF8130003208DF8140002208DF81E
:1005D00015002D20ADF8100004A9114800F0CBF84B
:1005E00000208DF80A008DF80B0001208DF80C001A
:1005F0000020ADF80000ADF80200ADF80400ADF841
:100600000600ADF8080001208DF80D00012202213E
:10061000034800F0A7F8684600F020F807B000BDD6
:100620000064004010B504460B48844209D1012102
:10063000480600F0F3FB00214FF0007000F0EEFBE5
:1006400008E00121880600F0E9FB00214FF08060FE
:1006500000F0E4FB10BD00000064004010B5002174
:10066000837A012202FA03F13D4A126842F0010244
:100670003B4B1A603A4A1C3212688A43384B1C338F
:100680001A60027BCAB9364A0C3212688A43344B6C
:100690000C331A604288C38842EA0343304A40322E
:1006A000847A42F834300288838842EA03432C4A31
:1006B0004032847A02EBC4025360027B012A19D1D2
:1006C000274A0C3212680A43254B0C331A604288C1
:1006D000038842EA0343224A4032847A42F83430A3
:1006E000C288838842EA03431D4A4032847A02EB7F
:1006F000C4025360C27A3AB9194A121D12688A4379
:10070000174B1B1D1A6006E0154A121D12680A439A
:10071000134B1B1D1A60028932B9114A1432126838
:100720008A430F4B14331A600289012A06D10C4AFE
:10073000143212680A430A4B14331A60427B012AAE
:1007400006D1074A1C3212680A43054B1C331A6053
:10075000034A126822F00102014B1A6010BD00002A
:10076000006600401AB143690B43436102E04369EC
:100770008B434361704730B5024600200023146864
:1007800024F002041460146844F00104146000E0D2
:100790005B1C546804F001041CB94FF6FF74A342BB
:1007A000F6D1546804F001040CB900206CE08C7997
:1007B000012C04D1146844F08004146003E0146830
:1007C00024F080041460CC79012C04D1146844F026
:1007D0004004146003E0146824F0400414600C7AB0
:1007E000012C04D1146844F02004146003E0146860
:1007F00024F0200414604C7A012C04D1146844F0D5
:100800001004146003E0146824F0100414608C7A5F
:10081000012C04D1146844F00804146003E0146847
:1008200024F008041460CC7A012C04D1146844F03C
:100830000404146003E0146824F0040414608C7849
:10084000A407CD7844EA05640D7944EA05444D795E
:1008500044EA05540D886D1E2C43D461146824F0BD
:1008600001041460002300E05B1C546804F00104E0
:100870001CB14FF6FF74A342F6D1546804F0010492
:100880000CB1002000E0012030BD10B500F5D87398
:1008900003EB01131B6803F004031372137A53B9BB
:1008A00000F5D87303EB01131B6840F2FF7404EAF0
:1008B0005353136009E000F5D87303EB01131B6871
:1008C0006FF0604404EAD303536000F5D87303EB80
:1008D00001131B6803F00203537200F5D87303EB96
:1008E00001135B6803F00F03937200F5D87303EBF9
:1008F00001135B681B0AD37400F5D87303EB011373
:100900009B68D37200F5D87303EB01139B681C0A34
:10091000147300F5D87303EB01139B681C0C54731C
:1009200000F5D87303EB01139B681B0E937300F55E
:10093000D87303EB0113DB68D37300F5D87303EBB3
:100940000113DB681C0A147400F5D87303EB011360
:10095000DB681C0C547400F5D87303EB0113DB68DF
:100960001B0E937421B9C36843F02003C36003E0F6
:10097000036943F02003036110BD00218171C1713F
:10098000017241728172C1728170C1700321017163
:100990000221417101210180704710B502460020FB
:1009A000936803F08063B3F1806F00D110E0936827
:1009B00003F00063B3F1006F01D1012008E09368F8
:1009C00003F08053B3F1805F01D1022000E00420E6
:1009D000042874D002F5C07303EB00131B6803F006
:1009E000010402F5C07303EB00131C600B7A7BB9A2
:1009F0004B7A0C8843EA445302F5C07404EB0014AC
:100A00002468234302F5C07404EB0014236010E053
:100A10000B7A4C6843EAC4034C7A234302F5C07452
:100A200004EB00142468234302F5C07404EB0014A3
:100A300023608B7A03F00F038B7202F5C07303EB14
:100A400000135B6823F00F0402F5C07303EB00137F
:100A50005C6002F5C07303EB00135B688C7A234380
:100A600002F5C07404EB001463608B7B1C064B7BA7
:100A700044EA03440B7B44EA0323CC7A234302F584
:100A8000C07404EB0014A3608B7C1C064B7C44EA0E
:100A900003440B7C44EA0323CC7B234302F5C0745C
:100AA00004EB0014E36002F5C07303EB00131B6852
:100AB00043F0010402F5C07303EB00131C6010BD8A
:100AC00010B586B00446FFF787FBFF2190FBF1F2DB
:100AD00001FB120037490870FFF77EFBFF2190FBF6
:100AE000F1F201FB120034490870FFF775FBFF219A
:100AF00090FBF1F201FB120030490870FFF76CFB2C
:100B0000FF2190FBF1F201FB12002D490870FFF765
:100B100063FBFF2190FBF1F201FB120029490870F1
:100B2000FFF75AFBFF2190FBF1F201FB120026496F
:100B30000870FFF751FBFF2190FBF1F201FB12005F
:100B400022490870FFF748FBFF2190FBF1F201FBFF
:100B500012001F490870019400208DF80D008DF8D7
:100B60000C0008208DF80E00124800788DF80F0058
:100B7000114801788DF81010104801788DF8111087
:100B80000F4801788DF812100E4801788DF8131077
:100B90000D4801788DF814100C4801788DF8151067
:100BA0000B4801788DF8161001A90A48FFF7F5FEE9
:100BB00006B010BD02000020030000200400002049
:100BC000050000200600002007000020080000208B
:100BD00009000020006400407047000008B50121B2
:100BE000052000F02BF90121480600F007F94FF429
:100BF0000060ADF8000003208DF8020004208DF89D
:100C0000030069460D4800F01BF84FF48050ADF822
:100C1000000018208DF803006946084800F010F81D
:100C20001E20ADF8000003208DF8020010208DF882
:100C300003006946014800F003F808BD00080140C0
:100C40002DE9F04102460025002600200023002463
:100C5000002791F803C00CF00F0591F803C00CF0C9
:100C6000100CBCF1000F03D091F802C04CEA05054E
:100C700091F800C0BCF1000F31D0146800202BE0C7
:100C80004FF0010C0CFA00F3B1F800C00CEA0306B7
:100C90009E4220D183004FF00F0C0CFA03F7BC43A7
:100CA00005FA03FC4CEA040491F803C0BCF1280FD8
:100CB00006D14FF0010C0CFA00FCC2F814C00AE097
:100CC00091F803C0BCF1480F05D14FF0010C0CFAAC
:100CD00000FCC2F810C0401C0828D1D31460B1F841
:100CE00000C0BCF1FF0F34DD546800202EE000F19D
:100CF000080C4FF0010808FA0CF3B1F800C00CEA38
:100D000003069E4221D183004FF00F0C0CFA03F72B
:100D1000BC4305FA03FC4CEA040491F803C0BCF19F
:100D2000280F05D100F1080C08FA0CF8C2F814805D
:100D300091F803C0BCF1480F07D100F1080C4FF047
:100D4000010808FA0CF8C2F81080401C0828CED31D
:100D50005460BDE8F081416170470161704700BF98
:100D6000FEE700BFFEE7704708B514208DF80000CD
:100D700000208DF801008DF8020001208DF803009D
:100D8000684600F001F808BD70B5002100230F226D
:100D9000C47804B3154C246804F4E064C4F5E0643A
:100DA000210AC1F10403CA40447804FA03F18478AB
:100DB0001440214309010E4C0678A155047804F033
:100DC0001F050124AC4005786D11AD0005F1E0254B
:100DD000C5F8004109E0047804F01F050124AC4087
:100DE000044D0678761145F8264070BD0CED00E004
:100DF00000E400E080E100E07047000029B1064A0D
:100E0000D2690243044BDA6104E0034AD2698243A7
:100E1000014BDA61704700000010024029B1064A18
:100E200012690243044B1A6104E0034A12698243C7
:100E3000014B1A61704700000010024029B1064AB8
:100E400092690243044B9A6104E0034A9269824327
:100E5000014B9A61704700000010024030B500213C
:100E60000022002400232D4D6D6805F00C0121B1F6
:100E7000042905D0082923D105E0294D056022E089
:100E8000274D05601FE0254D6D6805F47012234D58
:100E90006D6805F48034022505EB92421CB9214DA2
:100EA000554305600BE01D4D6D6805F400351DB11F
:100EB0001C4D5543056002E0194D5543056002E0A5
:100EC000174D056000BF00BF144D6D6805F0F001BF
:100ED0000909154D6B5C0568DD4045600F4D6D6877
:100EE00005F4E061090A104D6B5C4568DD408560E2
:100EF0000A4D6D6805F46051C90A0B4D6B5C45687D
:100F0000DD40C560054D6D6805F44041890B074D16
:100F10006B5CC568B5FBF3F5056130BD00100240A0
:100F200000127A0000093D00150000202500002075
:100F3000704710B500F002F810BD00000CB500209D
:100F4000019000903348006840F4803031490860D7
:100F500000BF3048006800F4003000900198401C49
:100F60000190009818B90198B0F5A06FF1D1294807
:100F7000006800F4003010B10120009001E0002072
:100F800000900098012843D12348006840F01000E9
:100F9000214908600846006820F003000860084600
:100FA000006840F0020008601A484068194948602B
:100FB0000846406848600846406840F480604860E1
:100FC0000846406820F47C1048600846406840F4B9
:100FD000E81048600846006840F08070086000BF74
:100FE0000C48006800F000700028F9D009484068FB
:100FF00020F00300074948600846406840F00200BE
:10100000486000BF0348406800F00C000828F9D190
:101010000CBD00000010024000200240042808D14E
:101020004FF0E021096941F004014FF0E022116125
:1010300007E04FF0E021096921F004014FF0E022C0
:1010400011617047012808D14FF0E021096941F092
:1010500001014FF0E02211610EE0811C41B94FF017
:10106000E021096921F001014FF0E022116103E064
:1010700000214FF0E0229161704710B50146002237
:1010800000230020CB10022B03D14FF0E024226973
:1010900002E04FF0E024E26901248C4014400CB1DE
:1010A000012000E0002010BD704740B14FF0E0216A
:1010B000096941F002014FF0E022116107E04FF0B1
:1010C000E021096921F002014FF0E022116170472F
:1010D0004FF0E0214861704710B51348006840F0B8
:1010E00001001149086008464068104908400E494F
:1010F0004860084600680E4908400B4908600846E9
:10110000006820F4802008600846406820F4FE0053
:1011100048604FF41F008860FFF70BFF4FF000603E
:101120000449086010BD0000001002400000FFF8F4
:10113000FFFFF6FE08ED00E001F40072B2F5007F5B
:1011400000D100BFCA430280704721B1828942F4B6
:101150000052828104E082894DF6FF731A40828139
:101160007047000000B585B0012144F20400FFF78C
:1011700065FE4FF40070ADF8100018208DF81300D4
:1011800003208DF8120004A91C48FFF759FD4FF405
:101190008060ADF8100004208DF8130003208DF856
:1011A000120004A91548FFF74BFD4FF4E130009001
:1011B0000020ADF80400ADF80600ADF80800ADF869
:1011C0000C000C20ADF80A0069460D4800F04CF800
:1011D00040210B48FFF7B0FF012240F2255108489B
:1011E00000F01DF8012240F22771054800F017F8C1
:1011F00001210348FFF7A9FF05B000BD0008014029
:101200000038014002460020B1F5007F00D100BF48
:1012100013880B400BB1012000E000207047F0B5AF
:101220000346002400260025002040F66A17B94234
:1012300000D100BF1846C1F3421401F01F06012778
:1012400007FA06F5012C01D10C3004E0022C01D183
:10125000103000E014301AB107682F43076002E035
:101260000768AF430760F0BD2DE9F04786B005463B
:101270000E460024A24600BFA1460027B08900B157
:1012800000BF2F462C8A4CF6FF700440F0880443C0
:101290002C82AC894EF6F3100440B08831890843A3
:1012A000718908430443AC81AC8A4FF6FF40044087
:1012B000B0890443AC8201A8FFF7D0FD1F488742E4
:1012C00002D1DDF810A001E0DDF80CA0A88900F43F
:1012D000004040B10AEBCA0000EB0A103168490037
:1012E000B0FBF1F807E00AEBCA0000EB0A10316826
:1012F0008900B0FBF1F86420B8FBF0F0040120098C
:10130000642101FB1089A88900F4004040B132201B
:1013100000EBC900B0FBF1F000F00700044308E067
:10132000322000EB09106421B0FBF1F000F00F0057
:1013300004432C8106B0BDE8F0870000003801406E
:10134000C1F308028280704700B585B06A4600216B
:101350001748FFF79AFA1749009808809DF80B0084
:10136000154908709DF80C00144908709DF80D008F
:10137000134908709DF80E00124908709DF80F007F
:10138000114908709DF81000104908709DF811006F
:101390000F4908709DF812000E4908700221044898
:1013A000FFF79EF801200C49087005B000BD000051
:1013B0000064004000000020020000200300002024
:1013C0000400002005000020060000200700002087
:1013D00008000020090000200A00002000BFFEE7EE
:1013E000014600BF7047000000B585B06846FFF7B2
:1013F00035FD6FF00400FFF711FE0020FFF755FEEA
:1014000007490198B0FBF1F0064908704FF4FA5112
:101410000198B0FBF1F00449088005B000BD000060
:1014200000127A00100000201200002070B504465F
:101430001148008800FB04F5B5F1807F01D36FF0FF
:101440007F452846FFF744FE0020FFF7FBFD012003
:10145000FFF7F8FD00BF1020FFF70FFE07490870E7
:10146000084600780128F6D1C01EFFF7EBFD0020EA
:10147000FFF7E8FD70BD00001200002014000020FE
:1014800070B504460D46E1B20548FFF759FF00BFAD
:1014900040210348FFF7B6FE0028F9D0204670BD72
:1014A00000380140FFF7A0FFFFF76EF8FFF75AFE84
:1014B0003848FEF7CDFE38A0FEF7CAFE3AA0FEF788
:1014C000C7FE66E03E480078012832D100203C4942
:1014D00008703CA0FEF7BCFE3F4801883FA0FEF725
:1014E000B7FE4248017842A0FEF7B2FE44480178B8
:1014F00044A0FEF7ADFE4748017847A0FEF7A8FEDE
:101500004948017849A0FEF7A3FE4C4801784CA059
:10151000FEF79EFE4E4801784EA0FEF799FE514818
:10152000017851A0FEF794FE5348017853A0FEF7CE
:101530008FFE4AF2A550FFF7C3FA5448007880B1F5
:1015400002215348FFF709FC04215148FFF705FC2D
:1015500008214F48FFF701FC10214D48FFF7FDFB24
:101560000FE002214A48FFF7F6FB04214848FFF745
:10157000F2FB08214648FFF7EEFB10214448FFF735
:10158000EAFB42480078C04340490870C820FFF792
:101590004DFF97E7BC16000843414E2D427573205E
:1015A00054657374200D0A0043414E2D427573201B
:1015B0005370656564203130306B487A200D0A0025
:1015C0000A00002043414E2052656365697665201C
:1015D00044617461200D0A000000002043414E2048
:1015E0004944202578200D0A000000000200002058
:1015F00043414E5F4441544130202578200D0A007C
:101600000300002043414E5F44415441312025787E
:10161000200D0A000400002043414E5F4441544124
:1016200032202578200D0A000500002043414E5F3E
:101630004441544133202578200D0A000600002043
:1016400043414E5F4441544134202578200D0A0027
:101650000700002043414E5F444154413520257826
:10166000200D0A000800002043414E5F44415441D0
:1016700036202578200D0A000900002043414E5FE6
:101680004441544137202578200D0A000B000020EA
:101690000008014030313233343536373839414271
:1016A00043444546403058003031323334353637C4
:1016B0003839616263646566403078000D0A2A2A11
:1016C0002A2A2A2A2A2A2A2A2A2A2A2A2A2A2A2A7A
:1016D0002A2A2A2A2A2A2A2A2A2A2A2A2A2A2A2A6A
:1016E0002A2A2A2A2A2A2A2A2A2A2A2A2A2A2A2A5A
:1016F0002A2A2A2A2A2A2A2A2A2A2A2A2A2A0D0A87
:101700000000000024170008000000202C0000004A
:101710006C010008501700082C000020440700004E
:101720008801000800000000000000000000000028
:1017300000000000000000000000000000010203A3
:101740000401020304060708090204060800000059
:0400000508000131BD
:00000001FF
