:020000040800F2
:1000000070250020F9010008B928000831260008F1
:10001000B528000867240008BD4300080000000060
:10002000000000000000000000000000FD39000892
:10003000852400080000000087020008113B00082A
:10004000130200081302000813020008130200083C
:10005000130200081302000813020008130200082C
:10006000130200081302000813020008130200081C
:10007000130200081302000813020008130200080C
:1000800013020008130200081302000813020008FC
:1000900013020008130200081302000813020008EC
:1000A00013020008130200081302000813020008DC
:1000B00013020008130200081302000813020008CC
:1000C00013020008130200081302000813020008BC
:1000D00013020008FD3B0008AD3C0008613D00082C
:1000E000130200081302000813020008130200089C
:1000F000130200081302000813020008130200088C
:10010000130200081302000813020008130200087B
:100110008D3B0008C93B00081302000813020008C9
:10012000130200081302000813020008130200085B
:1001300000F002F800F050F80AA090E8000C8244A9
:100140008344AAF10107DA4501D100F045F8AFF286
:10015000090EBAE80F0013F0010F18BFFB1A43F0A5
:1001600001031847544E0000744E0000103A24BF9B
:1001700078C878C1FAD8520724BF30C830C144BF0C
:1001800004680C607047000000230024002500264E
:10019000103A28BF78C1FBD8520728BF30C148BFEA
:1001A0000B607047662904F0BD85642900F0E68085
:1001B000002070471FB500F0C1FF0400002000219F
:1001C00004F0DCFB401C60600020002104F0C0FB58
:1001D000E0601FBD10B510BD01F076FA1146FFF7C3
:1001E000E9FF04F0C5FA01F0CFFC03B4FFF7F2FF1A
:1001F00003BC01F023FD000009488047094800477F
:10020000FEE7FEE7FEE7FEE7FEE7FEE7FEE7FEE7C6
:10021000FEE7FEE704480549054A064B7047000023
:100220002D3B0008310100087019002070250020C6
:100230007021002070210020EFF3108072B670470B
:1002400080F310887047204C204D25604FF000044B
:1002500084F309881E4C4FF0010525701D4C4FF0AA
:100260008055256062B6FEE730B41A4C4FF08055D9
:10027000256030BC704730B4164C4FF08055256077
:1002800030BC704700BF72B6EFF3098028B1203848
:1002900080E8F00F10490968086000B50F488047F2
:1002A0005DF804EB0E480F490A7802700A480E49BF
:1002B0000A680260106890E8F00F203080F3098827
:1002C0004EF0040E62B6704720ED00E00000FFFF24
:1002D000AE00002004ED00E0B40000205130000822
:1002E000A3000020A4000020BC0000200FB404499B
:1002F00010B503AA029800F079FC10BC5DF814FB5D
:10030000240000200FB41CB5074B06AA7B446946A5
:100310000090059800F051FC0020694600F060FC58
:100320001CBC5DF814FB0000D108000070B5044649
:1003300085690068C10601D5302600E02026C00787
:1003400007D070BDD4E9012130469047206A401C97
:1003500020626D1EF6D570BD70B5044685690078C3
:10036000C00707D170BDD4E9012120209047206A41
:10037000401C20626D1EF6D570BD00002DE9F041D5
:100380000646002410687529314616A510D0AFF333
:100390000080002802DA404213A507E031688A078E
:1003A00001D512A502E0490704D511A5012401E0F9
:1003B000AFF3008000210A2206F1240709E0B0FB18
:1003C000F2FCB0FBF2F302FB1C003030785418460C
:1003D000491C0028F3D123462A463046BDE8F041A7
:1003E00000F07FB9000000002D0000002B0000008D
:1003F000200000002DE9F0474FF0000A894604462E
:10040000C0F820A02046E1688847002876D025283B
:1004100006D0D4E901219047206A401C2062F1E710
:10042000E168204600268847C4F81CA0054600273E
:10043000C4F818A02A2D09D0284604F03CF838B397
:1004400004EB8708303DC8F8185019E059F8041B30
:10045000204604EB87029161E1688847012F054639
:1004600018D1E069002820DA26F020061DE0D8F82F
:10047000180000EB800005EB40003038C8F8180089
:100480002046E1688847054604F015F80028EED1BB
:10049000012F0AD02E2D08D12046E16888477F1C05
:1004A0000546022F46F02006C4DBA069002803DAC7
:1004B000404246F00106A061F00701D026F0100688
:1004C0006C2D0AD0682D08D04C2D39D06A2D35D02E
:1004D000742D35D07A2D33D016E0E1682F462046B2
:1004E0008847B84205460AD16C2F27D04FF4806068
:1004F000E168064320468847054605E027E06C2F63
:100500001AD04FF4807006430DB3A5F141001928AD
:1005100002D8203546F400664A4629462046266021
:100520004E46FFF73FFE80B101280BD0F61D26F0A6
:10053000070000F1080965E74020E4E78020D7E7DD
:100540000020D5E706F104095CE7284661E7206A48
:10055000BDE8F0870FB400B58DB010A909900091E7
:100560000B904FF0FF300A9000200C900648784422
:100570000690064878446A4607900F9909A800F04B
:10058000ADFD0DB05DF814FB8B0B0000A30B00005C
:100590002DE9FF5F1D464FF0FF3B91464FF00008ED
:1005A0005F46D5E90146A96901987F1C8847296AF9
:1005B000824688470028F6D1BAF1FF3F0CD0002EC2
:1005C00024F4C06419DD600614D5BAF12B0F09D0EC
:1005D000BAF12D0F0ED103E0584604B0BDE8F09FEC
:1005E00044F48064A96901987F1C8847761E82467E
:1005F000002E02DDBAF1300F03D0B9F1000F26D082
:1006000032E0A969761E01987F1C44F40074884783
:10061000002E824605DDBAF1780F06D0BAF1580FE8
:1006200003D0B9F1000F10D01EE0B9F1000F02D0D5
:10063000B9F1100F18D1A969761E01987F1C24F416
:10064000007488478246102002E0082000E00A205B
:10065000814609E0A96908FB0908761E01987F1CFC
:1006600044F4007488478246002E05DD4946504612
:1006700000F0CEFA0028EDDAE96901988847A00574
:1006800002D46FF00100A8E7E00725D1600613D57A
:10069000600502D5C8F1000000E0404629680A1D47
:1006A0002A600968220501D5087015E0220701D5E6
:1006B000088011E008600FE02868011D29600068CB
:1006C000210502D580F8008006E0210702D5A0F8B8
:1006D000008001E0C0F8008038467EE77047704730
:1006E00070472DE9F0470D4699469246044600F1C1
:1006F00024080168880604D5E06921F01001216012
:1007000000E00120A84201DD471B00E00027A169AD
:100710007A1902EB0900081AA0612078C00602D4F9
:100720002046FFF703FE002608E0D4E901211AF86D
:1007300006009047206A401C761C20624E45F4DB80
:100740002078C0060AD52046FFF7F0FD06E0D4E980
:10075000012130209047206A401C2062381EA7F1FA
:100760000107F4DC07E0D4E9012118F805009047FF
:10077000206A401C2062281EA5F10105F3DC2046FA
:10078000FFF7EAFD2078000602D50220BDE8F087D9
:100790000120FBE770472DE9FF4F0C461E464FF046
:1007A000FF378BB0D2E90001DDF860800A908A46FD
:1007B000C1F30A5505B93D46002108464FF0000037
:1007C000BAF1000F00F4400005DA00EB80004FF4AE
:1007D000400101EA50004FEA9059B9F1010F00DDE4
:1007E000B9460A9850EA4A000ED044F61050A5F2D5
:1007F000FF3545432F14B8F1000F1ED07542291E56
:100800001EDDC9F100021CE0B8F1010F4FF000003D
:1008100001D0302103E0F24305E02154401CB042F6
:10082000FBDB30460022002121540B99C1F80880DF
:10083000C1E900200FB0BDE8F08FBD1B6D1CDEE7E5
:100840004A4600DA694206A800F0C8FE06AB93E803
:10085000070003AB83E8070050460A9901F0F5F959
:100860008DE80700A0F500501F3800900398002D78
:1008700009DD42F21F014A46084403A90390684675
:1008800001F07FFC08E0A0F500504A461F3803A99C
:100890000390684601F09DFC8DE807000004000C01
:1008A00003D04FF0FF30410800E01046B8F1000FD0
:1008B00003D00022009215461EE0751E05D400F0FC
:1008C00045FC303262556D1EF9D5B346012208430E
:1008D00002D000227F1C04E02078302801D10022C1
:1008E0007F1E002A099786D01DE0112D07DA00F03F
:1008F0002DFC303262556D1C50EA0102F5D10843DF
:1009000002D00098C8B10EE00021681E05E0235C0B
:10091000625C63542254401E491C8142F7DBAB46A3
:10092000A81B401E0990002004F80B000B98099AA0
:10093000C0F80880C0E9002B7CE711264FF00008C2
:1009400059E72DE9F04F88460446D21D22F00701F1
:1009500091B0D1E90001CDE90A0103F031FD024671
:100960000B98C00F01D02D2007E02068810701D52A
:100970002B2002E0202101EAC000032A099001D0C7
:10098000072A05DB03464146204600F02DFC0BE11B
:100990002078800601D5E06900E00620B8F1650FF7
:1009A000814606D0B8F1660F18D0B8F1670F70D144
:1009B00031E00020B9F1110F009001DB112301E0BB
:1009C00009F101030AAA01A90CA8FFF7E4FEDDE979
:1009D0000C70002609F10105834647E001204B46D3
:1009E00000904FF000470AAA01A90CA8FFF7D3FE18
:1009F000DDE90DB00C995D46002610B909F1010042
:100A00000D18B9EB050003D4C0F1FF3609F101055B
:100A1000A5EB09002BE0B9F1010F01DA4FF0010954
:100A20000020B9F1110F0090484601DD112300E0CC
:100A300003460AAA01A90CA8FFF7ADFEDDE90C7078
:100A40004D4600268346207800070AD4AB4500DADD
:100A50005D4601A8012D04DD411911F8011C302962
:100A600007D04F4502DA17F1040F04DA012082465D
:100A70000FE06D1EEEE7002F02DCED1B3E4403E0AD
:100A8000781CA84200DD7D1CB81B00F1010A4FF064
:100A900000472078000703D4AA4501DB4FF0FF3A56
:100AA0000021B7F1004F0DF143088DF8431024D019
:100AB00002202B23002F01DA7F422D230A21021E60
:100AC000A0F1010000DC5FB197FBF1FC97FBF1F2B4
:100AD00001FB1C7C17460CF1300C08F801CDEEE749
:100AE000A8F1010003702188090501D5452100E026
:100AF0006521A0F1010800F8011C09980FA9A1EBDC
:100B00000807FF1D00B10120411901EBEA70A1693E
:100B10003844081A401EA0612078C00602D420463E
:100B2000FFF704FC099828B1D4E901219047206A15
:100B3000401C20622078C00622D52046FFF7F6FB35
:100B40001EE0002E04DBB34502DD01A8805D00E05D
:100B50003020D4E901219047206A401C2062761C95
:100B6000AAF101005FEA000A0AD100F0E7FAC068C2
:100B70000168405CD4E901219047206A401C206252
:100B8000281EA5F10105DCDC07E0D4E9012118F8F5
:100B9000010B9047206A401C2062381EA7F1010714
:100BA000F3DC2046FFF7D8FB032011B043E600003A
:100BB00001694A1C02610878704700B58FB0CDE921
:100BC00001310021059105497944CDE90310114611
:100BD0006846FFF70FFC0FB000BD0000E5FFFFFF08
:100BE0000A6802F8010B0A6070470000074B70B5F5
:100BF0000D467B44FFF7E1FF0446284600F05CFD0C
:100C000010B14FF0FF3070BD204670BDF3390000C9
:100C10003A2800D2303820F02002412A01D3A2F134
:100C20003700884201D34FF0FF3070472DE9FF4F66
:100C3000064689B00878FF2806D0491C2D2805D023
:100C400000244FF0000908E000200CE00124F8E740
:100C500009EB8903491C00EB43090878FF28F7D109
:100C600014B1C9F100008146107800252C46AA462F
:100C700029462D2801D02B2804D1521C2D2813D011
:100C8000002082468B461078FF280FD04FF0000CD2
:100C90000A21521CA5FB017804FB018105FB0C1104
:100CA000C5194BEB0104EEE70120EAE700210846F5
:100CB0004FF00000BAF1000F02D000EB80004008B6
:100CC000C0F38158B8F1010F01DD4FF0FF380C98E7
:100CD00009EB000755EA040009D04FF0020917F5A7
:100CE000FA7F0BDA4FEACA70C6E900B012E04FEAA9
:100CF000CA70C6E900B00DB0BDE8F08FB7F5FA7F55
:100D00000DDDF0487844D0E90010C6E9001040EA53
:100D1000CA70706000F016FAC0F80090EBE7391E58
:100D200002DAC8F1000200E0424600DA794206A881
:100D300000F054FC06AB93E8070003AB83E8070020
:100D400044F23E005BEA04010090584604D144F2AC
:100D50001E012C465D460091210C0904014306D179
:100D60000099240444EA15442D041039009104F03C
:100D70007F41014306D10099240244EA15642D0203
:100D80000839009104F07041014306D10099240113
:100D900044EA15742D01091F009104F040410143FC
:100DA00006D10099A40044EA9574AD00891E009113
:100DB00004F00041084304D100986D196441401EBD
:100DC000009042466846002FCDE9014503A902DDA7
:100DD00001F013FA01E001F0E8F9BAF1000F04465E
:100DE0000D4601D084F0004440F2FF7724F000402B
:100DF000284303D0C4F30A50B84212D100F0A2F93C
:100E0000C0F80090C4F30A50B8420AD1AE48784402
:100E1000D0E90010C6E9001004F0004108437060FA
:100E200069E7C6E9005466E72DE9FF4F1F464FF01A
:100E3000000A4FF0FF38454691B0D7E90146CDF89A
:100E40003CA000F07BF9C0680168405C1090B96973
:100E500012986D1C8847396A814688470028F6D168
:100E6000B9F1FF3F0AD0002E24F4D06411DDB9F1AE
:100E70002B0F08D0B9F12D0F0BD102E0404615B071
:100E80003AE744F48064B96912986D1C8847761E6D
:100E90008146600504A901D52D2000E02B20002EFD
:100EA00001F1010B0DF130088DF810003FDDB9F1B3
:100EB000690F08D0B9F1490F05D0B9F16E0F02D012
:100EC000B9F14E0F1CD13B4601A8009580E85002B5
:100ED000DDE912126FF0020003F08AFFC11CCED1CF
:100EE0000EE0B96912986D1C884781461398761EEA
:100EF00044F4007405600F98401C002E0F9016DD1E
:100F0000B9F1300FEDD0B9F1780F02D0B9F1580F27
:100F10000DD10F9801280AD13B46CDE90054DDE9F7
:100F20001212001F029603F061FFC11CA7D1109995
:100F300089453ED144F0800406E01399681CAAF16B
:100F4000010A44F400740860B9696D1C1298761E99
:100F5000884730288146F0D02BE01099894505D18B
:100F6000200603D4761E44F0800418E0484603F0BF
:100F7000A2FA08B3761E0DF123018B4544F40074E8
:100F800008D2A9F130000BF8010B200607D5AAF111
:100F9000010003E0200602D40AF101008246A00508
:100FA00002D51399681C0860B96912986D1C8847AE
:100FB0008146002ED1DC53E0002E51DDB9F1650FE2
:100FC00002D0B9F1450F4BD1A00549D5B9696D1CC7
:100FD0001298761E24F440748847002E81460CDD5A
:100FE0002B2804D0B9F12D0F07D144F48074B969CE
:100FF00012986D1C8847761E8146E00501D52D218B
:1010000000E02B2108F8011BCDF8008021E0761EBE
:101010000DF13901884544F400740CD2A9F1300077
:1010200010F0FF0088F8000002D10099884509D926
:1010300008F1010806E0E00501D5244801E042F28C
:101040000F708246B96912986D1C884781461398C3
:101050000560002E04DD484603F02DFA0028D6D1A5
:10106000F96912988847FF2053468BF8000088F8EA
:10107000000000200A900B9004AA0CA90AA8FFF710
:10108000D5FDA00502D46FF00100F8E614F0240F9E
:101090000AD0E00714D13868DDE90A12031D3B606D
:1010A0000068C0E900120BE00AA9684603F0ACF939
:1010B000E00705D13868009A011D396000680260B8
:1010C0002846DCE6D0420000C6410000F1D8FFFF10
:1010D000026811441378016018467047D1600549D1
:1010E000794451610449794411620021116111462A
:1010F00000F0BAB8EDFFFFFFED000000426842B11A
:10110000016811F8013B23B1521EC0E900121846D4
:1011100070470121C160881E704742685AB1C36898
:10112000016843B983688B4205D0491E521CC0E94F
:101130000012002070474FF0FF30704700487047A2
:1011400030190020004870471019002030B5B0F168
:101150000A024FEA900E71F100034EEA817EB0EB75
:101160000E0061EB91014FEA101E4EEA017E10EB7A
:101170000E0041EB11114FEA102E4EEA016E10EBFA
:101180000E0041EB11214FEA104E4EEA014E10EBDA
:101190000E0041EB1141401841F100014FEAD0002F
:1011A00040EA41704FEAD10110EB80054FEA81041B
:1011B00044EA907444EB01046D1944EB0404521B9F
:1011C000A3414FF0000348BF0A3200D530BD401C98
:1011D00041F1000130BD10B5044600F09BFA0068F3
:1011E000005D00F0010010BD2DE9F0411F460446EE
:1011F00003260168072A01F4006004DB08B116A584
:1012000005E016A503E008B115A500E015A521F03D
:1012100010002060A069C01EA0610FB1401EA06137
:101220002046FFF783F84FB1D4E9012138469047B3
:10123000206A401C2062C01C206206E0206AFAE797
:10124000D4E9012115F8010B9047761EF8D220460B
:10125000FFF782F8BDE8F0814E414E006E616E00EE
:10126000494E4600696E66002DE9F34F4FF0000AC3
:101270000C4656468DB001200C9001F10C000B90ED
:1012800062690B980121904705002DD0252D2CD0A7
:10129000216A8847C0B162690B9801219047216A91
:1012A00088470028F7D16269411E0B98904700E0FB
:1012B000761CA1690D988847216A88470028F7D1D4
:1012C000E1690D988847DBE7A1690D988847A84236
:1012D000074601D1761CD3E7E1690D9888477F1C4A
:1012E00002D1BAF1000F6FD06BE162690B98002751
:1012F0003D46394690472A2804D162690B9801215E
:1013000090470125DFF8D08262690B980121904750
:10131000A0F130010A290AD24745E5DC07EB870135
:1013200000EB4107303FDFD445F01005ECE7E9065C
:1013300001D46FF000476C280AD04C2814D06828DC
:1013400015D06A280DD074281CD07A281AD01DE038
:1013500062690B98012190476C2802D045F0040582
:1013600014E045F002050DE045F020050AE0626951
:101370000B9801219047682802D045F0080505E048
:1013800045F4006562690B9801219047C4E9015753
:1013900065283DD019DC58287AD00CDC452837D098
:1013A00004DC252826D041289ED131E046282FD0C4
:1013B000472899D12CE05B2877D0612828D0632872
:1013C0007CD0642823D15AE0F6E06F2848D008DCAE
:1013D00066281DD067281BD0692821D06E2816D119
:1013E00027E0702845D0732868D0752847D0782822
:1013F0000DD14DE0A1690D988847252805463FF499
:1014000069AFE1690D9888476D1C3FF46AAFD8E079
:101410000D9923466A466FF0010003F0E5FCC5E034
:1014200045F0400023464FF000026060A80736D424
:101430003EE0E8077FF447AF2068011D21600068A7
:10144000290501D506701BE7290701D5068017E796
:10145000A90703D5F117C0E9006111E706600FE79E
:1014600045F0400023464FF008026060A80716D4FC
:101470001EE040F60E0125EA0100606016E045F02E
:10148000400023464FF00A026060A80707D40FE02F
:1014900045F040006060A80708D5234610220D994A
:1014A0006FF00100AFF3008080E007E010222346D8
:1014B0000D996FF00100FFF76BF877E04FF000092E
:1014C00063284F46C8464B46CB4602D05B2806D021
:1014D00038E0E80601D40120A060012732E062690B
:1014E000D4F80CB00B98012190475E2807D14FF03B
:1014F000010949466269D4F80CB00B9890472169FC
:1015000039B900210A4603AB43F82120491C0829B8
:10151000FADBD8B3216949B308F1010862690B9875
:10152000012190475D28F4D1B9F1000F09D00020C6
:1015300003A951F82020D24341F82020401C08285C
:10154000F7DB03AB2069002820794FEA40701ED0FA
:101550005B462246CDF80080CDE901970D99002821
:101560006FF0010020DAAFF300801FE0C11703AA7B
:1015700000EBD1614B1121F01F0102EB8302411AF4
:1015800013680120884003431360C7E719E00D99F1
:10159000224600286FF00100009702DAAFF30080C6
:1015A00004E0AFF3008001E0AFF3008000280ADA26
:1015B000401C06D10C9820B14FF0FF300FB0BDE8B1
:1015C000F08F5046FAE7E90701D10AF1010A064413
:1015D00000200C9054E60000CCCCCC0C2DE9F04758
:1015E000814616468AB0334878440DC88DE80D0010
:1015F00030487844801C03AC0DC884E80D0041F6E7
:101600009B300844372190FBF1F290FBF1F5A5F1F6
:10161000800501FB12041B3C02D56442012000E05E
:101620000020DFF890A080460027FA44AAF1BE0A05
:101630000DE0E00709D03246684607EB47010AEBA8
:10164000810100F0C6FD8DE8070064107F1C002CAE
:10165000EFD1184F7F44AC3F18E0E80714D007EBF8
:1016600004100DF1180A90E80E008AE80E00C06818
:10167000F04201D198190890324606A903A800F05B
:10168000A8FD03AB83E807006D10641C002DE4D1B6
:1016900032466946B8F1000F03A802D000F071FD90
:1016A00001E000F096FDC9E90001C9F808200AB080
:1016B000BDE8F087B4390000007B00F0800070477F
:1016C00000487047101900207546FFF7F9FFAE4635
:1016D00005006946534620F00700854618B020B53E
:1016E000FEF798FDBDE820404FF000064FF00007E0
:1016F0004FF000084FF0000B21F00701AC46ACE8BA
:10170000C009ACE8C009ACE8C009ACE8C0098D4626
:101710007047000010B5FFF711FD001D10BD00BFA0
:101720005D32000010B5FFF70DFD006810BD10B56B
:101730000446FFF707FD046010BD00002DE9FF4FD0
:101740001F464FF03C0987B04FF00042DDE914100E
:1017500001F10108DDF858A002EA40500390002092
:1017600004908346054604460590B969461E0898CC
:101770008847AAF1010A0290BAF1000F37DD0298FA
:101780002E2815D01021FFF743FA00282ADB4FF04E
:10179000010B0499014316D0B9F1000F0BDB4A4647
:1017A000C11700F037FA05430C43A9F1040905E01D
:1017B0000120059007E008B145F0010501200490E3
:1017C000059800B9361DB969089808F101088847DD
:1017D000BBF1000FAAF1010A0290CDD00999C1F81E
:1017E0000080C9E70298702808D0502806D0F9690F
:1017F00008988847BBF1000F14D04FE000200290FA
:101800000120BBF1000F049009D0B969089808F1D4
:1018100001088847AAF10109B9F1000F07DCF9694D
:10182000089888476FF001000BB0BDE8F08F2B28B7
:1018300004D02D280CD14FF0FF300490B9690898DE
:1018400008F101088847A9F10109B9F1000FE6DDA7
:10185000411CE4D00A21FFF7DBF90028DFDB029905
:1018600008F1010801EB810100EB41000290B96928
:10187000089888470A21FFF7CBF9099AA9F10109CD
:10188000B9F1000FC2F8008001DD0028E7DAF9693C
:10189000089888470499029800FB016655EA0400FD
:1018A00004D004F04041090002D006E0039898E01B
:1018B000A40044EA9574AD00B61E04F0004108008F
:1018C00002D16D196441761E159810F0240F03D0D3
:1018D0004FF00B095C4803E04FF028096FF07D00E2
:1018E0008246564507DAAAEB06018944B9F1410F51
:1018F00001DD4FF0410901200021A9F1010200F0B2
:1019000089F9024628400B462140084301D00121B5
:1019100000E00021501E029143F1FF312840214098
:10192000084301D0012000E000200299834651EADB
:101930000B014FD0002108464FF00000039900F43E
:10194000400039B100EB80004FF4400100EBD07053
:1019500001EA60008015012802DD4FF0FF3000E051
:1019600013D0401C36D0029860B3BBF1000F0CD1ED
:101970004A460120002100F04DF92840214008434B
:1019800001D0012000E00020E0B101204A46002102
:1019900000F040F9034640190A4661412D1A8C4176
:1019A00011D3B9F1400F09DD159810F0240F02D0C2
:1019B000AAF1340603E0AAF1170600E0761C002520
:1019C0004FF0004406E05B1E42F1FF3220EA0305BF
:1019D00021EA0204CAF10100B04206DA1B49039869
:1019E00008430190002000900EE0039AC4F3D32135
:1019F000E80A0A43164940EA44500A433146CDE911
:101A00000002684602F04CFD159810F0240F0BD030
:101A10001598C00715D13868DDE90012031D3B6039
:101A20000068C0E900120CE002A8694602F0ECFC74
:101A30001598C00705D13868029A011D3960006801
:101A400002604046F0E6000002FCFFFF0000F07F6D
:101A50000000F03F2DE9FF4F92461D4685B04FF044
:101A60000041DDE9124BDDE914727F1E01EA4B50A3
:101A7000414940F0FF4940EA0108002122F02000DE
:101A80004928049102D04E2828D04CE03BA00126E2
:101A900007C88DE80700A9690698641C88477F1E5F
:101AA000014606D41DF8060018B121F0200181423C
:101AB0000BD0E96906988847032E34D0082E32D01F
:101AC0006FF0010009B0BDE8F08F761C032E01D045
:101AD000082EE0D1601CCAF80000DCE7A96906986E
:101AE000641C88477F1E2AD420F02000412826D17C
:101AF000A9690698641C88477F1E20D420F0200026
:101B00004E281CD1A9690698641C88477F1E48F49A
:101B1000002849F48009CAF8004001D4282806D0DA
:101B2000E969069888475FEACB7012D022E0A9697C
:101B30000698641C88477F1E01D4002803DAE969EF
:101B400006988847BCE72928F1D1641CCAF80040F0
:101B5000E9E71BF0240F07D028680499031D2B60C8
:101B60000068C0E9001805E02868021D2A600068C6
:101B7000C0F800902046A5E70000F07F494E464996
:101B80004E495459000000000446AFF3008020463F
:101B9000FEF72BFB4FF0013C50F8042B51F8043BAF
:101BA0009A4221D1A2EB0C03934313EACC1317D131
:101BB00050F8042B51F8043B9A4215D1A2EB0C03C8
:101BC000934313EACC130BD150F8042B51F8043B88
:101BD0009A4209D1A2EB0C03934313EACC13DBD056
:101BE0004FF00000704700BFD01A01BAB1FA81F17E
:101BF00001F0180122FA01F0CB40C1F12001DBB263
:101C0000C0B2C01A2CFA01F3D11A914311EAC311E0
:101C1000E6D17047B2F120030AD5C2F1200301FAE0
:101C200002F120FA03F300FA02F041EA03017047DF
:101C300000FA03F14FF0000070470000014918203E
:101C4000ABBEFEE72600020070475FEA400C08BF0B
:101C500091F0000F4FEA8C234FEAC12243EA515121
:101C60004FEA1C5018BF00F5F0404FEA300018BF93
:101C700041F000415FEA6C5C00F02980BCF1FF3F5D
:101C800008BF40F080407047130C06BF12044FF0AD
:101C9000100C4FF0000C130E04BF12020CF1080CD4
:101CA000130F04BF12010CF1040C930F04BF920038
:101CB0000CF1020CD30F04BF52000CF1010C1146C1
:101CC0004FF00002A0F11F00A0EB0C00704711F0D4
:101CD000004F08BF704731F000413FF4D5AF0B0C07
:101CE00006BF09044FF0100C4FF0000C0B0E04BFA0
:101CF00009020CF1080C0B0F04BF09010CF1040CD4
:101D00008B0F04BF89000CF1020CCB0F04BF4900FC
:101D10000CF1010CCCF12003A0EB0C0022FA03F330
:101D200002FA0CF241EA030100F10100704720F0D1
:101D30007F4C80EA030023F07F47ACEB070303F5F9
:101D40007C5300F0004003F1FF032DE980494FEA86
:101D5000154B09B44FEA144325EA0B4E24EA034815
:101D60000FF2042606EB132749083E785FEA320299
:101D700003FB0667C7F5000707FB06F64FEA543773
:101D80004FEAD64606F1020607FB066CCCF1005C72
:101D90004FEA1C472CEA074C07FB06F40CFB06F540
:101DA00004EB15464FEA961634BF00204FF0004072
:101DB0004FEAD13706FB07FC4FEA1C4C0CFB0BF734
:101DC000D21B03FB0CF761EB07010CFB0EF7B0EB2A
:101DD000074072EB17420CFB08F734BFA2EB074237
:101DE000B2EB074261EB17414FEA0C444FEA91070F
:101DF00006FB07FC4FEA1C4C0CFB0BF7B0EBC74093
:101E000072EB573203FB0CF734BFA2EBC742B2EBC5
:101E1000C74261EB57310CFB0EF7B0EBC70072EB1A
:101E200057720CFB08F734BFA2EBC702B2EBC70234
:101E300061EB5771039F4FEA816141EA921104EB14
:101E4000CC044FEAD1374FEA826206FB07FC42EA34
:101E500090124FEA80604FEA1C4C0CFB0BF7D21B30
:101E600003FB0CF761EB07010CFB0EF7B0EB07402F
:101E700072EB17420CFB08F734BFA2EB0742B2EB40
:101E8000074261EB17414FEA8C554FEA910704EB8B
:101E90009C2406FB07FC4FEA1C4C0CFB0BF7B0EB39
:101EA000C74072EB573203FB0CF734BFA2EBC742BB
:101EB000B2EBC74261EB57310CFB0EF7B0EBC7003A
:101EC00072EB57720CFB08F734BFA2EBC702B2EB00
:101ED000C70261EB577115EB4C254FEA816141EA6E
:101EE00092114FEA82624FEAD13742EA901206FB22
:101EF00007FC44F100044FEA80604FEA1C4C0CFBE5
:101F00000BF7D21B03FB0CF761EB07010CFB0EF781
:101F1000B0EB074072EB17420CFB08F734BFA2EBA3
:101F20000742B2EB074261EB174115EB1C154FEA74
:101F3000813141EA92414FEA823242EA90424FEACD
:101F400080304FEA0C7644F1000448EA03434EEA3D
:101F50000B484FF0000EB2EB080C71EB030724BFE7
:101F6000624639464EEB0E0E4FF0000B0018524100
:101F700049414BEB0B0BB2EB080C71EB03077BF108
:101F8000000B24BF624639464EEB0E0E4FF0000B9D
:101F90000018524149414BEB0B0BB2EB080C71EBB3
:101FA00003077BF1000B24BF624639464EEB0E0E51
:101FB00051EA020718BF46F0010616EB0E7655F1FE
:101FC000000254F1000103D5BDE88901BDE8008895
:101FD000BDE88901BDE80048B619524141EB010155
:101FE000A3F10103704780807F7E7D7C7B7A7978C6
:101FF000777676757473727171706F6E6E6D6C6CCE
:102000006B6A6A696868676666656464636362616F
:102010006160605F5F5E5E5D5D5C5C5B5B5A5A59F0
:10202000595858575756565555555454535352525C
:102030005251515050504F4F4F4E4E4D4D4D4C4CB4
:102040004C4B4B4B4A4A4A494949484848474747FD
:10205000474646464545454444444443434343423A
:10206000424242414141000046EA0646A3F5705310
:102070004FEA164646EA42564FEAD22242EA415217
:1020800010B54FEAD121A3F1010300F017F820F0B9
:10209000004000F1010C00F0004701EB0050114638
:1020A000BCF5006F40EA070000D210BD02484FF0B7
:1020B000000140EA070010BD0000F07F002B26D48D
:1020C000770021D01CB54FEA370703B44FF010005A
:1020D0004FF010014FF000000FBCBDE810400BF1B5
:1020E000010BBBF1010F08BF5FEA170722BF12F116
:1020F000010211F101014FF0004143F1000300F032
:10210000004043EA00007047F9D35708DAE746EA8F
:10211000064613F1400F4FEA16461FDD13F1200F5C
:10212000DFBF16430A46002120335B42C8D0C3F10B
:10213000200746EA064602FA07F74FEA164646EA3D
:102140000706C3F1200722FA03F201FA07F721FA82
:1021500003F14FF0000342EA0702B1E746EA020644
:1021600046EA06464FEA164646EA0106BCBF46EA7C
:102170000646360C4FF000034FF000024FF000010E
:102180009EE72DE9C048934630B491E8380007C86F
:1021900031EA400C48BF34EA430C03D5FFF7C7FDD2
:1021A000FFF78CFFF0BCBDE800882DE9C0489346DE
:1021B00030B491E8380007C831EA400C48BF34EA2F
:1021C000430C03D5FFF7B3FDFFF74EFFF0BCBDE8AE
:1021D00000882DE9C048934630B491E8380007C81C
:1021E00010F0804F08BF13F0804F03D100F019F8B2
:1021F000FFF764FFF0BCBDE800882DE9C0489346B6
:1022000030B491E8380007C810F0804F08BF13F0D1
:10221000804F03D100F005F8FFF726FFF0BCBDE8C2
:10222000008820F07F4780EA030023F07F4C07EB13
:102230000C03A3F57C5300F00040A3F1FE0392F0E1
:10224000000F00F0B38095F0000F00F077802DE9CB
:1022500001494FEA11404FEA144621EA004800FBC9
:1022600006FC24EA064708FB06F607FB08F800FB15
:1022700007F718EB06484CEB164C4FEA124B18EBDD
:1022800007484FEA15464CEB174022EA0B4E0BFB72
:1022900006FC25EA06470EFB06F607FB0EFE0BFBC7
:1022A00007F71EEB064E4CEB164C4FF000061EEBEC
:1022B000074E4CEB174B18EB0B0840F1000018EBE6
:1022C0000E0B58EB000840F100008F1A4FF0000190
:1022D0003CBFC943661B14BFB5EB040C00213CBFD7
:1022E000C943F61B4FEA17444EEA8E0E27EA04450F
:1022F0004FEA1C4704FB07622CEA074C05FB07F773
:102300000CFB05F604FB0CFC16EB074642EB1742F0
:1023100016EB0C4642EB1C421BEB060658EB020286
:10232000414146EA9E0601D5BDE80189B6195241F0
:1023300041EB0101A3F10103BDE801894FEA144516
:102340004FEA114724EA054621EA074C05FB07F44A
:1023500006FB07F70CFB06F105FB0CFC11EB074134
:1023600044EB17444FEA124711EB0C4144EB1C4479
:1023700022EA074C05FB07F206FB07F70CFB06F603
:1023800005FB0CFC16EB074642EB174216EB0C461E
:1023900042EB1C456A1854F1000148BF7047B6195A
:1023A000524141EB0101A3F10103704795F0000F89
:1023B00037D04FEA11424FEA144721EA024624EA95
:1023C000074C02FB07F106FB07F70CFB06F402FBC8
:1023D0000CFC14EB074441EB17414FEA154714EB93
:1023E0000C4441EB1C4125EA074C02FB07F506FBB8
:1023F00007F70CFB06F602FB0CFC16EB074645EB59
:10240000174516EB0C4645EB1C42121951F1000121
:1024100048BF7047B619524141EB0101A3F10103D6
:1024200070474FEA14454FEA114724EA054621EA6E
:10243000074C05FB07F106FB07F70CFB06F24FF014
:10244000000605FB0CFC12EB074241EB174112EBB7
:102450000C4251EB1C4148BF7047921841EB0101FF
:10246000A3F10103704700BFFEE7000010B5034A67
:102470000121034800F0A2F910BD0000A086010070
:102480000054004070472DE9F04102460025002627
:10249000002000230024002791F803C00CF00F0552
:1024A00091F803C00CF0100CBCF1000F03D091F8B0
:1024B00002C04CEA050591F800C0BCF1000F31D014
:1024C000146800202BE04FF0010C0CFA00F3B1F877
:1024D00000C00CEA03069E4220D183004FF00F0C8F
:1024E0000CFA03F7BC4305FA03FC4CEA040491F828
:1024F00003C0BCF1280F06D14FF0010C0CFA00FC10
:10250000C2F814C00AE091F803C0BCF1480F05D12D
:102510004FF0010C0CFA00FCC2F810C0401C082857
:10252000D1D31460B1F800C0BCF1FF0F34DD5468A2
:1025300000202EE000F1080C4FF0010808FA0CF31F
:10254000B1F800C00CEA03069E4221D183004FF08F
:102550000F0C0CFA03F7BC4305FA03FC4CEA040425
:1025600091F803C0BCF1280F05D100F1080C08FA5E
:102570000CF8C2F8148091F803C0BCF1480F07D1E1
:1025800000F1080C4FF0010808FA0CF8C2F81080AE
:10259000401C0828CED35460BDE8F081F0B50A464F
:1025A000002300240021002500F00046B6F1004F72
:1025B00002D11D4EF16901E01B4E7168C0F3034565
:1025C00083B200F44016B6F5401F08D121F07061C7
:1025D000154E766826F07066134F7E6012E000F4A8
:1025E0008016B6F5801F06D1032606FA05F4A1432E
:1025F00041F0706106E0460D360103FA06F6B1437C
:1026000041F0706122B1460D360103FA06F63143FE
:1026100000F00046B6F1004F02D1034EF16101E037
:10262000014E7160F0BD0000000001400161704783
:1026300000BFFEE710B504460121082001F054F95F
:1026400034B9C020104908801048FFF71CFF1AE079
:10265000012C0BD14FF440700B4908800B48FFF759
:1026600012FF01210220FFF799FF0CE0022C0AD192
:102670004FF41070044908800448FFF704FF01215B
:102680000220FFF78BFF10BD1C000020000C014052
:1026900010B50446032C09D10121082001F024F9CA
:1026A000A002034908800348FFF7EDFE10BD0000BB
:1026B0001C000020000C014021B1028842F0010200
:1026C000028004E002884FF6FE731A4002807047D1
:1026D0002DE9F04385B004460D460026B146042797
:1026E000DFF8CC80A6884FF6C0700640684601F03F
:1026F0001BF9DDF808802F48B8FBF0F01FFA80F9CD
:1027000046EA0906A68020884FF6FE710840208020
:1027100000262949286888420CD828684000B8FB60
:10272000F0F087B2042F00DA04273E4309F10100DC
:10273000208427E0E8884BF6FF71884206D128689C
:1027400000EB4000B8FBF0F087B209E0286800EB2E
:10275000C00101EB0010B8FBF0F087B247F48047EE
:10276000C7F30B0008B947F0010747F400400643E0
:102770004FF4967009FB00F04FF47A7190FBF1F082
:10278000401C2084A683208840F0010020802688F9
:102790004FF6F5300640A88869890843064326802D
:1027A000A88929890843208105B0BDE8F08300008D
:1027B00000127A0040420F00A08601007FB5044657
:1027C0000E4615460121084601F08EF81C202249CC
:1027D000C870032088702148844216D10121480521
:1027E00001F062F83046FFF725FF00952014ADF8A0
:1027F0000C000020ADF80400ADF80800ADF80A00A8
:102800004BF6FF70ADF8060018E01548844215D16C
:102810000121880501F048F83046FFF739FF00959F
:102820002014ADF80C000020ADF80400ADF808004D
:10283000ADF80A004BF6FF70ADF806000021204607
:10284000FFF73AFF69462046FFF742FF0121204685
:10285000FFF732FF7FBD00001C0000200054004045
:102860000058004008B50121182001F03DF8202053
:10287000ADF8000010208DF8030003208DF8020051
:1028800069460A48FFF7FFFD20210848FFF7CEFE02
:102890004FF40050ADF8000069460548FFF7F3FD1E
:1028A0004FF400510248FFF7C1FE08BD000C014083
:1028B0000010014000BFFEE77047000070B5002126
:1028C00000230F22C47804B3154C246804F4E06498
:1028D000C4F5E064210AC1F10403CA40447804FA53
:1028E00003F184781440214309010E4C0678A15568
:1028F000047804F01F050124AC4005786D11AD008B
:1029000005F1E025C5F8004109E0047804F01F0551
:102910000124AC40044D0678761145F8264070BD80
:102920000CED00E000E400E080E100E0024901433A
:10293000024A1160704700000000FA050CED00E04B
:1029400010B500F013F800F033FD00F05BFD00F06F
:102950007BFD00F003FD00F0D5FC00F00FFE00F061
:10296000B3FD00F0D9FD00F002F810BD70477047CC
:1029700006480078012808D105480078FF2804D2CD
:1029800003480078401C024908707047AE000020E0
:10299000A100002010B500241A480078012830D189
:1029A000FDF74AFC04461848007820B11648007824
:1029B000401E1549087014480078F8B9134800788B
:1029C000E0B900F03DFE12481249097850F82100A4
:1029D000114908600F4800781049097888420DD0E5
:1029E0000D480068806B401C0B49096888630C48DF
:1029F0000068401C0A490860FDF73DFC2046FDF7D1
:102A00001FFC10BDAE000020A1000020A20000208D
:102A1000A8130020A4000020BC000020A300002078
:102A20008800002070B5054600260F48007808B1E0
:102A3000002070BDFDF700FC06460C4804680068E5
:102A400020B10A4800684068084908603046FDF730
:102A5000F7FB3CB1012020700020208165602046FA
:102A600000F042FC2046E4E7A10000208C0000209A
:102A70002DE9F04105460F4614464FF0000828782E
:102A8000012804D0012020700020BDE8F0813648E4
:102A9000007818B1022020700020F6E73348007853
:102AA00018B10D2020700020EFE7FDF7C5FB804630
:102AB0006E6846B1002068604046FDF7C1FB00200B
:102AC00020703046E1E72A48006890F8300040F076
:102AD00002002749096881F830000020244909686C
:102AE00081F8310022480068C762284600F0BEFB2A
:102AF0004046FDF7A5FB00F069FDFDF79DFB804614
:102B00001B48006890F8310020B101280DD0022840
:102B10000AD105E016480068066A002020700DE022
:102B200000260E20207009E000BF294610480068EA
:102B300000F086FB00260A20207000BF00BF0020A6
:102B40000B49096881F830000949096881F83100AA
:102B500007490968C8610649096808624046FDF7E7
:102B60006FFB304691E70000A1000020A20000208A
:102B7000B400002070B504460D46002620780128D8
:102B800001D0012070BDFDF757FB0646A07A60B169
:102B9000002302222946204600F010FB3046FDF7B4
:102BA0004FFB00F013FD0020ECE7606820B13046D9
:102BB000FDF746FB1420E5E765603046FDF740FB76
:102BC0000020DFE710B500240B480078012811D160
:102BD000FDF732FB04460948007840B90848007800
:102BE000FF2804D206480078401C0549087020469A
:102BF000FDF726FB10BD0000AE000020A100002064
:102C0000A200002010B5002413480078012821D12B
:102C1000FDF712FB044611480078C0B10F48007858
:102C2000401E0E4908700846007860B90C480078CC
:102C300028B92046FDF704FB00F0C8FC0AE0204656
:102C4000FDF7FEFA06E02046FDF7FAFA02E020461C
:102C5000FDF7F6FA10BD0000AE000020A200002033
:102C6000A100002010B50B48007890B900F0E8FCF6
:102C7000094800780949087009480749097850F857
:102C80002100084908600846006807490860FDF708
:102C9000DAFA10BDAE000020A4000020A30000203E
:102CA000A8130020BC000020B400002070470000E2
:102CB0002DE9FE4F06460F4690461C464FF0000990
:102CC000FDF7BAFA81461F48007828B14846FDF75B
:102CD000B7FA3C20BDE8FE8F1B4850F8240060BBCB
:102CE0000120194941F824004846FDF7A9FA0023BC
:102CF00042463946304600F009F9824600200090ED
:102D000001900346024651460290204600F0AEFC78
:102D1000054635B90D48007801280CD100F056FC65
:102D200009E0FDF789FA81460020074941F82400AF
:102D30004846FDF785FA2846CCE74846FDF780FA75
:102D40002820C7E7A1000020A8130020AE00002023
:102D50002DE9F04F85B081468A4693461C46DDE951
:102D60000F78129D00200390FDF766FA0390234828
:102D7000007830B10398FDF763FA3C2005B0BDE858
:102D8000F08F1F4850F8240088BB01201C4941F8EF
:102D900024000398FDF754FA2A464146384600F0CD
:102DA00075FD2B465A465146484600F0AFF8049050
:102DB0001198CDE9008002953A4620460E9B049971
:102DC00000F054FC064636B90E48007801280CD1B4
:102DD00000F0FCFB09E0FDF72FFA03900020084902
:102DE00041F824000398FDF72BFA3046C6E7FFE7C9
:102DF0000398FDF725FA2820C0E70000A100002075
:102E0000A8130020AE000020704770472DE9F04164
:102E100006460F4614464FF000081548007818B1D2
:102E200012202070BDE8F081FDF706FA8046FF2EE3
:102E300003D11048006890F832600F4850F82650CF
:102E40002DB94046FDF7FCF943202070EAE7012D3B
:102E500005D14046FDF7F4F943202070E2E7EF6426
:102E60004046FDF7EDF90020207000BFDAE70000D2
:102E7000A1000020B4000020A8130020704700002B
:102E80002DE9F04707460D464FF0000A0020286064
:102E90006860FDF7D1F98246FF2F03D11948006819
:102EA00090F83270184850F827402CB95046FDF77A
:102EB000C7F94320BDE8F087012C04D15046FDF747
:102EC000BFF94320F6E7207C00F0010020B950460E
:102ED000FDF7B6F94520EDE70026D4F80C90D4F8BC
:102EE00008805046FDF7ACF900E0761C58F8041B4A
:102EF0000029FAD0B0002860A9EB060080006860C5
:102F00000020D7E7B4000020A813002070B50446C5
:102F100010464FF080750560051F28462C606FF045
:102F20000106051F28462E604FF01236051F284661
:102F30002E604FF00336051F28462E604FF00236F4
:102F4000051F28462E607610051F28462E60051F97
:102F5000284629604FF01136051F28462E604FF095
:102F60001036051F28462E604FF00936051F2846EB
:102F70002E604FF00836051F28462E604FF00736AA
:102F8000051F28462E604FF00636051F28462E6086
:102F90004FF00536051F28462E604FF00436051FFA
:102FA00028462E6070BD00002DE9F04105464FF027
:102FB0000008FDF741F98046FF2D05D12048006843
:102FC00090F83250012608E01D48006890F8320061
:102FD000A84201D1012600E000261A4850F82540F9
:102FE0002CB94046FDF72CF94820BDE8F081012CB2
:102FF00004D14046FDF724F94320F6E794F83470F5
:103000001148C05D94F8351088430F49C8550846EB
:10301000C05D30B994F836100C48007888430B49ED
:10302000087094F8300040F0080084F83000404602
:10303000FDF706F9012E01D100F0C8FA0020D4E70F
:10304000B4000020A8130020A6000020A500002046
:103050007047000070B5054600261748007800B19B
:1030600070BD1648007800B1FAE71DB3FDF7E4F82B
:1030700006461348006890F834401248005D104935
:10308000096891F8351088430E4908550846005DD7
:1030900040B90B48006890F836100B480078884318
:1030A0000949087006480068C5623046FDF7C8F84F
:1030B00000F08CFA00BFD3E7A1000020A20000209E
:1030C000B4000020A6000020A500002070B5002656
:1030D00000F072F8FDF7B0F8064631480068401C71
:1030E0002F4908603046FDF7ABF82E4800780128DC
:1030F00053D12D48007820B1012804D0022809D1ED
:1031000003E001250BE0002509E001250120264907
:10311000087004E0012500202349087000BF00BFAB
:1031200005B970BD2148046833E0FDF785F806460F
:10313000E06A50B3E06A401EE062E06A28BB94F89F
:10314000300000F0370040B114F8300F00F0C80034
:10315000207001206070303C02E0002084F83100D3
:1031600094F8300000F0080078B93434A0781049A1
:10317000097808430E49087020780E49085C617888
:10318000084314F834190B4A505464693046FDF76B
:1031900057F894F832003F28C7D100BFC1E70000BC
:1031A000CC000020AE000020C4000020C0000020A1
:1031B000A5000020A6000020704700002DE9F04F78
:1031C00005460F4690469946A87A19490E5C05F1C6
:1031D0000B00805D11F800B00BEBC60000F0FF0A99
:1031E000144850F82A4000202034E0602760207CFA
:1031F00020EA0800207484F81190207C203C00F024
:10320000080068B994F836000B49097808430A4960
:1032100008700A48805D94F83510084307498855BE
:103220002946204600F00CF85046BDE8F08F00001B
:10323000244E0008A8130020A5000020A6000020AE
:1032400010B590F8342001F10B039B5C90F83540E9
:10325000A34301F10B04A35423469B5C23B98B7A4F
:1032600090F83640A3438B7210BD000010B51B4A86
:103270001268D061194A126892F8343000F10B02DA
:10328000D25C164B1B6893F835301A43134B1B68FE
:1032900093F8344000F10B031A55827A0F4B1B68E8
:1032A00093F836301A4382720C4A126892F834103E
:1032B0000B4A525C094B1B6893F835309A43084B14
:1032C0005A541A46525C42B9044A126892F836308F
:1032D000044A12789A43034B1A7010BDB4000020C0
:1032E000A6000020A5000020014600228A720020CE
:1032F00005E0002301F10B021354421CD0B2082850
:10330000F7D370472DE9F0415021114800F02CF916
:1033100000250DE0681C86B20D4800EB051400EB9B
:1033200006170020207067600AA0E060681C85B264
:10333000042DEFD3064800EB0514002020706060D8
:1033400004A0E060024804490860BDE8F081000084
:10335000580F00203F0000009000002070B5C821E9
:10336000114800F001F900230FE0581C85B203EB6F
:1033700083000D4901EB800405EB850001EB80061D
:10338000002020706660581C83B2092BEDD303EB3C
:103390008300054901EB800400202070606008462E
:1033A0000249086070BD0000900E00208C000020D3
:1033B00000200A4908600A4908700A4908700A4949
:1033C00008700A4908700A4908600A4908600A49F1
:1033D00008600A4908600A4908707047CC0000205C
:1033E000A1000020A2000020AF000020AE000020BD
:1033F00088000020B00000209C00002098000020E1
:10340000A000002000210A4A1170002004E00021E1
:10341000084A1154411CC8B20828F8D30021064AB2
:103420001170064A1170064A1160064A1160704711
:10343000A5000020A6000020A3000020A40000207A
:10344000BC000020B400002070B54FF47C71194816
:1034500000F08AF84FF48071174800F085F80024D6
:1034600013E0601CC5B2C4EBC40000EB400011497E
:1034700001EB8003C5EBC50000EB400001EB8006CB
:103480005E610EA0D864601CC4B20B2CE9D3C4EBFF
:10349000C40000EB4000074901EB800300205861A5
:1034A00006A0D86400200649086002480549086063
:1034B00070BD0000A8140020A81300203F000000E9
:1034C000C0000020B800002000B587B00320002114
:1034D00080220A4BCDE90132CDE903104FF6FF708F
:1034E0003F23074A00900748FFF732FC06AA06A1CF
:1034F0003F20FFF78BFC07B000BD0000A8110020A3
:10350000A4130020A137000875432F4F532D4949BC
:103510002049646C6500000000B587B003200021DD
:1035200080220A4BCDE90132CDE903104FF6FE703F
:103530003E23074A00900748FFF70AFC06AA06A1A7
:103540003E20FFF763FC07B000BD0000A80F00207D
:10355000A4110020C937000875432F4F532D494946
:10356000205374617400000004E0002200F8012B75
:103570004A1E91B20029F8D1704700002DE9F041B0
:1035800078211048FFF7F0FF00240DE0601C86B2A0
:1035900004EB44000B4901EBC00506EB460001EBD0
:1035A000C0072F60601C84B2042CEFD304EB4400EE
:1035B000044901EBC0050020286008460249086064
:1035C000BDE8F08198180020C800002010B5002444
:1035D000FCF732FE044613480078F8B91248007828
:1035E000E0B900F02DF811481149097850F8210090
:1035F000104908600E4800780F49097888420DD0BC
:103600000C480068806B401C0A49096888630B48B5
:103610000068401C09490860FCF726FE2046FCF7BC
:103620000FFE10BDA1000020A2000020A813002062
:10363000A4000020BC000020A3000020880000207F
:103640000649074A1278885C0649095C034A515CBE
:1036500001EBC001044A117070470000244E0008BD
:10366000A5000020A6000020A40000202DE9F84FAE
:1036700005460F4690469946DDE90AAB00200090CA
:10368000FCF7DAFD00903F480468002C74D0183431
:1036900054F8040C3B4908600098FCF7D1FD44F84D
:1036A000187CA576002020766076606144F814BC12
:1036B00044F80CAC44F8108C0C9824F8080C24F84E
:1036C000069C0020E077E810207705F00700E07600
:1036D000217F01208840A077E17E0120884060772B
:1036E00000206060E060A0602062A0626062E06232
:1036F000206325A06063183C002606E0002104F149
:10370000500040F82610701CC6B2002EF6D020469D
:10371000FFF7CCFA2046FFF777FBFCF78DFD009012
:103720001A4840F825401A48006860610020A061EE
:103730001748006810B11648006884611448046096
:103740003434A07813490978084312490870207866
:103750001149085C6178084314F834190E4A505432
:103760000E480078401C0D4908700098FCF768FD71
:103770000020BDE8F88FFFE70098FCF761FD4220CC
:10378000F7E70000B80000203F000000A813002069
:10379000C0000020A5000020A6000020AF000020EF
:1037A000002400BF00BFFCF747FD04460548006841
:1037B000401C044908602046FCF742FDFFF725FB4A
:1037C000F1E70000B0000020002400BF02E0282044
:1037D000FFF740FC194800780028F8D01848006826
:1037E0006421B0FBF1F0164908600846006828B96A
:1037F000002014490870FF20FFF7D6FB00BFFCF73C
:103800001BFD0446104800681049086000200E495E
:1038100008602046FCF714FD0C4800680849096858
:10382000B0FBF1F0C0F1640006490870FFF726FB19
:1038300000F00EF81420FFF70DFCE0E7A0000020D8
:103840009800002094000020B00000209C00002080
:103850007CB5002514E069462846FFF711FB0646B3
:1038600066B9094850F8254044B1012C06D0D4E986
:10387000020100EB810060640198A064681CC5B27D
:103880003F2DE8D97CBD0000A813002002F0010301
:1038900043B102F002032BB102E0491E002308C02D
:1038A0000029FAD17047000029B1064AD2690243C3
:1038B000044BDA6104E0034AD2698243014BDA61C6
:1038C000704700000010024029B1064A1269024305
:1038D000044B1A6104E0034A12698243014B1A61E6
:1038E000704700000010024029B1064A9269024365
:1038F000044B9A6104E0034A92698243014B9A6146
:10390000704700000010024029B1064AD268024305
:10391000044BDA6004E0034AD2688243014BDA6068
:10392000704700000010024030B500210022002442
:1039300000232D4D6D6805F00C0121B1042905D03F
:10394000082923D105E0294D056022E0274D0560B7
:103950001FE0254D6D6805F47012234D6D6805F468
:103960008034022505EB92421CB9214D5543056078
:103970000BE01D4D6D6805F400351DB11C4D554320
:10398000056002E0194D5543056002E0174D0560E2
:1039900000BF00BF144D6D6805F0F0010909154D19
:1039A0006B5C0568DD4045600F4D6D6805F4E061B6
:1039B000090A104D6B5C4568DD4085600A4D6D68F5
:1039C00005F46051C90A0B4D6B5C4568DD40C5606C
:1039D000054D6D6805F44041890B074D6B5CC5686A
:1039E000B5FBF3F5056130BD0010024000127A000E
:1039F00000093D007400002084000020704710B5CD
:103A000000F002F810BD00000CB5002001900090FD
:103A10003348006840F480303149086000BF3048C6
:103A2000006800F4003000900198401C019000985C
:103A300018B90198B0F5A06FF1D12948006800F4D9
:103A4000003010B10120009001E0002000900098AB
:103A5000012843D12348006840F010002149086044
:103A60000846006820F0030008600846006840F03F
:103A7000020008601A4840681949486008464068D2
:103A800048600846406840F48060486008464068E6
:103A900020F47C1048600846406840F4E810486014
:103AA0000846006840F08070086000BF0C4800685D
:103AB00000F000700028F9D00948406820F00300A9
:103AC000074948600846406840F00200486000BF6F
:103AD0000348406800F00C000828F9D10CBD000034
:103AE0000010024000200240042808D14FF0E021DD
:103AF000096941F004014FF0E022116107E04FF045
:103B0000E021096921F004014FF0E02211617047C2
:103B100010B505480078012805D1FEF729FFFFF709
:103B2000D5FAFEF737FF10BDAE00002010B51348E0
:103B3000006840F0010011490860084640681049DB
:103B400008400E494860084600680E4908400B4985
:103B500008600846006820F4802008600846406835
:103B600020F4FE0048604FF41F008860FFF747FF15
:103B70004FF000600449086010BD000000100240D2
:103B80000000FFF8FFFFF6FE08ED00E010B540F280
:103B90002551064800F000FA30B10448001D0088A5
:103BA000C1B2034800F0B0FA10BD0000004C004064
:103BB0004C00002010B504460121C804FFF774FE34
:103BC000072C00D000BF10BD10B540F225510548AC
:103BD00000F0E2F928B103488088C1B2024800F041
:103BE00093FA10BD005000405800002010B5044664
:103BF00001210805FFF758FE10BD000010B540F286
:103C00002551064800F0C8F930B10448001D00886D
:103C1000C1B2034800F078FA10BD0000003801403E
:103C20002800002010B50446E4B901210520FFF763
:103C30005BFE01218803FFF757FE4FF4007018491F
:103C400008801820C870032088701648FEF71BFCF7
:103C50004FF48060124908800420C8701148FEF7B4
:103C600012FC1BE0012C19D101210820FFF73CFEBA
:103C700001218803FFF738FE4020094908801820F9
:103C8000C870032088700848FEF7FDFB80200449B7
:103C900008800420C8700448FEF7F5FB10BD000042
:103CA0007000002000080140000C014010B540F2F7
:103CB0002551064800F070F930B10448001D008815
:103CC000C1B2034800F020FA10BD000000440040DB
:103CD0003400002010B5044601214804FFF7E4FD3C
:103CE000022C1AD101210420FFF7FEFD0121480416
:103CF000FFF7DAFD0420174908801820C870032058
:103D000088701548FEF7BFFB082012490880042080
:103D1000C8701148FEF7B7FB1BE0032C19D1012135
:103D20002020FFF7E1FD01214804FFF7BDFD202021
:103D3000084908801820C870032088700748FEF7DB
:103D4000A2FB4020034908800420C8700348FEF706
:103D50009AFB10BD700000200008014000140140D3
:103D600010B540F22551064800F016F930B104486C
:103D7000001D0088C1B2034800F0C6F910BD000064
:103D8000004800404000002010B50446012188048E
:103D9000FFF78AFD042C1AD101210820FFF7A4FDAA
:103DA00001218804FFF7A0FD20022849088018207F
:103DB000C870032088702648FEF765FB600223491F
:103DC00008800420C8702248FEF75DFB3CE0052C0B
:103DD0001CD101211020FFF787FD01218804FFF786
:103DE00083FD4FF48060194908801820C8700320B3
:103DF00088701848FEF747FB4FF4006013490880AD
:103E00000420C8701348FEF73EFB1DE0062C1BD1B2
:103E100001212020FFF768FD01218804FFF764FDE0
:103E20004FF48070094908801820C87003208870FA
:103E30000948FEF728FB4FF400700449088004206D
:103E4000C8700548FEF71FFB10BD00007000002081
:103E5000000C0140001001400014014010B5034661
:103E6000184600F027F90446E08808B9012010BD83
:103E70000020FCE710B50446204600F01BF903467D
:103E8000D8889988884201D1012010BD0020FCE724
:103E900021B1828942F40052828104E082894DF688
:103EA000FF731A408281704710B50446204884424F
:103EB00009D101218803FFF727FD00214FF480403D
:103EC000FFF722FD32E01B48844209D1012148045A
:103ED000FFF7FAFC00214FF40030FFF7F5FC25E076
:103EE0001548844209D101218804FFF7EDFC002127
:103EF0004FF48020FFF7E8FC18E01048844209D115
:103F00000121C804FFF7E0FC00214FF40020FFF777
:103F1000DBFC0BE00A48844208D101210805FFF7C9
:103F2000D3FC00214FF48010FFF7CEFC10BD000041
:103F3000003801400044004000480040004C004070
:103F40000050004073B50646304600F0B3F8034613
:103F5000DD885C890FE09888A04200D100241868B1
:103F600000579DF80410884201D101207CBD601CDF
:103F700084B2681E85B2002DEDDC0020F6E7024613
:103F80000020B1F5007F00D100BF13880B400BB1BA
:103F9000012000E00020704770B502460024002395
:103FA0000025002040F66A16B14200D100BFC1F3DF
:103FB000421501F01F03012606FA03F3012D02D179
:103FC0009689334006E0022D02D1168A334001E083
:103FD000968A33400C12012606FA04F416883440FF
:103FE00013B10CB1012000E0002070BD30B50446D3
:103FF0000025204600F05EF80346D88800280EDD34
:1040000058899988884201D10020588159891868B7
:1040100045565889401C5881D888401ED880E8B23F
:1040200030BDF0B507460D46164600243846FFF76A
:1040300015FF40B90A213846FFF784FF28B93846F2
:10404000FFF718FF08B90020F0BD0BE03846FFF776
:10405000CDFF2855285D0A2802D1601C84B204E0F7
:10406000601C84B2701EA042F0DC00BF0020285506
:104070002046E9E701460A4A914200D10020094A58
:10408000914200D10120084A914200D10220074A02
:10409000914200D10420064A914200D10520704788
:1040A000003801400044004000480040004C0040FF
:1040B0000050004001460A4A914200D109480A4A8C
:1040C000914200D109480A4A914200D109480A4A5E
:1040D000914200D109480A4A914200D109487047EB
:1040E0000038014028000020004400403400002037
:1040F0000048004040000020004C00404C000020E0
:10410000005000405800002010B5C28883889A42B1
:104110000FDA028983889A4201D1002202814AB2D1
:10412000048903681A550289521C0281C288521CF4
:10413000C28010BDF0B503460024002600250020F3
:1041400040F66A17B94200D100BF1846C1F34214C5
:1041500001F01F06012707FA06F5012C01D10C30EA
:1041600004E0022C01D1103000E014301AB10768CD
:104170002F43076002E00768AF430760F0BD00000F
:104180002DE9F04786B005460E460024A24600BF42
:10419000A1460027B08900B100BF2F462C8A4CF6FB
:1041A000FF700440F08804432C82AC894EF6F31073
:1041B0000440B08831890843718908430443AC81C5
:1041C000AC8A4FF6FF400440B0890443AC8201A89A
:1041D000FFF7AAFB1F48874202D1DDF810A001E0DB
:1041E000DDF80CA0A88900F4004040B10AEBCA0039
:1041F00000EB0A1031684900B0FBF1F807E00AEB68
:10420000CA0000EB0A1031688900B0FBF1F86420A5
:10421000B8FBF0F004012009642101FB1089A88992
:1042200000F4004040B1322000EBC900B0FBF1F0D7
:1042300000F00700044308E0322000EB091064217D
:10424000B0FBF1F000F00F0004432C8106B0BDE894
:10425000F08700000038014013B5044600BF8021FC
:104260002046FFF78CFE0028F9D09DF80400A080BE
:104270001CBD000070B586B004460D461646029679
:104280004948844212D12846FFF7CCFC25208DF8FE
:1042900004000020ADF814000C20ADF8120000203E
:1042A000ADF81000ADF80E00ADF80C003F488442A8
:1042B00012D12846FFF70EFD26208DF804000020BD
:1042C000ADF814000C20ADF812000020ADF810007D
:1042D000ADF80E00ADF80C003548844212D12846E6
:1042E000FFF752FD27208DF804000020ADF81400E0
:1042F0000C20ADF812000020ADF81000ADF80E0053
:10430000ADF80C002B48844212D12846FFF752FC2E
:1043100034208DF804000020ADF814000C20ADF816
:1043200012000020ADF81000ADF80E00ADF80C0042
:104330002148844212D12846FFF758FC35208DF8D9
:1043400004000020ADF814000C20ADF8120000208D
:10435000ADF81000ADF80E00ADF80C0000212046BD
:10436000FFF796FD2046FFF79FFD02A92046FFF7C5
:1043700007FF01212046FFF78BFD012240F2255166
:104380002046FFF7D7FE01208DF8070000208DF8AA
:1043900005002046FFF76EFE8DF8060001A8FEF727
:1043A0008DFA06B070BD00000038014000440040A6
:1043B00000480040004C00400050004000BFFEE7B5
:1043C000490050EAC12018BF04204A0D18BF40F030
:1043D000010040F2FF72B2EB515F08BF40F00200F3
:1043E000012808BF0520704740F2013200204FF03D
:1043F000E04100F0CBBC0000024A0020110700F0B1
:10440000C5BC000001FDFFFF10B50446D1E9000165
:1044100000F002F8206010BDF8B504460D466A466B
:1044200000F0EEF800987E30009000281FDC00229B
:1044300013462046294600F0FDFA18D0002140F628
:1044400008004FF0000006462046294600F0ACFA6E
:10445000044640F6080006EA00014FF0000034F080
:10446000004004BF0220FDF762F92046F8BD009825
:10447000FF280DDB0220FDF75AF9002213462046E3
:10448000294600F0A3FB8CBF04484FF0FF40F8BD65
:1044900020462946BDE8F84000F086BA000080FFBB
:1044A00010B504460A46D4E90003194600F0D4F8D2
:1044B000C4E9000110BD30380A2801D2012070473C
:1044C0000020704710B56FF00400FFF70DFB104897
:1044D00000681049B0FBF1F00F4908700C48006803
:1044E0000C49B0FBF1F441F28830444305200B49FC
:1044F00008804FF0E020006940F002004FF0E0211A
:10450000086108464461006940F00100086110BD7F
:104510000400002000127A00200000202200002069
:1045200070B504460F480078A0B10F48007888B9EC
:104530000E480088844206DB0C48008894FBF0F5A6
:10454000284600F01DF80948008894FBF0F100FBB4
:10455000114084B24FF47A7104FB01F000F016F8B8
:1045600070BD0000AE000020A1000020220000204D
:1045700010B5FEF727FB10BD10B5FEF743FB10BDCD
:1045800010B504462046FEF765FD10BD2DE9F04745
:10459000074600264FF0E020D0F81490114800782C
:1045A00007FB00F800BFFFF7E3FF4FF0E02085694D
:1045B00011E04FF0E0208469AC420CD0AC4202D252
:1045C000281B064403E0A9EB0400284406442546C2
:1045D000464500D300E0ECE700BFFFF7CDFFBDE8A4
:1045E000F08700002000002070B504460D46E1B2BF
:1045F0000248FFF731FE204670BD00000038014040
:1046000010B5144600222260114A21F00043934263
:10461000A8BF10BD53EA000208BF10BDB3F5801F4C
:10462000A8BF226807DA362200F0B0FB6FF035022F
:1046300021F000432260DFF81CC06FF31E510CEB29
:1046400023531A4441F0FF5141F00051226010BD44
:104650000000F07F02FCFFFF2DE9F04106460C460A
:1046600040F2FF75174635EA14502BD0002213464E
:10467000304600F0DFF925D03A463046214600F0BA
:1046800085FB06460C4635EA145010D0002213462E
:10469000304600F0CFF915D10220FDF748F8FFF7BA
:1046A000ABFE0A46214662F31E01BDE8F0810220FE
:1046B000FDF73DF8FFF798FE0A46214662F31E011A
:1046C000BDE8F08130462146BDE8F08188B026E0A3
:1046D0000020134908601348D0F8B42112A103A8A0
:1046E000FBF710FE03A911480068FEF743FA5020BB
:1046F000FFF716FF01200A4908600D490D4843F2F3
:104700003902CDE900100CA103A8FBF7FBFD03A9BA
:1047100006480068FEF72EFA5A20FFF701FFD7E798
:10472000B401224200002242256C640000000020F7
:1047300085EB51B81E85F33F25642025322E326665
:10474000000000000EE000200749086040F214500D
:10475000FFF7E6FE01200549C1F8940141F28830D7
:10476000FFF7DEFEEFE70000948121420080214246
:1047700010B54FF4A060FEF7D9F8FFF7A3FE4FF491
:10478000E13200210948FFF775FDFEF76BF8FDF7F0
:104790006DFEFEF7D5F80A23054A00210548FEF70D
:1047A00087FAFEF75FFA002010BD000000380140D4
:1047B000CC010020D5480008A2B000BF002007901F
:1047C00006900590049030E021AA0A21174800685D
:1047D000FEF74EF9642208A91548FFF722FC0028CD
:1047E00020D004A805A906AB07AACDE9001011A1A5
:1047F00008A8FBF7AFFE042801D1012000E000204B
:10480000044674B1049800F017FA05460E46059860
:1048100000F012FA8DE863000BA0DDE90621FBF73A
:1048200065FD00BF6420FFF77BFECDE700000020A0
:1048300000380140496E707574202564202564207D
:1048400025662025660A000025642025642025327F
:104850002E32662025322E32660D0A0000B50B4836
:1048600000684FF47A72B0FBF2F04FF0E0229269E8
:10487000801A4822B0FBF2F200F00AF800EB400385
:10488000C3EBC01002EBC001084600BD04000020CD
:104890000248006800EB800070470000CC00002058
:1048A00000BF00BF00BF00BF00BF00BF00BF00BF10
:1048B0000AE0FFF7D3FF0446214604A0FBF716FDEC
:1048C0004FF4FA70FFF72CFEF3E700002564200A8E
:1048D0000000000070B50446002500BF0020FEF770
:1048E000A1F812490860FBF7A7FC05460723104A08
:1048F00000211048FEF7DCF906230F4A00210F487B
:10490000FEF7D6F904230E4A00210E48FEF7D0F92F
:1049100005230D4A00210D48FEF7CAF90A20FEF7CB
:1049200043FB2846FBF78CFC70BD00000000002014
:10493000CC020020CD460008CC03002045470008EB
:10494000CC090020B9470008CC050020A148000888
:1049500010B500290AD00878002807D00548784407
:10496000FDF718F9002801D0002010BD0248784456
:1049700010BD0000820600007A06000010B5002974
:104980000AD00878002807D005487844FDF702F9D6
:10499000002801D0002010BD0248784410BD00005E
:1049A000720600006A06000021F00042A2F1605287
:1049B000B2F5801F01F0004328BFD2F17F6C0BD904
:1049C0005FEA001C43EAC20242EB507018BF704716
:1049D00028BF20F001007047B2F5801FBCBF184609
:1049E00070474FEA410C1CF5001F02D2084600F048
:1049F00094B970B500F096F800000089FFF7F6BF93
:104A00004FF00040A0F580007047000002494FF0D1
:104A1000000000F089B900BF0000F87F491058BFBE
:104A2000C1F140415B1058BFC3F140438B42EFF3EB
:104A30000080704751EA030C17D41CF5801F58BF43
:104A4000BCF5801F00F10680994218BF704708BF6F
:104A50009042704707D711F5801F58BF13F5801F8C
:104A600019D499427047894270471CF5801F08D5B8
:104A7000BCF5801FF7D58B4218BF704708BF824234
:104A800070474FF4001C1CEB410F38BF1CEB430F69
:104A900001D28B42704770B500F044F8922449006F
:104AA0004FF000514FF08053FFF7B8BF51EA030CAD
:104AB00017D41CF5801F58BFBCF5801F00F106807D
:104AC000994218BF704708BF9042704707D711F549
:104AD000801F58BF13F5801F19D49942704789422F
:104AE00070471CF5801F08D5BCF5801FF7D58B4299
:104AF00018BF704708BF824270474FF4001C1CEB80
:104B0000410F38BF1CEB430F01D28B42704770B589
:104B100000F008F8922449004FF000514FF0805304
:104B2000FFF77CBF0EF1020E2EF0030E5EF8046B51
:104B3000364205D4012A43EB030515F5001F12D8B0
:104B4000012841EB010C1CF5001F0CD80ED14FEAD7
:104B5000D17C15F5001F0CEB4C0C0CF1020C08BFBE
:104B60004CEBD37C04E04FF0080C01E04FEAD37C1F
:104B70000CEB4C0526FA05F606F00706B6F1040C18
:104B800006D20EEB860CBDE870404CF0010C60477D
:104B9000DFE80CF0090B02024FF000414FF000007B
:104BA000A1F5002170BD19461046012851EB010402
:104BB00018BFD4F5001484BF002001F0004170BD7F
:104BC0000808A0F500114FEA3101704753EA010CC3
:104BD00017D41CF5801F58BFBCF5801F00F106805C
:104BE0008B4218BF704708BF8242704707D713F542
:104BF000801F58BF11F5801F19D48B4270479B420C
:104C000070471CF5801F08D5BCF5801FF7D5994269
:104C100018BF704708BF904270474FF4001C1CEB50
:104C2000430F38BF1CEB410F01D2994270470FB4BC
:104C30000CBC03BCFFF76BBF43004FEAD30C4FEA39
:104C40003C0C43401FBF40070CF1605113F0FE4F76
:104C500070471CF0006F03D100200CF0004170473A
:104C60000CF0004343EA507010B540EACC0000F06D
:104C70000EF800BF000000924FEA0001FFF7A0BF4E
:104C80004FF000414FF00000A1F5002170470EF1F8
:104C9000020E2EF0030E5EF8044B244204D44FEAB9
:104CA0004102B2F17F4F11D84FEA4003B3F17F4F79
:104CB0000CD80ED14FEAD07CB2F17F4F0CEB4C0CEC
:104CC0000CF1020C08BF4CEBD17C04E04FF0080C57
:104CD00001E04FEAD17C0CEB4C0324FA03F404F01E
:104CE0000704B4F1040C06D20EEB840CBDE81040AE
:104CF0004CF0010C6047DFE80CF0070802024FF0AF
:104D00000040A0F5800010BD0846420018BFD2F157
:104D1000807288BF00F0004010BDFF2141EAD050F2
:104D2000C0057047FBF70DBE0CF00F03092B08BF41
:104D3000082000F05F800A2B0BD0082B18BF7047AB
:104D400008BF1CF0400F0AD04FF000004FF00001E8
:104D500070471CF0400F18BF4FF0004070471CF028
:104D6000100F08D020F0704300F07F4242EAD301D8
:104D70004FEA4370704700F0604021F07F4242EA02
:104D8000000201F07F4040EA727070474FF0FF0C64
:104D90004CF4E06C1CEA11531CBF9CEA030C9445D4
:104DA000C2BFDA4201EB02517047002B0DD0BCF1BB
:104DB000000F0FD0002A01F00041A4BF41F0E041F4
:104DC00041F07F614FF00000704701F000414FF06B
:104DD0000000704750EA01334FF09B0C18BF4CF0B5
:104DE000806C7FF413AE7047FCF71EB8FCF7A6BCCE
:104DF000FCF730BE1CF4801F11D01CF4E02F03D050
:104E00006FEACC31490070474FF04050EFF3008219
:104E100022F0704242EA000282F3008870474FF0AD
:104E200000007047000001000200010003000100C3
:104E30000200010004000100020001000300010063
:104E40000200010005000100020001000300010052
:104E50000200010004000100020001000300010043
:104E60000200010006000100020001000300010031
:104E70000200010004000100020001000300010023
:104E80000200010005000100020001000300010012
:104E90000200010004000100020001000300010003
:104EA00002000100070001000200010003000100F0
:104EB00002000100040001000200010003000100E3
:104EC00002000100050001000200010003000100D2
:104ED00002000100040001000200010003000100C3
:104EE00002000100060001000200010003000100B1
:104EF00002000100040001000200010003000100A3
:104F00000200010005000100020001000300010091
:104F10000200010004000100020001000300010082
:104F20000200010002400000000000A0000000009C
:104F300005400000000000C8000000000C40000018
:104F40000000409C00000000194000000020BCBE92
:104F50000000000034400000BFC91B8E00000004A8
:104F6000B5400000504BCFD06607E2CF01000000F3
:104F70006C4100003E8251AADFEEA7340100000020
:104F8000D9420000DCB5A0E23A301F97FFFFFFFFD7
:104F9000B4450000FD25A0C8E9A3C14FFFFFFFFFF6
:104FA000FF3F00000000008000000000FF3F000005
:104FB00000000080000000000C51000800000020EC
:104FC000D00000006C010008DC510008D000002077
:104FD000A024000088010008000000000000F07F0D
:104FE0001C00000043000000F8FFFFFF0C00000061
:104FF0000E0000000F0000002E0000001001000055
:1050000043000000F8FFFFFF0040404040404040A8
:10501000404041414141414040404040404040408B
:10502000404040404040404040050202020202022F
:10503000020202020202020202202020202020207E
:105040002020200202020202020290909090909092
:105050001010101010101010101010101010101050
:1050600010101010020202020202888888888888C4
:1050700008080808080808080808080808080808B0
:1050800008080808020202024000000000000000B8
:105090000000000000000000000000000000000010
:1050A0000000000000000000000000000000000000
:1050B00000000000000000000000000000000000F0
:1050C00000000000000000000000000000000000E0
:1050D00000000000000000000000000000000000D0
:1050E00000000000000000000000000000000000C0
:1050F00000000000000000000000000000000000B0
:10510000000000000000000000000000000000009F
:1051100000A24A0400000000000000000102030495
:105120000607080900000000000000000000000061
:1051300000000000D00D0020200000000000000052
:10514000F00D00202000000000000000100E0020E4
:105150002000000000000000300E002020000000B1
:1051600000000000500E00202000000000000000A1
:10517000700E002020000000000000000000000071
:1051800000000000010203040102030406070809ED
:1051900002040608000000000000000000000000FB
:1051A00000000000000000000000000000000000FF
:1051B00000000000000000000000000000000000EF
:1051C00000000000000000000000000000000000DF
:0C51D000000000000000000000000000D3
:04000005080001F9F5
:00000001FF
