:020000040800F2
:10000000A00B0020D5010008A70800089F080008E1
:10001000A30800087F050008D112000800000000B6
:10002000000000000000000000000000710A00084D
:10003000830500080000000019090008850B00086E
:10004000EF010008EF010008EF010008EF010008D0
:10005000EF010008EF010008EF010008EF010008C0
:10006000EF010008EF010008EF010008EF010008B0
:10007000EF010008EF010008EF010008EF010008A0
:10008000EF010008EF010008EF010008EF01000890
:10009000EF010008EF010008EF010008EF01000880
:1000A000EF010008EF010008EF010008EF01000870
:1000B000EF010008EF010008EF010008EF01000860
:1000C000EF010008EF010008EF010008EF01000850
:1000D000EF010008590C0008090D0008BD0D0008CB
:1000E000EF010008EF010008EF010008EF01000830
:1000F000EF010008EF010008EF010008EF01000820
:10010000EF010008EF010008EF010008EF0100080F
:10011000E90B0008250C0008EF010008EF010008BA
:10012000EF010008EF010008EF010008EF010008EF
:1001300000F002F800F03FF80AA090E8000C8244BA
:100140008344AAF10107DA4501D100F034F8AFF297
:10015000090EBAE80F0013F0010F18BFFB1A43F0A5
:10016000010318471413000034130000103A24BF91
:1001700078C878C1FAD8520724BF30C830C144BF0C
:1001800004680C607047000000230024002500264E
:10019000103A28BF78C1FBD8520728BF30C148BFEA
:1001A0000B607047642900F07580002070471FB510
:1001B0001FBD10B510BD00F0ABF91146FFF7F7FFFA
:1001C00001F008F900F0C9F903B4FFF7F2FF03BC2E
:1001D00000F0CEF90948804709480047FEE7FEE7EE
:1001E000FEE7FEE7FEE7FEE7FEE7FEE7FEE7FEE7E7
:1001F00004480549054A064B70470000890B000872
:1002000031010008A0050020A00B0020A00700205D
:10021000A00700200FB4044910B503AA029800F00B
:1002200017F910BC5DF814FB040000202DE9F04123
:100230000E460446002020622046E168884730B31D
:10024000252805D0D4E901219047206A401CF2E717
:10025000E168204600278847050018D0A5F1410035
:10026000192802D820354FF4006732462946204627
:100270002760FFF797FF40B1012804D0F61D26F054
:1002800007060836D8E7361DD6E72846DAE7206A9B
:10029000BDE8F0812DE9F04106460024106875297B
:1002A000314616A510D0AFF30080002802DA404294
:1002B00013A507E031688A0701D512A502E04907B6
:1002C00004D511A5012401E0AFF3008000210A222A
:1002D00006F1240709E0B0FBF2FCB0FBF2F302FBED
:1002E0001C00303078541846491C0028F3D12346AE
:1002F0002A463046BDE8F04100F050B8000000004A
:100300002D0000002B00000020000000032A40F216
:10031000308010F0030C00F0158011F8013BBCF1A7
:10032000020F624498BF11F801CB00F8013B38BFBF
:1003300011F8013BA2F1040298BF00F801CB38BFCD
:1003400000F8013B11F0030300F09480083AC0F07C
:10035000088051F8043B083A51F804CBA0E8081093
:10036000F5E7121D5CBF51F8043B40F8043BAFF3C6
:100370000080D20724BF11F8013B11F801CB48BF20
:1003800011F8012B24BF00F8013B00F801CB48BF56
:1003900000F8012B70477047704770472DE9F04710
:1003A0000D4699469246044600F1240801688806E5
:1003B00004D5E06921F01001216000E00120A8428D
:1003C00001DD471B00E00027A1697A1902EB090053
:1003D000081AA0612078C00602D42046AFF300803E
:1003E000002608E0D4E901211AF806009047206AA7
:1003F000401C761C20624E45F4DB2078C0060AD5EE
:100400002046AFF3008006E0D4E901213020904778
:10041000206A401C2062381EA7F10107F4DC07E0C7
:10042000D4E9012118F805009047206A401C206299
:10043000281EA5F10105F3DC2046AFF300802078EB
:10044000000602D50220BDE8F0870120FBE700008E
:10045000074B70B50D467B4400F043F80446284630
:1004600000F052F810B14FF0FF3070BD204670BD63
:10047000630F000010B5203AC0F00B80B1E81850AF
:10048000203AA0E81850B1E81850A0E81850BFF47E
:10049000F5AF5FEA027C24BFB1E81850A0E818501D
:1004A00044BF18C918C0BDE810405FEA827C24BF71
:1004B00051F8043B40F8043B08BF7047D20728BFFF
:1004C00031F8023B48BF11F8012B28BF20F8023B4E
:1004D00048BF00F8012B704701694A1C0261087887
:1004E000704700B58FB0CDE9013100210591054974
:1004F0007944CDE9031011466846FFF797FE0FB027
:1005000000BD0000E5FFFFFF007B00F080007047AA
:10051000754600F029F8AE4605006946534620F0BE
:100520000700854618B020B5FFF762FEBDE8204001
:100530004FF000064FF000074FF000084FF0000B9F
:1005400021F00701AC46ACE8C009ACE8C009ACE852
:10055000C009ACE8C0098D4670470446AFF300807F
:100560002046FFF731FE0000004870473C050020A0
:1005700001491820ABBEFEE726000200704700BF0D
:10058000FEE770470149C860704700000020024044
:1005900030B5044604254FF4302000F079F80546C4
:1005A000042D17D10C48006940F002000A49086187
:1005B00008464461006940F0400008614FF4302073
:1005C00000F066F805460448006941F6FD710840F0
:1005D00001490861284630BD0020024004200B4933
:1005E000C96801F0010109B101200EE00749C9689D
:1005F00001F0040109B1022007E00449C96801F0D3
:10060000100109B1032000E00420704700200240DF
:100610000348006940F0800001490861704700000C
:100620000020024070B504460D460426F00200F09A
:100630002FF80646042E11D10948006940F0010048
:10064000074908612580F00200F022F806460448B8
:10065000006941F6FE71084001490861304670BDED
:100660000020024070B504460D461646324621462B
:100670002846FFF74BFE70BD024803494860034817
:10068000486070472301674500200240AB89EFCDE9
:1006900000B502460423FFF7A1FF034603E0FFF77E
:1006A0009DFF0346521E012B01D1002AF7D102B94A
:1006B0000523184600BD00002DE9FC5F07468A4669
:1006C0001646D1463846C0F30900C0F58065294872
:1006D000381A800A274901EB802BA7EB0B00019009
:1006E0000846381A840AAE4200D835463EE04FF03C
:1006F0000008204901EB84204A141F49FFF7B2FF8C
:10070000A84517D25846FFF743FF009000BF07E007
:1007100019F8081001984044174A115408F10108CB
:10072000A845F5D3134901EB84204A14124900F07F
:10073000D1FD08E0019901EB84210E4A88182A4670
:10074000494600F0C7FDAE4200D110E00020019004
:10075000641C084800EB842BA9442F44761BB6F593
:10076000806F01D9451400E0354600BFBFE700BFE8
:10077000BDE8FC9F009001087C00002010B50446F5
:100780002046FFF705FF10BD2DE9F0410246002588
:100790000026002000230024002791F803C00CF05D
:1007A0000F0591F803C00CF0100CBCF1000F03D042
:1007B00091F802C04CEA050591F800C0BCF1000FA9
:1007C00031D0146800202BE04FF0010C0CFA00F33C
:1007D000B1F800C00CEA03069E4220D183004FF01E
:1007E0000F0C0CFA03F7BC4305FA03FC4CEA0404B3
:1007F00091F803C0BCF1280F06D14FF0010C0CFAA0
:1008000000FCC2F814C00AE091F803C0BCF1480F24
:1008100005D14FF0010C0CFA00FCC2F810C0401CCE
:100820000828D1D31460B1F800C0BCF1FF0F34DD4B
:10083000546800202EE000F1080C4FF0010808FA7F
:100840000CF3B1F800C00CEA03069E4221D18300EC
:100850004FF00F0C0CFA03F7BC4305FA03FC4CEA0B
:10086000040491F803C0BCF1280F05D100F1080C75
:1008700008FA0CF8C2F8148091F803C0BCF1480FD4
:1008800007D100F1080C4FF0010808FA0CF8C2F883
:100890001080401C0828CED35460BDE8F08100BF12
:1008A000FEE700BFFEE7704770B5002100230F226E
:1008B000C47804B3154C246804F4E064C4F5E0641F
:1008C000210AC1F10403CA40447804FA03F1847890
:1008D0001440214309010E4C0678A155047804F018
:1008E0001F050124AC4005786D11AD0005F1E02530
:1008F000C5F8004109E0047804F01F050124AC406C
:10090000044D0678761145F8264070BD0CED00E0E8
:1009100000E400E080E100E07047000029B1064AF1
:10092000D2690243044BDA6104E0034AD26982438C
:10093000014BDA61704700000010024029B1064AFD
:1009400012690243044B1A6104E0034A12698243AC
:10095000014B1A61704700000010024029B1064A9D
:1009600092690243044B9A6104E0034A926982430C
:10097000014B9A61704700000010024029B1064AFD
:10098000D2680243044BDA6004E0034AD26882432F
:10099000014BDA60704700000010024030B50021C2
:1009A0000022002400232D4D6D6805F00C0121B1BB
:1009B000042905D0082923D105E0294D056022E04E
:1009C000274D05601FE0254D6D6805F47012234D1D
:1009D0006D6805F48034022505EB92421CB9214D67
:1009E000554305600BE01D4D6D6805F400351DB1E4
:1009F0001C4D5543056002E0194D5543056002E06A
:100A0000174D056000BF00BF144D6D6805F0F00183
:100A10000909154D6B5C0568DD4045600F4D6D683B
:100A200005F4E061090A104D6B5C4568DD408560A6
:100A30000A4D6D6805F46051C90A0B4D6B5C456841
:100A4000DD40C560054D6D6805F44041890B074DDB
:100A50006B5CC568B5FBF3F5056130BD0010024065
:100A600000127A0000093D005400002064000020BC
:100A7000704710B500F002F810BD00000CB5002062
:100A8000019000903348006840F48030314908609C
:100A900000BF3048006800F4003000900198401C0E
:100AA0000190009818B90198B0F5A06FF1D12948CC
:100AB000006800F4003010B10120009001E0002037
:100AC00000900098012843D12348006840F01000AE
:100AD000214908600846006820F0030008600846C5
:100AE000006840F0020008601A48406819494860F0
:100AF0000846406848600846406840F480604860A6
:100B00000846406820F47C1048600846406840F47D
:100B1000E81048600846006840F08070086000BF38
:100B20000C48006800F000700028F9D009484068BF
:100B300020F00300074948600846406840F0020082
:100B4000486000BF0348406800F00C000828F9D155
:100B50000CBD00000010024000200240042808D113
:100B60004FF0E021096941F004014FF0E0221161EA
:100B700007E04FF0E021096921F004014FF0E02285
:100B8000116170477047000010B51348006840F0CD
:100B900001001149086008464068104908400E49A4
:100BA0004860084600680E4908400B49086008463E
:100BB000006820F4802008600846406820F4FE00A9
:100BC00048604FF41F008860FFF753FF4FF000604C
:100BD0000449086010BD0000001002400000FFF84A
:100BE000FFFFF6FE08ED00E010B540F22551064883
:100BF00000F0C9F930B10448001D0088C1B20348B3
:100C000000F00CFA10BD0000004C00402C00002049
:100C100010B504460121C804FFF780FE072C00D060
:100C200000BF10BD10B540F22551054800F0ABF9EA
:100C300028B103488088C1B2024800F0EFF910BD26
:100C4000005000403800002010B50446012108057E
:100C5000FFF764FE10BD000010B540F225510648B4
:100C600000F091F930B10448001D0088C1B203487A
:100C700000F0D4F910BD0000003801400800002049
:100C800010B50446E4B901210520FFF767FE0121F4
:100C90008803FFF763FE4FF400701849088018209E
:100CA000C870032088701648FFF76EFD4FF480600F
:100CB000124908800420C8701148FFF765FD1BE049
:100CC000012C19D101210820FFF748FE01218803DA
:100CD000FFF744FE4020094908801820C87003200F
:100CE00088700848FFF750FD8020044908800420E0
:100CF000C8700448FFF748FD10BD000050000020F8
:100D000000080140000C014010B540F22551064892
:100D100000F039F930B10448001D0088C1B2034821
:100D200000F07CF910BD00000044004014000020D9
:100D300010B5044601214804FFF7F0FD022C1AD13A
:100D400001210420FFF70AFE01214804FFF7E6FD18
:100D50000420174908801820C8700320887015489F
:100D6000FFF712FD0820124908800420C8701148BE
:100D7000FFF70AFD1BE0032C19D101212020FFF70A
:100D8000EDFD01214804FFF7C9FD20200849088036
:100D90001820C870032088700748FFF7F5FC402032
:100DA000034908800420C8700348FFF7EDFC10BD1C
:100DB00050000020000801400014014010B540F22E
:100DC0002551064800F0DFF830B10448001D0088C6
:100DD000C1B2034800F022F910BD000000480040F5
:100DE0002000002010B5044601218804FFF796FD7D
:100DF000042C1AD101210820FFF7B0FD012188043D
:100E0000FFF7ACFD2002284908801820C870032095
:100E100088702648FFF7B8FC600223490880042048
:100E2000C8702248FFF7B0FC3CE0052C1CD1012122
:100E30001020FFF793FD01218804FFF78FFD4FF489
:100E40008060194908801820C870032088701848ED
:100E5000FFF79AFC4FF40060134908800420C87023
:100E60001348FFF791FC1DE0062C1BD10121202027
:100E7000FFF774FD01218804FFF770FD4FF48070C7
:100E8000094908801820C870032088700948FFF7B6
:100E90007BFC4FF40070044908800420C8700548AA
:100EA000FFF772FC10BD000050000020000C014054
:100EB000001001400014014021B1828942F4005227
:100EC000828104E082894DF6FF731A408281704767
:100ED00010B504462048844209D101218803FFF758
:100EE0004DFD00214FF48040FFF748FD32E01B48E4
:100EF000844209D101214804FFF720FD00214FF46D
:100F00000030FFF71BFD25E01548844209D101217F
:100F10008804FFF713FD00214FF48020FFF70EFD3A
:100F200018E01048844209D10121C804FFF706FDEA
:100F300000214FF40020FFF701FD0BE00A48844236
:100F400008D101210805FFF7F9FC00214FF48010BA
:100F5000FFF7F4FC10BD00000038014000440040E1
:100F600000480040004C0040005000400246002075
:100F7000B1F5007F00D100BF13880B400BB10120F9
:100F800000E00020704770B50246002400230025D1
:100F9000002040F66A16B14200D100BFC1F34215ED
:100FA00001F01F03012606FA03F3012D02D19689F1
:100FB000334006E0022D02D1168A334001E0968AC2
:100FC00033400C12012606FA04F41688344013B19B
:100FD0000CB1012000E0002070BD000001460A4A6B
:100FE000914200D10020094A914200D10120084AD3
:100FF000914200D10220074A914200D10420064AC2
:10100000914200D105207047003801400044004063
:1010100000480040004C00400050004010B5C2881D
:1010200083889A420FDA028983889A4201D100228A
:1010300002814AB2048903681A550289521C02814E
:10104000C288521CC28010BDF0B5034600240026A1
:101050000025002040F66A17B94200D100BF1846AB
:10106000C1F3421401F01F06012707FA06F5012C0F
:1010700001D10C3004E0022C01D1103000E014301A
:101080001AB107682F43076002E00768AF430760A3
:10109000F0BD00002DE9F04786B005460E4600245D
:1010A000A24600BFA1460027B08900B100BF2F466D
:1010B0002C8A4CF6FF700440F08804432C82AC89E3
:1010C0004EF6F3100440B088318908437189084313
:1010D0000443AC81AC8A4FF6FF400440B08904431E
:1010E000AC8201A8FFF75AFC1F48874202D1DDF805
:1010F00010A001E0DDF80CA0A88900F4004040B188
:101100000AEBCA0000EB0A1031684900B0FBF1F8A5
:1011100007E00AEBCA0000EB0A1031688900B0FB57
:10112000F1F86420B8FBF0F004012009642101FB10
:101130001089A88900F4004040B1322000EBC900BA
:10114000B0FBF1F000F00700044308E0322000EBB0
:1011500009106421B0FBF1F000F00F0004432C8172
:1011600006B0BDE8F08700000038014013B5044622
:1011700000BF80212046FFF7F9FE0028F9D09DF836
:101180000400A0801CBD000070B586B004460D466A
:10119000164602964948844212D12846FFF770FD50
:1011A00025208DF804000020ADF814000C20ADF8C7
:1011B00012000020ADF81000ADF80E00ADF80C00E4
:1011C0003F48844212D12846FFF7B2FD26208DF811
:1011D00004000020ADF814000C20ADF8120000202F
:1011E000ADF81000ADF80E00ADF80C0035488442A3
:1011F00012D12846FFF7F6FD27208DF804000020C5
:10120000ADF814000C20ADF812000020ADF810006D
:10121000ADF80E00ADF80C002B48844212D12846E0
:10122000FFF7F6FC34208DF804000020ADF8140020
:101230000C20ADF812000020ADF81000ADF80E0043
:10124000ADF80C002148844212D12846FFF7FCFC7F
:1012500035208DF804000020ADF814000C20ADF806
:1012600012000020ADF81000ADF80E00ADF80C0033
:1012700000212046FFF720FE2046FFF729FE02A9A5
:101280002046FFF707FF01212046FFF715FE012248
:1012900040F225512046FFF7D7FE01208DF80700C8
:1012A00000208DF805002046FFF798FE8DF8060017
:1012B00001A8FFF7F9FA06B070BD00000038014040
:1012C0000044004000480040004C004000500040F6
:1012D00000BFFEE72DE9F04105460E461746002403
:1012E000FFF7CAF93520FFF74DF92846FFF746FA10
:1012F0008046042802D04046BDE8F08100240BE07F
:1013000036F8141005EB4400FFF78CF98046B8F16D
:10131000040F00D004E0641C781CB4EB500FEFD332
:1013200000BFFFF775F94046E6E7000010B56FF023
:101330000400FFF713FC0A4800680A49B0FBF1F00B
:10134000094908700846007800EB4001C1EBC01065
:101350004FF6FF7101EAC0000449088010BD00008B
:101360006800002000127A00000000200200002027
:101370000146114A12884A434FF0E0235A61002285
:101380009A611A46126942F001021A6100BF4FF0D9
:10139000E022106900F001021AB100F48032002A44
:1013A000F5D04FF0E022126922F001024FF0E02365
:1013B0001A6100229A6170470200002070B504464D
:1013C0000D46E1B20248FFF7D1FE204670BD000095
:1013D000004400401CB500BFFFF7A8FF4FF4E13206
:1013E00002212048FFF7D0FE07208DF804000820D6
:1013F0008DF80500022201A91B48FFF75DF94FF4A3
:101400007A70FFF7B5FF022269461748FFF72AF9FD
:101410009DF801209DF8001014A0FEF7FBFE4FF48C
:101420007A70FFF7A5FF06208DF8040005208DF8DF
:101430000500022201A90C48401CFFF73DF94FF4BA
:101440007A70FFF795FF022269460748401CFFF7B4
:1014500009F99DF801209DF8001004A0FEF7DAFEBE
:1014600000BFFEE700440040009001082564203DD5
:101470003D2025640D0A000098140008000000209B
:101480007C0000006C010008141500087C0000209E
:10149000240B00008801000800000000000000008C
:1014A0007C04002020000000000000009C040020BC
:1014B0002000000000000000BC040020200000000C
:1014C00000000000DC0400202000000000000000FC
:1014D000FC04002020000000000000001C0500208B
:1014E00020000000000000000000000000000000DC
:1014F00001020304010203040607080902040608A6
:1015000000A24A04000000000000000001020304E1
:0415100006070809B9
:0400000508000131BD
:00000001FF
